:020000040800F2
:1000000000C00020A13B0008313C0008313C000842
:10001000313C0008313C0008313C00080000000081
:10002000000000000000000000000000313C00085B
:10003000313C000800000000313C0008E52B0008BE
:10004000313C0008313C0008313C0008313C0008DC
:10005000313C0008313C0008313C0008313C0008CC
:10006000313C0008313C0008313C0008313C0008BC
:10007000313C0008313C0008313C0008313C0008AC
:10008000313C0008313C0008313C0008313C00089C
:10009000313C0008313C0008313C0008313C00088C
:1000A000313C0008313C0008313C0008313C00087C
:1000B000313C00080000000000000000313C000856
:1000C000313C00080000000000000000313C000846
:1000D00000000000313C0008313C00080000000036
:1000E000313C0008313C0008000000000000000026
:1000F0000000000000000000000000000000000000
:10010000000000000000000000000000313C00087A
:100110000000000000000000313C0008313C0008F5
:10012000313C0008313C0008313C0008313C0008FB
:10013000313C00080000000000000000000000004A
:10014000313C0008313C0008313C0008F52B000828
:10015000313C0008313C0008313C0008313C0008CB
:10016000313C0008313C0008313C00080000000030
:10017000313C0008313C0008000000000000000095
:10018000313C0008313C0008313C00080000000010
:1001900010B5054C237833B9044B13B10448AFF3C1
:1001A00000800123237010BD280100200000000002
:1001B000503C000808B5034B1BB103490348AFF39B
:1001C000008008BD000000002C010020503C000809
:1001D000034613F8012B002AFBD1181A0138704787
:1001E00002440346934200D1704703F8011BF9E72C
:1001F00070B50D4D0D4C641BA4100026A64209D10C
:100200000B4D0C4C03F024FD641BA4100026A642E9
:1002100005D170BD55F8043B98470136EEE755F817
:10022000043B98470136F2E7603D0008603D000856
:10023000603D0008643D000873B5164BB3FBF0F059
:100240004FF47A7359430023B1FBF0F14008C0002A
:100250004FF090444FF400451E46A5610096009A69
:1002600090420ED8A5620196019A90420DD80133B2
:100270009942F2D14FF090434FF400429A6202B09B
:1002800070BD009A01320092E9E7019A01320192B1
:10029000EAE700BF40420F00064A00231360064A07
:1002A0001360064A1370064A1370064A1360064A22
:1002B00013607047C8070020C4070020B10A00205F
:1002C000B00A0020C0070020BC070020FF230B60FD
:1002D0004FF4007313800020704700207047002007
:1002E0007047002070470000122301480B807047C0
:1002F00074000020042301480B8070477000002028
:100300000C2301480B80704748000020002370B583
:100310004D1C1E46040FB0F1204F34BF303437342B
:1003200001F8134005F813600133DCB2A2424FEA32
:100330000010EFD870BD00001A2310B50B800A4BD7
:10034000D3F89005D3F8982580180AD0D3F89445AF
:1003500006490822FFF7DAFF042210312046FFF792
:10036000D5FF034810BD00BF0070FF1F56000020DE
:10037000540000200A230380004870471C0000201E
:10038000034A1168013013685B1A8342FBD370473C
:10039000B40A00201548037FDAB203F0FD03012BF5
:1003A00010D1134B196821F400711960196841F4D8
:1003B00000611960196821F400611960196841F43D
:1003C00000711960931E012B0CD8094B1A6842F476
:1003D00080521A601A6822F480521A601A6842F435
:1003E00080621A6000230377704700BF88000020F6
:1003F00000200240204B9A68D96812F00C0205D008
:100400000C2A2CD101F0030101292FD119681B48B6
:10041000090755BFD3F894101968C1F30321C1F33C
:10042000031150F8210032B3DA6802F00302022A05
:100430001ED01349032A08BF0846D968DA68C2F3F8
:1004400006224243D868C0F34160C1F30211013073
:1004500001314000B2FBF1F2B2FBF0F07047042A28
:1004600008D0082A064818BF002070470020DBE7A4
:100470000448E2E70348704700100240143D0008BA
:1004800000127A000024F4001F4A2049936D13F0F3
:10049000805F82B019D00B6803F4C063B3F5007FAE
:1004A00024D180282AD9A0288CBF02200120184AF4
:1004B000136823F0070303431360136803F0070373
:1004C000181A18BF012002B07047936D43F0805393
:1004D0009365936D03F080530193019B0B68916DBD
:1004E00021F0805103F4C0639165D7E7802807D8D5
:1004F00008D0A0F1700358425841D8E70020D6E751
:100500000320D4E70220D2E7001002400070004030
:10051000002002403E4B30B5DC68A407024600686C
:1005200027D0DC6804F00304844239D1002C37D092
:10053000D8685468C0F302100130A04230D1186866
:10054000344D20F0806018602C681868000130D4A9
:100550009068000299B30129196948D1146921F4FE
:10056000C001640821F4FE41013C014341EA4451C9
:100570002EE0022810D0032814D0012810D11C68C6
:10058000A5071BD5DC68556824F07304013D2043A2
:1005900040EA0510D860D2E71C6814F4806FF1D1EE
:1005A00001200BE01C68A403ECD41C6814F4802F19
:1005B000F5E72868001B0228C7D9032030BD1C6955
:1005C000D16840EAC16124F0784020F4FE40014344
:1005D0001961196841F0806119602868196809017A
:1005E00010D5196992690A431A610020E6E7546937
:1005F00021F0C061640821F4FE41013C014341EA5D
:100600004461E5E72968091A0229E7D9D5E700BF5F
:1006100000100240B40A002002F580620133104449
:100620005B0801EB4303401A8B4200D170470A88F4
:100630000A520231F8E702F58062F0B510445D0815
:100640000C462E46471A3A19023436B9DB0744BF26
:1006500030F8153001F81530F0BD128892B204F868
:10066000022C120A04F8012C013EECE710B50246F8
:1006700008484188037899420AD9047820442344E1
:100680004478052C9BB2F6D184789442F3D110BD06
:100690000020FCE72800002038B505468120FFF740
:1006A000E5FF04460120FFF7E1FF1CB100222271A3
:1006B0000222627118B100220271022242712023CB
:1006C00001482B8038BD00BF2800002038B5054602
:1006D0008120FFF7CBFF04460120FFF7C7FF1CB1C5
:1006E000402222710022627118B140220271002260
:1006F0004271202301482B8038BD00BF2800002014
:10070000FFF7E4BF10B50022013813460132845CC4
:10071000002CFAD1DBB2094A01335B000B80137065
:1007200003235370022310F8011F01B910BDD154E7
:10073000591CC9B202335454DBB2F4E7BC030020A5
:1007400008B50248FFF7DEFF014808BD683C000815
:10075000BC030020FFF7F4BF08B50248FFF7D2FF43
:10076000014808BD793C0008BC03002008B50248D8
:10077000FFF7C8FF014808BD7D3C0008BC0300200E
:100780001049114B086810B54CF24F341A69D20366
:100790000AD41A690D490A400CD00D48416811432A
:1007A00041601A61012010BD0A68121AA242EDD9F7
:1007B0000320F8E71A69D20744BF01221A6100201A
:1007C000F1E700BFB40A002000200240FAC3020093
:1007D000880000200B49D1F8DC3293F89C22042ACF
:1007E0001EBF93F89C22D2B283F89D22042283F884
:1007F0009C228B7A23B1044A136943F006031361E8
:10080000704700BFD007002000ED00E0134BDB680D
:10081000C3F3022310B5C3F107041A1D042C28BF2B
:100820000424062A88BFDA1E4FF0FF3303FA04F3CC
:1008300098BF002221EA03039340421C14BF00F139
:100840006040064A4FEA031318BF00F56140DBB26F
:1008500014BF80F8003382F8233010BD00ED00E0B3
:10086000114B4FF47A721B68B3FBF2F3013BB3F107
:10087000807F10B5014601D3012010BD4FF0E0226A
:10088000F0205361094B002483F823000F294FF017
:10089000070394611361EFD84FF0FF30FFF7B6FF05
:1008A000034B20461960E8E7AC00002000ED00E0B3
:1008B000A8000020144A08B5D2E9004072B64FF0F3
:1008C000E023002119615961996103F1C04303F5E7
:1008D0009833996D21F080619965996B41F0806141
:1008E0009963996B21F0806199634FF090430421E3
:1008F0009961064B9A6084F30888BFF34F8FBFF36A
:100900006F8F8047FEE700BF0040000800ED00E069
:100910000C4BD3F8C82292F89032012B11D01368F7
:10092000B3F8401021F47E514904490CA3F840105B
:10093000B3F85810C1F30E01A3F85810002382F841
:1009400090327047B80A002010B51B4CFFF7E0FF4B
:10095000012384F89C32D4F8B8321BB15B6821794A
:1009600020469847D4F8C8320021C4F8C412C4F80D
:10097000B412C4F8D012F3B11A680320012483F82A
:100980009102A2F84040A2F844100C49A2F840009D
:100990008A420DD101F5D4318A6D22F080628A65D8
:1009A000074A0821C2F88810BFF34F8FBFF36F8F3B
:1009B000002283F8912210BDB80A00200068004090
:1009C00000E100E0064810B5FFF7A2FFD0F8B8320A
:1009D00023B1BDE810405B680179184710BD00BF26
:1009E000B80A00202DE9F0474B780A7B012B054619
:1009F0000C4640F01B81D1F810A08F69496957451A
:100A000028BF574602BBBFB2E2883B46FFF704FE51
:100A1000B5F85020237805F2024111FA82F202EB78
:100A2000C3021780227835F8223023F4E04323F004
:100A300040031B041B0C83F0300343F4004343F0DA
:100A4000800325F8223049E1E378266A94F800C053
:100A5000022B40F0D480B24530F82C2080F0B880D2
:100A600022F4E04222F070021204120C42F401421D
:100A700042F0800220F82C2030F82C80B0F8502072
:100A8000F61B18F04008266201EB0709BBB251D0F3
:100A900000F2064E1EFA82F222F83C306289FFF71D
:100AA000BBFDB2456278C4F8149036BFF31B002337
:100AB0003E462362B3B282BBB5F85020217805F2DE
:100AC000024010FA82F202EBC1021188C1F309015F
:100AD00011802EB911886FEA41416FEA51410AE055
:100AE0003E2E10D8F10711884FEA560048BF01305A
:100AF00089B241EA802189B211802289494628467B
:100B0000FFF78AFD8EE711887009F70608BF00F12C
:100B1000FF3089B241EA8021DDE7012AEDD1B5F845
:100B20005020217805F2024010FA82F202EBC10255
:100B30001380E2E700F2024E1EFA82F222F83C3005
:100B40002289FFF769FDB2456278C4F8149036BF78
:100B5000F31B43463E462362B3B262BBB5F8502056
:100B6000217805F2064010FA82F202EBC1021188E8
:100B7000C1F3090111802EB911886FEA41416FEA72
:100B8000514109E03E2E0BD811887008F60748BF86
:100B9000013089B241EA802189B211806289ADE7D2
:100BA000F10611884FEA561008BF00F1FF3089B2F4
:100BB00041EA8021E1E7012AF0D1B5F850202178FF
:100BC00005F2064010FA82F202EBC1021380E5E75B
:100BD00022F4E24222F070021204120C42F40042AB
:100BE00042F0800220F82C20B0F8502000F202439E
:100BF00013FA82F2B3B222F83C30228980E730F84F
:100C00002C20F61B12F0400F2662B0F85020BBB229
:100C100007D000F2064616FA82F222F83C306289CA
:100C20006EE700F2024616FA82F2E4E7A2BB8A6996
:100C3000097892B9E37883B930F8213023F4E0439E
:100C400023F070031B041B0C43F4014343F08003A7
:100C500020F821300023A36112E035F8213023F47D
:100C6000E24323F070031B041B0C43F4004343F0E6
:100C7000800325F8213023699A42EBD9D21AA26168
:100C8000227835F8223023F4804323F070031B04CC
:100C90001B0C83F44053D0E6CB78022B1CD1CB69DC
:100CA000002BEDD00A7830F8221044F2400303EA1A
:100CB00001008B4301D00028E2D135F8223023F423
:100CC000E04323F070031B041B0C43F4004343F088
:100CD000C00325F82230D3E7012BBBD0BDE8F08755
:100CE000054B5A69002A05DA044A9A6002F18832F3
:100CF0009A605B69704700BF00200240230167458E
:100D0000D0F8D432B03310B550F823309BB193F8FB
:100D1000610203EBC00484F84422421CD2B284F87E
:100D20004012042A4FF0000184F8451214BF83F8E2
:100D3000612283F8611210BD10B5D0F8D442B034EE
:100D400050F8243043B1D3F868321144994206D99F
:100D500021220521FFF7D4FF4FF0FF3010BD002006
:100D6000FCE710B508B1C26002B910BD013A92B2F9
:100D700083188C5C1C74F7E7D0F8B8325B681847AE
:100D800030B4D0F8C84201F00701282505FB014026
:100D9000C0E95923002380F85011C0F86C3180F865
:100DA000513100F5A871206830BCFFF71BBE70B44C
:100DB000D0F8C84201F0070505EB8501282000FBAB
:100DC000054004EBC1064262B362012203630023C3
:100DD00080F834203146F362057442742068103183
:100DE00070BCFFF7FFBD0000D0F8D432B03370B54F
:100DF00050F823400546ACB10B4BC4F83032002309
:100E000084F83C12237204F50C720D238121FFF744
:100E1000CEFF04F5047228461F23BDE8704001216F
:100E2000FFF7AEBF70BD00BF555342532DE9F041EF
:100E300005460846D5F8D42205EB8202D2F8C04216
:100E4000ECB1B4F86432D4F87062D2F8C4225E43D4
:100E5000B6F5007F04F1100728BF4FF40076D2F8F2
:100E60001480B6FBF3F3D4F86C229BB23946C0472A
:100E7000002808DA032204212846FFF741FF4FF03B
:100E8000FF30BDE8F081D4F86C22B4F86432B6FBD0
:100E9000F3F10A44C4F86C22D4F87022511AD4F841
:100EA0003822C4F87012921BC4F8382221B928469F
:100EB000FFF79AFF0020E4E74B43B3F5007F28BF1C
:100EC0004FF400733A4601212846FFF759FFF1E736
:100ED0002DE9F04106460846D6F8D42206EB8202F8
:100EE000D2F8C042ECB1B4F86432D4F87052D2F8FF
:100EF000C4225D43B5F5007F04F1100728BF4FF40D
:100F00000075D2F81080B5FBF3F3D4F86C229BB2D5
:100F10003946C047002808DA112204213046FFF77D
:100F2000EFFE4FF0FF30BDE8F0812B463A468121BD
:100F30003046FFF73CFFD4F86C32B4F86422B5FBBE
:100F4000F2F21344C4F86C32D4F870329B1AD4F81D
:100F50003822C4F87032521BC4F838220BB903236C
:100F600023720020DFE70000D0F8D43200EB8303C7
:100F7000F7B5D3F8C04205460E461746002C00F0E0
:100F8000838012782F2A43D8192A0FD8032A00F019
:100F90008980122A00F0B880002A6DD02022052115
:100FA0002846FFF7ADFE022363726DE01A3A152A58
:100FB000F4D801A151F822F0831100084D11000866
:100FC0009D0F00089D0F0008791100089D0F000873
:100FD0009D0F00089D0F00089D0F0008A511000837
:100FE0009D0F0008FF1100089D0F00089D0F0008CD
:100FF0009D1200089D0F00085D1300089D0F00085A
:101000009D0F00089D0F00089D0F00082B1400087D
:101010009E2A00F0148115D8352A00F014825A2A2D
:10102000BCD1D3F8C4320846DB68984720B1B84A2F
:10103000D37863F07F03D3703A7AB549082A28BF82
:1010400008226CE0A82A00F06B81AA2AA6D1227A95
:10105000002A40F0CC81D4F8182282B194F91C22E5
:10106000002A0CDBD3F8C43208469B689847002856
:1010700000F0C4813A22CCE1D4F818223AB12022FF
:1010800005212846FFF73CFE4FF0FF30E5E194F8DC
:101090006212022940F0D7813A22FFF731FE052380
:1010A0002372F1E7D4F81832002BE8D004F10F03D3
:1010B00004F12102002103F8011F9A42FBD17023A1
:1010C00023740C2394F86122E37594F860329A42F9
:1010D00012D004EBC302013392F84002A07492F8DC
:1010E00044022077DBB292F845226277042B14BFCA
:1010F00084F8603284F860121223E3603A799A42ED
:1011000098BF1346E360A7E1D4F81822002AB6D0AE
:101110007A78D2070CD5BB782BB97E4906222046B7
:10112000FFF71FFE98E1802B1AD17B490822F6E7D2
:10113000D3F8C4323A7901EBC106D96901EB8601D3
:101140000B7905339A4228BF1A46E8E794F86222E1
:101150003B79012A03F0030304D1022B40F07F8185
:1011600024228DE7012B01D1002302E0022B40F065
:10117000798184F8623278E13B79003B18BF012322
:10118000F7E7D3F8C4323046DB68984720B1634AAA
:10119000937863F07F0393703A796049042A28BFFB
:1011A0000422BCE7D3F8C4320DF102025B6801A946
:1011B0003046984718B994F86232022B02D13A228D
:1011C00002215EE704F10F0304F11B02014603F85C
:1011D000011F9342FBD10823E374019B013B1A0ECC
:1011E00022751A0C6275E3751A0ABDF80230A275F1
:1011F0005BBA022263830C232283E3602DE1D3F8E0
:10120000C43204F519725B6804F51A7130469847C8
:101210000028D4D194F86232022BD0D0D4F86832AE
:10122000A082013B1A0E22741A0C6274E3741A0A2B
:10123000B4F86432A2745BBAE382082362E7D3F89D
:10124000C43204F519725B6804F51A713046984788
:101250000028B4D194F86232022BB0D0D7F80A300B
:1012600004F10F021BBAE36013449A4213D1D4F87D
:101270006832013B1A0E22751A0C6275E3751A0A60
:10128000B4F86432A2755BBA002222836383D7F874
:101290000A301BBA36E702F8010FE6E7227A6ABB8A
:1012A00094F91C22002ABFF6EAAE94F86222022AC0
:1012B00085D0D3F8C43230469B68984700287FF425
:1012C0007EAFD7F8021009BAC4F86C12B7F807203D
:1012D00052BA92B2C4F870222846FFF72DFD0028BA
:1012E000FFF6D2AED4F87022B4F864325343D4F887
:1012F00018229A427FF4C3AE022323724FF4007384
:1013000031462846E36003B0BDE8F040FFF7E0BD9A
:101310001200002008000020000000200E00002025
:10132000227A002AEAD194F91C22002ABFF6A7AE3D
:1013300094F86222022A3FF442AFD3F8C43208463E
:101340009B68984700287FF43AAFD7F8021009BA93
:10135000C4F86C12D7F8062012BABBE7227A002A2A
:1013600045D1D4F81822002A3FF489AE94F91C2202
:10137000002AFFF684AED3F8C43230469B68984703
:1013800000287FF41CAFD5F8D43205EB8303304638
:10139000D3F8C432DB68984708B1272210E7D7F8A2
:1013A000021009BAC4F86C12B7F8072052BA92B208
:1013B000C4F870222846FFF7BFFC0028FFF664AE91
:1013C000D4F87022B4F864325343D4F8182293420C
:1013D0007FF455AE0121B3F5007F217228BF4FF491
:1013E000007304F110022846FFF7CAFC34E03146CE
:1013F000284603B0BDE8F040FFF718BDD5F8D43259
:1014000005EB83033046D3F8C432DB68984718B144
:1014100027220221284640E6D7F8021009BAC4F86C
:101420006C12D7F8062012BAC2E77B7813F00206D6
:101430007FF496AED4E99B12FFF77EFC0028FFF6FE
:1014400023AEE66008E0D3F8C43230469B68984784
:1014500000287FF40FAEE060002003B0F0BD012B48
:101460003FF482AE032B3FF47FAE00234AE600BF79
:10147000D0F8D432B03310B550F82330044643B11D
:101480001A7A022A07D0033A012A02D80021FFF76C
:10149000ABFC002010BD93F81D1203F21F22FFF7D2
:1014A00063FD0028F5DA01212046F0E7042200233D
:1014B000C0F8942219461A46FFF779BC70B5044665
:1014C00009BBD0F89432032B2BD1D0E95736B34265
:1014D00009D99B1BB342C0F85C3128BF3346BDE835
:1014E0007040FFF74DBC90F89C32032B06D1D0F82A
:1014F000B8321B6913B1C0F8D41298472046BDE832
:101500007040FFF7D3BF90F89C32032B09D1D0F87D
:10151000B8329B692BB10022BDE87040C0F8D422DC
:10152000184770BD10B413460222C0F89422C0E9D7
:1015300006330A465DF8044B0021FFF738BC30B58E
:10154000D0F8C802027901F00F039A4247D301F0A4
:10155000070505EB850311F0800F2C464FEAC30306
:101560004FF028023CD002FB050210330121034456
:10157000517400229A701D7090F89022012A2ED08A
:10158000012280F890225978026891B31978DC78AA
:1015900032F821305D060DD532F8213023F4E043D6
:1015A00023F070031B041B0C43F4004343F0C003FF
:1015B00022F82130012C0FD032F8213023F4E043FF
:1015C00023F040031B041B0C83F0200343F400436F
:1015D00043F0800322F82130002380F8903230BDA0
:1015E00002FB050203F5A8730021034482F85111A0
:1015F000BFE732F824305B040DD532F8243023F4F1
:10160000E04323F070031B041B0C43F4404343F0FE
:10161000800322F8243032F8243023F4804323F06E
:1016200070031B041B0C83F4405343F4004343F04A
:10163000800322F82430CFE710B5D0F8C822137900
:1016400001F00704A3422BD311F0800F4FF02800C4
:1016500027D000FB042300FB042001211033417438
:10166000012199701C7092F89002884218D082F87B
:1016700090125C781168187831F82030DCB123F4CE
:10168000E04323F040031B041B0C83F0100343F4DE
:10169000004343F0800321F82030002382F8903289
:1016A00010BD00FB012300FB0121002003F5A873FE
:1016B00081F85101D4E723F4804323F070031B0425
:1016C0001B0C83F48053E2E738B5D0F8D432B03342
:1016D000044650F82350DDB195F81C323BB9D5F8DB
:1016E000183223B16B7A13B90121FFF7A5FF8121CD
:1016F0002046FFF7A1FF6B7A022B09D120468121FA
:10170000FFF79AFF20460121BDE83840FFF794BF5C
:1017100038BD000038B5D0F8D432B033054650F8A3
:1017200023401CB1237A1BB1012B5AD0002038BDB5
:10173000D4F81432C4F83432D4F81832C4F8383239
:10174000D0F8C832D3F894311F2B0DD1D4F8102221
:10175000284B9A4208D194F81D12012904D894F814
:101760001E32013B0F2B0AD9202205212846FFF704
:10177000C7FA022363722846FFF7A6FFD6E704F2F2
:101780001F22FFF7F1FB0028237A06DA052BF2D19E
:1017900001212846FFF728FBC8E7013B022BC5D9EA
:1017A000E1680029F5D0D5F8D432B03355F82320BC
:1017B000002ABBD0D2F83802D2F81832401AC2F848
:1017C000380200208B4282F83C024FF00400107275
:1017D00028BF0B4604F1100281212846FFF7E7FAE3
:1017E000A4E794F81D1204F21F22FFF7BDFB0028A6
:1017F0009CDACDE7555342432E4B282270B5D3F8DF
:10180000DC4202FB003305465A6A002840D1D4F876
:101810009432022B0FD1D4E907318B4212D95B1AD3
:10182000E36101462046FFF7C2FA00231A46194633
:101830002046FFF7A5FA94F8A03213B1002384F8EC
:10184000A03270BD0FD1A26993420CD8D4F898325F
:101850009A4208D20346024601462046FFF7A7FAFD
:10186000C4F89852E1E794F89C32032B08D1D4F8DD
:10187000B832DB6823B10022C4F8D422204698474E
:1018800080212046FFF7D8FE0523C4F89432CCE728
:1018900094F89C32032BD4D1D4F8B8325B69002B76
:1018A000CFD00022C4F8D42201462046BDE87040C3
:1018B000184700BFD007002010B580210446FFF76D
:1018C000BBFE20460021BDE81040FFF7B5BED0F8B2
:1018D000C83293F89022012A1CBF002283F890227C
:1018E00070470000F7B5D0F8D46200EB86060023FD
:1018F000D6F8C052ADF8063004466DB10B7813F03F
:1019000060023AD0202A04D14A78FE2A06D0FF2A63
:1019100017D02046FFF7D0FF03202CE04A88002A8A
:10192000F7D1CF88012FF4D11806F2D5D6F8C432FA
:101930009B6998473A46286029462046FFF7F2FD02
:1019400018E04A88002AE4D1CA88002AE1D11906A1
:10195000DFD44FF480732B818121FFF7F0FD01214B
:101960002046FFF7ECFD1F2305F5047201212046F8
:10197000FFF706FA002003B0F0BD4B780B2BC8D858
:1019800001A252F823F000BFB9190008E5190008B8
:101990001319000813190008131900081319000877
:1019A0001319000813190008131900081319000867
:1019B000C9190008D719000890F89C32032BA8D148
:1019C00002220DF10601B8E790F89C32032BA0D15A
:1019D0000122291DB1E790F89C32032B99D18B7815
:1019E0006B60C7E790F89C32032BC3D14B88002B68
:1019F000C0D18E880979FFF76AFF6B7A022B07D175
:101A00008121FFF719FE01212046FFF715FEB1E7FE
:101A10003206AFD5012BADD00121FFF7E5F9A9E7DB
:101A200010B501F0070404EB840211F0800FD0F828
:101A3000C8024FEAC2024FF0280338D003FB040368
:101A40001032012102445974147090F89032012B25
:101A50002CD0012380F89032147B517803681278DF
:101A6000002C46D161B333F822104C060DD533F863
:101A7000221021F4E04121F070010904090C41F425
:101A8000004141F0C00123F8221033F8221021F464
:101A9000E04121F040010904090C41F4004141F00A
:101AA000800123F82210002380F8903210BD03FB40
:101AB000040302F5A8720021024483F85111C3E720
:101AC00033F8221049040DD533F8221021F4E041F7
:101AD00021F070010904090C41F4404141F08001FA
:101AE00023F8221033F8221021F4804121F07001F4
:101AF000D1E700294AD133F822104C040DD533F830
:101B0000221021F4E04121F070010904090C41F494
:101B1000404141F0800123F8221033F82210490699
:101B20000DD533F8221021F4E04121F070010904B1
:101B3000090C41F4004141F0C00123F8221033F8B0
:101B4000221021F4E04121F070010904090C41F454
:101B5000004141F0C00123F8221033F8221021F493
:101B6000804121F070010904090C48F280042143EE
:101B700023F8221033F8221021F4E04121F0400133
:101B80000904090C0C4323F822408CE733F8221097
:101B90004C040DD533F8221021F4E04121F07001FE
:101BA0000904090C41F4404141F0800123F822105E
:101BB00033F8221049060DD533F8221021F4E04104
:101BC00021F070010904090C41F4004141F0C00109
:101BD00023F8221033F8221021F4E04121F07001A3
:101BE0000904090C41F4404141F0800123F822101E
:101BF00033F8221021F4E04121F040010904090CDE
:101C000048F28004214323F8221033F8221021F4F3
:101C1000804121F07001B3E738B504460121002569
:101C2000FFF7FEFEA4F8785181212046FFF7F8FE69
:101C3000D4F8D432258704EB8303D3F8C02222B131
:101C40001572C3F8C052C4F8BC52002038BD000061
:101C50002DE9F04101F0070606EB860711F0800F31
:101C6000D0F8C842964630464FEAC7074FF02802E0
:101C700069D002FB06421037012127445174BEF19E
:101C8000020F04BF00223A713E703B6187F803E007
:101C900094F89022012A54D02168DFF8D8C201229A
:101CA00084F8902231F8205025F4EC4525F0700599
:101CB0002D042D0CBEF1020F48F2800818BF45F428
:101CC000007545EA080521F8205031F8202092B22D
:101CD00002EA0C02324348EA020221F820203D7B4E
:101CE000C200002D71D1FD887F786D086D009FB313
:101CF000B1F8503002F580629BB20A44D55231F8F7
:101D000020305B060AD531F820309BB203EA0C0381
:101D100043F4004343F0C00321F8203031F8203071
:101D200023F4E04323F040031B041B0C83F0200347
:101D300043F4004343F0800321F82030002384F86B
:101D40009032BDE8F08102FB064207F5A87700213A
:101D5000274482F8511192E7B1F8507002F2044E14
:101D6000BFB28E4402F206422EF80750B1F850502E
:101D70000A44ADB2575BC7F3090757535F09535B7A
:101D8000013F9BB243EA87236FEA43436FEA534321
:101D90009BB2535331F820305F040AD531F820301C
:101DA0009BB203EA0C0343F4404343F0800321F861
:101DB000203031F820306E4A9BB2134016B983F4BC
:101DC0004053B5E783F40053B2E7BEF1020F31F898
:101DD000205040F08780ADB205EA0C0545F401457E
:101DE00045F0800521F82050B1F850603D8902F59A
:101DF000806CB6B28C446D086D002CF80650B1F8BA
:101E000050607D8902F2044CB6B28C446D086D00BE
:101E10002CF806507D78002D6FD131F820506E04DB
:101E20000DD531F8205025F4E04525F070052D043E
:101E30002D0C45F4404545F0800521F8205031F83F
:101E400020506D060DD531F8205025F4E04525F0E1
:101E500070052D042D0C45F4004545F0C00521F812
:101E60002050B1F8506002F20247B6B20F445B094D
:101E7000BD5BC5F30905BD53013BBD5B9B029BB236
:101E8000ADB21D4345F40045BD53B1F8505002F2C8
:101E900006420A44ADB2565BC6F309065653565B7A
:101EA00033436FEA43436FEA53439BB2535331F8D2
:101EB000203023F4804323F070031B041B0C83F4B5
:101EC000405348F28002134321F8203031F820308B
:101ED00023F4E04323F040031B041B0C1A4321F8B6
:101EE00020202BE725F4E24525F070052D042D0C6C
:101EF00048EA050821F8208076E731F820305A04B6
:101F00000DD531F8203023F4E04323F070031B0497
:101F10001B0C43F4404343F0800321F8203031F898
:101F200020305B060DD531F8203023F4E04323F058
:101F300070031B041B0C43F4004343F0C00321F85F
:101F4000203031F8203023F4E04323F040031B0419
:101F50001B0C83F0200348F28002134321F8203049
:101F600031F8203023F4804323F07003B4E700BF3E
:101F70008FBFFFFF8F8FFFFF2DE9F041D0F8D472A4
:101F8000204E00EB87070446C7F8C062037CC0F808
:101F9000BC626BBB4FF4007302220121FFF758FEB5
:101FA0000123A4F878314FF4007302224FF00108A6
:101FB00081212046FFF74CFEA4F838800025D7F891
:101FC000C4323581A6F8605286F862521B682846F2
:101FD000984720464146FFF77AFC8121FFF777FCBE
:101FE000094A1F234146FEF7CBFE2846BDE8F08193
:101FF000402302220121FFF72BFE0123A4F87831B0
:102000004023D2E744010020540300207D4A30B52C
:10201000136803F4C063B3F5007F97B018D013685A
:1020200023F4C06343F400731360774B1B683221C1
:102030004B437649B3FBF1F301335169480500D5B1
:1020400023B95369590503D572B6FEE7013BF4E79E
:102050006F4CA568E36815F00C0507D00C2D40F017
:10206000898003F00303012B40F0848023682368F8
:102070001A0756BFD4F8943023681B0903F0F00305
:102080005F2B61D86020FEF7FFF908B172B6FEE75A
:10209000236843F008032360236823F0F00343F030
:1020A00060032360636823F47F436360FEF7A2F953
:1020B000A368584AC3F30313D35C03F01F03D8404B
:1020C000514B1860544B1868FEF7CAFB0028DDD14D
:1020D000E36803F00302012A0CD103F4FE42B2F5D7
:1020E000205F07D103F07842B2F1605F02D14B4A22
:1020F000134266D00C2DC9D023685D01C6D4236875
:1021000023F080732360464B1968226890014ED4F7
:10211000E26844491140444A0A43E260226842F0BE
:1021200080722260E26842F08072E2601968226880
:10213000920141D53D4A13685B0757D5A3682368D0
:102140009D0175D472B6FEE7236843F0080323604F
:10215000236823F0F00343F060032360636823F4F3
:102160007F436360002DA1D16020FEF78DF9002828
:102170009CD08BE723682A4A43F00103236011684F
:1021800023689B070ED5236843F008032360236868
:1021900023F0F00343F060032360636823F47F437C
:1021A000636095E713685B1A022BE9D96EE71A683A
:1021B000521A022AA9D969E71A68521A022AB6D90C
:1021C00064E723689D01B5D42368154A43F0807302
:1021D0002360E36843F08073E3601168236898012B
:1021E000A8D413685B1A022BF8D94FE7136823F0C1
:1021F000070343F004031360136803F00703042B81
:102200009CD09FE700700040AC00002040420F00CF
:1022100000100240443D0008A80000207000600645
:10222000B40A00208C809D01012800380020024063
:10223000A368374A43F00303A360116841F2883072
:10224000A36803F00C030C2B4ED1A368314A13F0A2
:10225000F00F1EBFA36823F0F003A360136803F020
:102260000703042B45D8A36823F4E063A360A368A5
:1022700023F46053A360FEF7BDF8A368264AC3F3B6
:102280000313D35C03F01F03D840244B1860244B86
:102290001868FEF7E5FA014600287FF453AF3422B0
:1022A00009A8FDF79DFF4FF4005301934FF08063A1
:1022B000119318200723CDE9040301210223CDE95E
:1022C0000633CDE902114FF480130893D4F8883017
:1022D00023F0406343F08063C4F8883002A8FEF71F
:1022E00019F998B172B6FEE713685B1A8342A7D951
:1022F00028E7136823F0070343F00403136013680F
:1023000003F00703042B7FF41DAFACE717B030BD1B
:10231000B40A002000200240443D0008AC00002028
:10232000A8000020F8B5124F14460D469E18A6428C
:1023300001D10020F8BDC5B11F2C0AD84FF400729E
:1023400007EB4421284601F074FC05F500750134C3
:10235000EDE7A4F11603E92B4FF4007294BFAA2114
:1023600000212846FDF73CFFEFE70320E2E700BF2E
:10237000000000102DE9F04F0C46AA4989B0A2F1E7
:10238000160704EB432301EB422202920393039BC3
:102390009C4201D100201AE1002C00F0178107F1C6
:1023A00016031F2B4FF4007221460DD8029801F03E
:1023B00040FC07F11103102B0AD9E92F9FBF9A4A5D
:1023C0001368013313602FE0984801F032FCF4E702
:1023D000234604F500701A78E52A50D0002A4ED022
:1023E000DA7A12F008024AD1197A01F0DF014229A3
:1023F00045D1597A01F0DF01492940D1997A01F09C
:10240000DF014E293BD1D969A1F52055B5F5C43F6F
:1024100035D8874B1960874B1A60874B1A70874BEA
:102420001A60874B01221A70854B1B78002B00F035
:102430009A80E92F00F29780DFF800A2DAF80030E6
:10244000002B49D17F4DFEF74BFC2B78012B3ED062
:1024500001262E70FEF794F9002836D17A4B686079
:102460001A6812F4007F1A6800F0858052050AD5B8
:102470001A6822F480621A6003232B7704E0203369
:102480009842A8D1D0E72E776F4EDFF8C0B14FF059
:102490004008736923F47E7343EA08037361736928
:1024A00043F002037361736943F480337361FEF791
:1024B00067F9736903EA0B03736120B908F108082F
:1024C000B8F5F87FE5D1FDF765FF00232B705E4A74
:1024D000536943F0004353615549DAF800300A6804
:1024E000B2EB432F4FEA432840F2B280B8F5D83F11
:1024F00080F0AE80FEF7F4FB0B68524D524E08F5AB
:1025000000729A4281BF0B680733A3EB080323F0E4
:10251000070398BF4FF4007308F10069019309F5B0
:1025200080494FF0000B019B9B452FD3464A5369CE
:1025300043F000435361DAF800303E4A0133CAF8F1
:102540000030019B43441360394B12681B689A4268
:1025500009D3BFF34F8FBFF36F8F374B01221A7030
:10256000374A00231370029B03F5007304F50074CF
:10257000013702930BE712F4806205D01A6822F447
:1025800080621A60022378E72A777DE708220BEB46
:10259000040106A801F04DFB28780699079A0591D9
:1025A0000128049208D001202870FEF7E9F8DDE93F
:1025B000042178B100232B70234A536943F0004370
:1025C00053611F4A002313701B4A1370032009B084
:1025D000BDE8F08F6860306810F480601FBF30681D
:1025E00020F48060306002202877706940F001009C
:1025F0007061C9F80010BFF36F8FC9F80420FEF7AF
:10260000BFF87269049022F001027261FDF7C2FE08
:10261000049800222A7009F108090028CCD10BF196
:10262000080B80E700000010BC070020BC0500205C
:10263000C4070020C8070020B10A0020C0070020FE
:10264000B00A0020880000200020024005FCFFFFA7
:102650000B68984587D3084B1A7802F0FF00002AD0
:1026600081D1064A15680A68954221BF01221A7075
:10267000034B187077E700BFB10A0020C80700209D
:10268000B00A00202DE9F84F5C4B5D4C00251D6021
:102690005C4B1D605C4B1D705C4B1D705C4B1D608A
:1026A0005C4B29464FF4804220461D60FDF798FDA3
:1026B00029464FF400722046FDF792FDEB2323706C
:1026C0003C236370544990230822E01CA37001F05E
:1026D000B0FA01236373A373A37423754023A37615
:1026E000292384F82630122384F82730342384F8F1
:1026F0002830562384F82930782384F82A30474B31
:10270000E57210221946022662744FF0F8084FF065
:10271000200A0B2204F12B002673267484F81580FE
:10272000A675E573E574E57584F818A06576E57619
:1027300001F07FFA3A49082204F1360001F079FAF3
:10274000552204F5007784F8FE21AA2284F8FF219F
:10275000294604F5C0694FF480623846FDF740FD14
:1027600004F5206B84F8008239464FF0FF084FF4DF
:102770008062484684F8018284F8028201F059FAA6
:1027800029464FF408525846FDF72AFD234B0B22E9
:102790001946584601F04DFA0823224984F80B3AAD
:1027A0000B2204F5226001F044FA84F83A6A1E4EC6
:1027B00084F82BAA304684F83B5AFDF709FD030A3A
:1027C00084F83D3A030C024684F83C0A84F83E3A09
:1027D0003146030E04F5305084F83F3A01F029FAEF
:1027E0000F234FF480623946484684F8038284F808
:1027F000043201F01EFA2846BDE8F88FC807002011
:1028000000000010C4070020B10A0020B00A002018
:10281000C0070020BC070020913C00089A3C00083B
:10282000A63C0008AF3C0008BB3C00082DE99F48CF
:102830004449454BCA68454E22F4E0621204120C2A
:102840001343CB600F20FEF70BF8FFF7DFFBF36CB1
:1028500043F00103F364F36C03F001030293029B62
:10286000F36C43F00203F364F36C03F0020301938F
:10287000019B4FF090439A6822F030029A605A68A8
:1028800022F004025A60DA6822F03002DA601A6834
:1028900022F0300242F010021A6004229A610022F3
:1028A0000132062A2AD100214FF09043013110292C
:1028B0002FD14FF090434FF400429A6264214FF4BD
:1028C000FA60FDF7B9FC224A136803F16043B3F5DF
:1028D000803F35D857681F4B6FF35307FA1A57429A
:1028E00057416420FDF74CFD4FF090431B699B0658
:1028F00032D4002F00F03481FDF7DCFF052ACFD160
:10290000D96821F44061D960196821F440611960E7
:10291000C6E70F29CAD19A6822F0404242F000422D
:102920009A605A6822F400425A60DA6822F0404203
:10293000DA601A6822F0404242F080421A60B5E73D
:102940000027CEE700ED00E00003FA05001002408A
:10295000004000080100000847F23058964D974AA1
:102960009749C5F8B4220023012285F89C222B70D8
:102970004A68944CC5F8B83242F48062C5F8C43253
:10298000C5F8D0324A60904A237394F8913222609D
:102990004FF008090222A271A260C4F8DC52C5F807
:1029A000C84284F8049003F0FF028BB984F89022A7
:1029B000B36D43F08063B365B36D03F0806303933D
:1029C00005214320039BFDF721FF804BC3F80890AE
:1029D000032384F89132236894F804C0B3F84010BC
:1029E00021F47E514904490CA3F840107549002296
:1029F0006271084616464FF001095FFA82FEF445FF
:102A000000F2B18000200246C6B2B44501F12801AF
:102A100000F2B4800121A3F84010A3F84020A3F8ED
:102A20004420A3F85020627384F89112E17A0129BE
:102A300011D184F8C822B3F85420C4F8D41292B249
:102A400042F00102A3F85420B3F8542092B242F0AD
:102A50000202A3F85420B3F85820C2F30E02A3F8E0
:102A60005820D5F8C8321821A3F856115821D98218
:102A700098210022D987D82183F85C211A7783F81E
:102A8000442083F88421A3F87E11514BC5F8B83255
:102A9000DB6AADF8022023B10DF102009847C5F8BA
:102AA000D002D5F8D8324B4AD5F8C8120133C5F850
:102AB000D832D5F8D43205EB8303C3F8C42291F899
:102AC0009032012B12D00A6800204BF68073A2F8D6
:102AD0004400A2F84030B2F858306FEA43436FEA3E
:102AE00053439BB2A2F8583081F890023A4DDFF878
:102AF000ECA02E68DFF8E8B00024A14624B99BF8CA
:102B0000003083B1D5F800909AF8003003F0FF044C
:102B1000002B3FD12B6842F21072A3EB09039342C2
:102B200038D9FDF7B9FB9AF80030ABB34FF4FA701F
:102B3000FDF726FCFDF746FFFDF706FF64214FF485
:102B40007A70FDF779FB642140F2DC50FDF774FBED
:102B500096214FF4FA60FDF76FFBFDF79DFBCBE686
:102B60004FF06408FAE6C0E9086680F8119080F832
:102B700010E0C674013240F8286F3EE7C1E94E22EA
:102B800081F8292181F8286181F82B21C1F84021A1
:102B9000013039E70124C6E72B689B1B434507D961
:102BA000FDF710FFFDF7D0FE002F7FF4A5AE2E68D5
:102BB0000A20FDF7E5FBA1E7B80A00200801002084
:102BC00000700040D00700200068004000E100E0F5
:102BD000D0000020B0000020B40A0020B10A00207C
:102BE000B00A0020024A136801331360704700BF27
:102BF000B40A00202DE9F04FB94C2368B3F8441013
:102C00008AB2090485B040F19686DFF8DC924FF075
:102C100028082068B0F844301D0402D405B0BDE88F
:102C2000F08FB0F84460B2B216F00F0640F0FA82AE
:102C300012F0100226D103889BB203EA090343F481
:102C400000430380B0F85030217C00F2024010FABB
:102C500083F3104633F83130616AC3F30903194432
:102C6000E3626162FEF7C8FD637B002BD1D0A26AEC
:102C70002168002ACDD1637B43F08003A1F84C305A
:102C80006273C6E70588ABB215F4006500F0828276
:102C9000B0F8503094F8502100F2064111FA83F355
:102CA000904933F83230B4F85621C3F30903C4F81D
:102CB0006C31FDF7C0FC2268D4F8DC52138823F095
:102CC00070031B051B0D43F08003138094F89812CA
:102CD00094F89902B4F89A32B4F89C72B4F89E222F
:102CE00085F8AA124FF0010CC5F894C201F01F0C30
:102CF000BCF1010F05F2AA2685F8AB02A5F8AC32AB
:102D0000A5F8AE72A5F8B022C5F8982200F080812F
:102D1000BCF1020F00F0A281BCF1000F40F0348240
:102D200001F06001202906D0402904D069B128466D
:102D3000FEF7C2FD6DE7D5F8D432AE3355F8233037
:102D40009B6831462846984763E70928EFD801A1D8
:102D500051F820F0BD2F0008FB2F00082F2D000890
:102D6000E32F00082F2D0008932E00087D2D00086A
:102D70002F2D0008932F0008ED2E00080022ADF83B
:102D80000E201A0A013A0E2AD1D801A151F822F0D8
:102D9000D72D00080B2E0008252E00082F2D000827
:102DA0002F2D0008652E00087B2E00082F2D00080F
:102DB0002F2D00082F2D00082F2D00082F2D000883
:102DC0002F2D00082F2D0008CD2D0008D5F8B43286
:102DD000DB691BB9ABE7D5F8B4321B68287C0DF171
:102DE0000E019847B5F8B022002A00F0B480BDF873
:102DF0000E30002B9BD09A4228BF1A46ADF80E2009
:102E000001462846FEF78EFB03E72A7CD5F8B83248
:102E100032B99B6A0DF10E00984702234370E1E737
:102E2000DB6AF7E7DBB2052B81D8DFE803F00307A5
:102E30000B0F1317D5F8B4325B68CAE7D5F8B43274
:102E40009B68C6E7D5F8B432DB68C2E7D5F8B43280
:102E50001B69BEE7D5F8B4325B69BAE7D5F8B4327E
:102E60009B69B6E72B7C002B7FF461AFD5F8B832B5
:102E70000DF10E005B6B9847B4E72B7C002B7FF4C1
:102E800056AFD5F8B8320DF10E001B6B98470723EB
:102E9000C4E73A437FF44BAF7F2B3FF648AF95F83A
:102EA0009C22032A3FF443AFDEB2D5F8C83285F83E
:102EB0009E6293F89022012A08D05E731EB91A68A8
:102EC0008021A2F84C10002283F890222846FEF7B9
:102ED000EDFA0EB1022300E0012385F89C3298E65A
:102EE000D0070020680A00200F8FFFFFDEB2A84F36
:102EF000012E3E703FF61BAF95F89C32022B5FFA15
:102F000083FA0AD0BAF1030F1CD02846FEF7D4FC8E
:102F100031462846FDF730FF7BE6E6B1D5F8B832FA
:102F2000012169604BB11B682846984728B12846A3
:102F3000FEF7C2FC85F89CA26BE62846FEF7B6FABF
:102F40000323CAE75EB9022385F89C326E603146DE
:102F50002846FDF711FF2846FEF7A8FA59E66968EA
:102F60000129F8D0C9B22846FDF706FFD5F8B832D6
:102F700039786960002BEED01B68284698470028F6
:102F8000E9D02846FEF798FC29792846FDF7F4FE9B
:102F9000A0E7012A7FF4CBAE95F89C120229CBB2B0
:102FA00007D8002B3FF4C3AE2946002341F8083F61
:102FB00027E7032B7FF4BBAE291D22E795F89C324F
:102FC000013B022B3FF6B3AE022A7FF4B0AED5F838
:102FD000A4322946002B0CBF0123032341F80C3FE8
:102FE0000FE7012B02D1C5F8A432B4E7022B7FF41E
:102FF0009EAE3F0A85F8A072ADE795F89C22013A93
:10300000022A3FF694AE012B7FF403AE0023EAE7D9
:103010004A0601F0600302D5402B7FF488AE95F894
:103020009C32013B022B3FF682AEFFB2012F3FF6EE
:103030007EAED5F8B8329B6873B10022C5F8D422B1
:10304000314628469847B5F8B032002B7FF4E1AD01
:1030500000287FF4DEAD7EE70320F4E701F0600195
:10306000202958D0402956D000297FF460AE01288D
:10307000F9B23DD0032829D000287FF458AE95F846
:103080009C32022BDAB25BD0032A7FF450AE01F0FF
:103090000F02142317F0800F03FB02525DD0938CB4
:1030A000002B3FF444AE01F07F00431C03EB83038D
:1030B000802905EB83035AD0D5F8C822282101FBCB
:1030C0000022927C003A18BF012251E095F89C0240
:1030D0000228C6B229D0032E7FF429AE4F063FF452
:1030E0003AAF1A437FF437AF2846FEF7A5FA32E726
:1030F00095F89C22022AD0B217D003287FF417AE8D
:10310000002B7FF486AD4A0602D02846FEF717FA58
:103110002846FEF7CBF90023C5F8D432D5F8B832EB
:103120009B68002B7FF40DAE73E54E0628463FF4F6
:10313000FFADFEF781FA80212846FEF77DFA68E5AB
:103140004B067FF4F4AD3F064CBF05F1140105F5C5
:10315000AA7100230B60022253E6B2F86421002A10
:103160003FF4E5AD03FB015303F5AA7321B9002237
:103170001A601946022244E6D5F8C822282000FB2E
:10318000012292F852219DE701F08001D4E700BFAF
:10319000CC0700201E047FF53CAD038823F07003AC
:1031A0001B051B0D43F080030380B0F8503094F8EA
:1031B000502100F2064111FA83F333F83230C3F3A1
:1031C0000903C4F86C3193B1D4F8641179B1B4F83F
:1031D0005621FDF730FAD4F86421D4F86C31D4F8D4
:1031E000DC021A442946C4F86421FEF767F9226814
:1031F00011888BB209053FF50CAD03F44053B3F5CC
:10320000405F3FF406AD138823F4804323F070033E
:103210001B041B0C83F4405343F4004343F080032E
:103220001380F6E40FFA86FA30F82A301A049FB2B7
:1032300040F1E98030F82A3023F070031B051B0DA4
:1032400043F0800320F82A3008FB064191F85C31F6
:10325000B3B9B0F8503091F8502100F2064515FA94
:1032600083F333F83250C5F30905002D00F0AC802C
:10327000B1F856212B46D1F86411FDF7DCF9A3E033
:1032800091F8533191F85021022B7CD1B0F8505075
:10329000D1F8683100EBC20B17F4804E07F0400CF8
:1032A0001BFA85F538D0B5F80254C5F30905AB42D1
:1032B00013D20023C1F8683130F8223023F4804360
:1032C00023F070031B041B0C83F4005343F40043EE
:1032D00043F0800320F8223004E05B1BC1F8683122
:1032E000002BE9D0BCF1000F0DD030F8223023F4D0
:1032F000E04323F070031B041B0C43F4004343F032
:10330000C00320F82230002D5ED0282101FB0641A9
:10331000B1F858212B46AEE7B5F80654C5F30905B8
:10332000AB4212D2C1F868E130F8223023F4804376
:1033300023F070031B041B0C83F4005343F400437D
:1033400043F0800320F8223004E05B1BC1F86831B1
:10335000002BE9D0BCF1000F0DD130F8223023F45E
:10336000E04323F070031B041B0C43F4004343F0C1
:10337000C00320F822303DB3282101FB0641B1F8FB
:103380005A212B4677E730F8223023F4E04323F02C
:1033900070031B041B0C43F4004343F0C00320F8EC
:1033A000223091F8502130F8223013F4804FB0F8D9
:1033B00050305BD000F2024515FA83F333F83250F7
:1033C000C5F30905002DA3D108FB0643D3F86C21F2
:1033D0002A44C3F86C21D3F864212A44C3F8642139
:1033E000D3F868211AB1D3F860319D4249D208FB65
:1033F0000643D4F8DC0293F8501108FB0143D3F8DC
:103400006421FEF75BF83B0625687FF502AC35F8D2
:103410002A309BB203EA090343F4004325F82A301B
:1034200008FB064106F1010CCB7C012B59D108FBAE
:103430000CFC0B7F002244F80C20002B35D017F039
:1034400040074B7C39D023BB0A7CB5F8503005F2DD
:10345000024515FA83F303EBC2031A88C2F309028B
:103460001A801A8892B242F400421DE000F206452A
:1034700015FA83F333F83250C5F30905002DA3D0B4
:103480007DE708FB0641206801F5A871FDF7AAFA5F
:10349000B9E7012B09D1B5F85030097C05F2024596
:1034A00015FA83F303EBC1031A80282303FB0643B9
:1034B000187CFEF7A1F9FFF7ACBB2BB9B5F850307B
:1034C0000A7C05F20645C4E7012BEED1B5F8503071
:1034D0000A7C05F2064515FA83F303EBC2031F804D
:1034E000E3E70B7C019308FB0CFE17F480701A468F
:1034F0004FEAC30A04EB0E0B54F80E3021D1B5F895
:10350000502015FA82F25244B2F80224C2F30902A2
:103510009A4203D344F80E000198CAE79B1A44F874
:103520000E304B6A13444B62DBF8043008FB064153
:10353000134410312846CBF80430FDF753FAFFF757
:1035400068BB17F0400107F4804700F00E81B5F822
:10355000501005F2024A1AFA81F1BFB231F832E096
:103560002821CEF3090E9E4501FB0CFB34BFA3EBD3
:103570000E03002344F80B30002B6CD101FB0641F5
:10358000497C002958D1B5F850101AFA81F131F868
:103590003230C3F3090321F8323031F832306FEAA8
:1035A00043436FEA53439BB221F83230B5F85010D1
:1035B00005F2064313FA81F131F83230C3F30903FF
:1035C00021F8323031F832306FEA43436FEA534327
:1035D0009BB221F83230282303FB0643DB7C022B0D
:1035E0000FD135F8223023F4E04323F040031B04CD
:1035F0001B0C83F0200343F4004343F0800325F8C1
:1036000022300198FEF7F8F8002F3FF402AB282390
:1036100003FB06432268197C32F8213023F4E0438F
:1036200023F070031B041B0C43F4404343F080035E
:1036300022F82130FFF7EDBA0129CCD1B5F85010AE
:103640001AFA81F105F2064C21F83230B5F8501023
:103650001CFA81F1BDE76FB135F8223023F4E04365
:1036600023F070031B041B0C43F4404343F080031E
:1036700025F82230282000FB064797F83430012B2C
:1036800048D100FB0C40796A4368734443603B6B4C
:10369000386A7144834279621AD31B1A3B63282328
:1036A00003FB06435F7C83B2002F55D1B5F8507001
:1036B0001AFA87F737F832C0CCF3090C27F832C072
:1036C00088B937F832006FEA40406FEA504017E09F
:1036D0001BB987F834307046E1E7002087F83400E2
:1036E00038631846DBE73E282AD84FEA500CC0075B
:1036F00037F8320048BF0CF1010C80B240EA8C2050
:1037000080B227F83200282202FB0642128B28469C
:10371000FCF782FF282303FB0646327C35F8223073
:1037200023F4E04323F040031B041B0C83F030031D
:1037300043F4004343F0800325F82230FFF769BAD1
:103740004FEA501CC00637F8320008BF0CF1FF3CAE
:1037500080B240EA8C20B6E7012F02BFB5F85000D6
:103760001AFA80F020F83230CDE7B5F850B005F203
:10377000064E1AFA8BFABFB23EF80AA0CAF3090A3B
:10378000534528BFA3EB0A01282303FB0CFB44F895
:103790000B1000295AD103FB06435B7C002B44D15C
:1037A000B5F8501005F2024313FA81F131F83230C6
:1037B000C3F3090321F8323031F832306FEA434362
:1037C0006FEA53439BB221F83230B5F850101EFA1D
:1037D00081F131F83230C3F3090321F8323031F886
:1037E00032306FEA43436FEA53439BB221F83230E1
:1037F000282303FB0643DB7C022B0FD135F8223054
:1038000023F4E04323F040031B041B0C83F020034C
:1038100043F4004343F0800325F822300198FDF77C
:10382000EBFF002F7FF4F5A9F1E6012BE0D1B5F80D
:10383000503005F2024C1CFA83F323F83210B5F82D
:1038400050301EFA83F323F83210D1E76FB935F800
:10385000223023F4E04323F070031B041B0C43F4D9
:10386000404343F0800325F82230282303FB06471A
:1038700097F8341001297FF44DAF03FB0C4C796AA3
:10388000DCF80430386A5344CCF804303B6B5144C4
:10389000834279621AD31B1A3B63282303FB064336
:1038A0005F7C83B2002F3DD1B5F850701EFA87F7C8
:1038B00037F832C0CCF3090C27F832C088B937F892
:1038C00032006FEA40406FEA504017E01BB987F8BA
:1038D00034305046E1E70020386387F8340018465A
:1038E000DBE73E2812D84FEA500CC00737F8320009
:1038F00048BF0CF1010C80B240EA8C2080B227F85E
:103900003200282202FB0642528B00E74FEA501C8D
:10391000C00637F8320008BF0CF1FF3C80B240EA25
:103920008C20CEE7012F02BFB5F850001EFA80F0C0
:1039300020F83230E5E7510544D5B3F8442022F4AD
:1039400080621204120CA3F84420A379022B01D048
:1039500072B6FEE7D4F8DC52012385F89C322B7452
:10396000D5F8B8320021C5F894126960C5F8A412E0
:1039700085F8A0121BB15B680BB12846984700225E
:1039800011460127402640232846FEF761F93346B9
:10399000A5F86471C5F86061002280212846FEF711
:1039A00057F9AF842E6294F89032BB423FF436A9A7
:1039B0002268002380216373A2F84C1084F89032AF
:1039C000FFF72CB9570409D5B3F8442022F48042FC
:1039D0001204120CA3F84420FFF720B912F400518E
:1039E00004D0B3F8442022F40052F1E7D60448D5BD
:1039F000B3F8402022F004021204120CA3F8402075
:103A0000B3F8402022F008021204120CA3F8402060
:103A100094F8C822A37A012A14D184F8C81233B1C9
:103A2000FEF7F4FA584A136923F006031361D4F839
:103A3000DC3293F89C22042A02BF93F89D22D2B272
:103A400083F89C22A37A33B14F4A136923F006030B
:103A50001361FEF7DBFAD4F8DC3293F89C22042AD7
:103A600002BF93F89D22D2B283F89C222268B2F85A
:103A7000443023F480531B041B0CA2F84430FFF79E
:103A8000CDB815051AD5B3F8402092B242F008021D
:103A9000A3F84020B3F8442022F400621204120C70
:103AA000A3F84420B3F8402092B242F00402A3F8F5
:103AB000402005B0BDE8F04FFCF78CBE10063DD5A8
:103AC000B3F8442022F080021204120CA3F8442020
:103AD00094F8C822002AECD1B3F8402092B242F008
:103AE0000402A3F84020B3F8402092B242F008024A
:103AF000A3F84020012284F8C822B3F85430C3F35D
:103B00008D0303F03C03C4F8CC32D4F8DC3293F8D4
:103B10009C22042A1EBF93F89C22D2B283F89D22D5
:103B2000042283F89C22A37A002B3FF477A8164A3C
:103B3000136943F006031361FFF770B891051BD5B5
:103B4000B3F84420D4F8DC0222F400721204120C00
:103B5000A3F8442090F89C32032B7FF45FA8D0F8A0
:103B6000B832002B3FF45AA8DB69002B3FF456A86B
:103B700005B0BDE8F04F1847D2057FF54FA8B3F860
:103B8000442022F4807223E700ED00E0034AD2F8DB
:103B9000883043F47003C2F88830704700ED00E0CD
:103BA000DFF860D01848816D41F080518165174879
:103BB000016841F4807101601548164902680023CC
:103BC00003608A4219D0FFF7E1FF13481349144AF2
:103BD000002302E0D458C4500433C4188C42F9D3F3
:103BE000104A114C002301E013600432A242FBD3BF
:103BF000FCF7FEFAFEF71AFEFEE70C48D0F800D0FC
:103C00004068004700C000200010024000700040E3
:103C100050280040EFBEADDE00000020280100204B
:103C2000703D000828010020940D00200000FF1FB7
:103C3000FEE70A44914200F1FF3300D1704710B50E
:103C400011F8014B03F8014F9142F9D110BD00006A
:103C5000F8B500BFF8BC08BC9E467047F8B500BF79
:083C6000F8BC08BC9E46704749
:103C680033444220566172696F20436F6E666967FC
:103C7800003344420033444220566172696F204940
:103C88006E74657266616365004D5357494E342EF4
:103C98003100424F4F544C4F414445522000464159
:103CA80054313220202000524541444D45202054B3
:103CB8005854004472616720616E642064726F70AA
:103CC800202E42494E206669726D776172652066C2
:103CD800696C65206865726520746F207570646111
:103CE80074652E0D0A00008002021F000000506556
:103CF8006570566172696F20426F6F746C6F616492
:103D0800657220202020312E30300000A08601006E
:103D1800400D0300801A060000350C0040420F00D9
:103D280080841E0000093D0000127A000024F4007F
:103D380000366E010048E801006CDC02000000005B
:103D48000000000001020304060708090000000043
:083D580078C4FF7F01000000A8
:083D6000B5010008000000009D
:083D68009101000800000000B9
:103D700000800008202020200000000200800300B6
:103D80000000000600000000000000000A0600021B
:103D9000000000400100000009022000010104C0F1
:103DA00032090400000208065005070581024000A0
:103DB0000007050102400000050F0C00010710027A
:103DC000020000001A0300000000000000000000D4
:103DD00000000000000000000000000000000000E3
:103DE00004030904120101020000004083042A5761
:103DF00000020102030100000000000000000000BA
:103E000000000000000000000100000000000000B1
:103E100000000000000000001000000000093D004C
:103E200085260008CD020008DB020008DF0200083A
:103E30002523000875230008E3020008EE3C000873
:103E4000791F0008191C0008E51800080000000090
:103E500000000000711400081517000800000000A1
:103E6000000000000000000099060008CD060008D0
:103E70000107000875030008E9020008F5020008C0
:103E800059070008410700083903000855070008D2
:083E90006D07000801030008A2
:0400000508003BA113
:00000001FF
