:020000040800F2
:1000000000C00020D1950008B1910008B59100080A
:10001000B9910008BD910008C191000800000000DE
:100020000000000000000000000000003185000812
:10003000C591000800000000C18500082586000861
:1000400061960008619600086196000861960008B4
:10005000619600086196000861960008E191000829
:1000600061960008E9910008F19100086196000886
:100070006196000861960008619600086196000884
:100080006196000861960008619600086196000874
:100090006196000861960008619600086196000864
:1000A0006196000861960008619600086196000854
:1000B0006196000800000000000000006196000842
:1000C0006196000800000000000000006196000832
:1000D0000000000061960008619600080000000022
:1000E0006196000861960008000000000000000012
:1000F0000000000000000000000000000000000000
:1001000000000000000000000000000061960008F0
:10011000000000000000000061960008C99100087E
:1001200061960008619600086196000861960008D3
:1001300061960008000000000000000000000000C0
:10014000619600086196000861960008D591000844
:1001500061960008619600086196000861960008A3
:100160006196000861960008619600080000000092
:100170006196000861960008000000000000000081
:100180006196000861960008619600080000000072
:1001900010B5054C237833B9044B13B10448AFF3C1
:1001A00000800123237010BDA00300200000000088
:1001B000182A010808B5034B1BB103490348AFF3E4
:1001C000008008BD00000000A4030020182A0108D8
:1001D00010F8012B11F8013B012A28BF9A42F7D0F1
:1001E000D01A70470000000000000000000000006E
:1001F00001F0FF01102A2BDB10F0070F08D010F8D8
:10020000013B013A8B422DD010F0070F42B3F6D1DB
:10021000F0B441EA012141EA014122F007047FF0F4
:1002200000070023F0E80256083C85EA010586EA4B
:10023000010685FA47F5A3FA87F586FA47F6A5FA87
:1002400087F68EB9EED1F0BC01F0FF0102F0070293
:1002500032B110F8013B013A83EA010313B1F8D13E
:100260000020704701387047002D06BF354603381F
:10027000073815F0010F07D1013015F4807F02BF58
:10028000013015F4C03F0130F0BC0138704700BFA9
:10029000034613F8012B002AFBD1181A01387047C6
:1002A00081F0004102E000BF83F0004330B54FEA27
:1002B00041044FEA430594EA050F08BF90EA020F94
:1002C0001FBF54EA000C55EA020C7FEA645C7FEA27
:1002D000655C00F0E2804FEA5454D4EB5555B8BF4A
:1002E0006D420CDD2C4480EA020281EA030382EABB
:1002F000000083EA010180EA020281EA0303362D4D
:1003000088BF30BD11F0004F4FEA01314FF4801C1F
:100310004CEA113102D0404261EB410113F0004F31
:100320004FEA03334CEA133302D0524263EB4303E8
:1003300094EA050F00F0A780A4F10104D5F1200E86
:100340000DDB02FA0EFC22FA05F2801841F10001E1
:1003500003FA0EF2801843FA05F359410EE0A5F1B5
:1003600020050EF1200E012A03FA0EFC28BF4CF0E6
:10037000020C43FA05F3C01851EBE37101F000459C
:1003800007D54FF0000EDCF1000C7EEB00006EEBA9
:100390000101B1F5801F1BD3B1F5001F0CD3490833
:1003A0005FEA30004FEA3C0C04F101044FEA44528A
:1003B00012F5800F80F09A80BCF1004F08BF5FEA11
:1003C000500C50F1000041EB045141EA050130BDF1
:1003D0005FEA4C0C404141EB0101013C28BFB1F503
:1003E000801FE9D291F0000F04BF01460020B1FA4E
:1003F00081F308BF2033A3F10B03B3F120020CDA21
:100400000C3208DD02F1140CC2F10C0201FA0CF0FE
:1004100021FA02F10CE002F11402D8BFC2F1200C63
:1004200001FA02F120FA0CFCDCBF41EA0C01904019
:10043000E41AA2BF01EB0451294330BD6FEA040462
:100440001F3C1CDA0C340EDC04F11404C4F120024D
:1004500020FA04F001FA02F340EA030021FA04F35F
:1004600045EA030130BDC4F10C04C4F1200220FAB6
:1004700002F001FA04F340EA0300294630BD21FAF4
:1004800004F0294630BD94F0000F83F4801306BFBA
:1004900081F480110134013D4EE77FEA645C18BFAE
:1004A0007FEA655C29D094EA050F08BF90EA020F45
:1004B00005D054EA000C04BF1946104630BD91EA3D
:1004C000030F1EBF0021002030BD5FEA545C05D140
:1004D0004000494128BF41F0004130BD14F580047F
:1004E0003CBF01F5801130BD01F0004545F0FE41F3
:1004F00041F470014FF0000030BD7FEA645C1ABF28
:10050000194610467FEA655C1CBF0B46024650EA5E
:10051000013406BF52EA033591EA030F41F400218A
:1005200030BD00BF90F0000F04BF0021704730B510
:100530004FF4806404F132044FF000054FF00001E5
:1005400050E700BF90F0000F04BF0021704730B5A6
:100550004FF4806404F1320410F0004548BF40427B
:100560004FF000013EE700BF42004FEAE2014FEAD0
:1005700031014FEA02701FBF12F07F4393F07F4FAB
:1005800081F06051704732F07F4208BF704793F0AE
:100590007F4F04BF41F40021704730B54FF46074C1
:1005A00001F0004521F000411CE700BF50EA0102C4
:1005B00008BF704730B54FF000050AE050EA01026D
:1005C00008BF704730B511F0004502D5404261EBDD
:1005D00041014FF4806404F132045FEA915C3FF41E
:1005E000D8AE4FF003025FEADC0C18BF03325FEABB
:1005F000DC0C18BF033202EBDC02C2F1200300FA6C
:1006000003FC20FA02F001FA03FE40EA0E0021FA90
:1006100002F11444BDE600BF70B54FF0FF0C4CF47E
:10062000E06C1CEA11541DBF1CEA135594EA0C0F30
:1006300095EA0C0F00F0DEF82C4481EA030621EA6B
:100640004C5123EA4C5350EA013518BF52EA0335A6
:1006500041F4801143F4801338D0A0FB02CE4FF058
:100660000005E1FB02E506F00042E0FB03E54FF088
:100670000006E1FB03569CF0000F18BF4EF0010E80
:10068000A4F1FF04B6F5007F64F5407404D25FEA7C
:100690004E0E6D4146EB060642EAC62141EA55512F
:1006A0004FEAC52040EA5E504FEACE2EB4F1FD0C71
:1006B00088BFBCF5E06F1ED8BEF1004F08BF5FEAEF
:1006C000500E50F1000041EB045170BD06F00046A1
:1006D00046EA010140EA020081EA0301B4EB5C044E
:1006E000C2BFD4EB0C0541EA045170BD41F4801146
:1006F0004FF0000E013C00F3AB8014F1360FDEBF6B
:10070000002001F0004170BDC4F10004203C35DA46
:100710000C341BDC04F11404C4F1200500FA05F3C9
:1007200020FA04F001FA05F240EA020001F000426A
:1007300021F0004110EBD37021FA04F642EB0601E0
:100740005EEA430E08BF20EAD37070BDC4F10C040A
:10075000C4F1200500FA04F320FA05F001FA04F2CE
:1007600040EA020001F0004110EBD37041F10001BA
:100770005EEA430E08BF20EAD37070BDC4F12005C5
:1007800000FA05F24EEA020E20FA04F301FA05F22D
:1007900043EA020321FA04F001F0004121FA04F2D5
:1007A00020EA020000EBD3705EEA430E08BF20EAA5
:1007B000D37070BD94F0000F0FD101F000464000DF
:1007C00041EB010111F4801F08BF013CF7D041EA61
:1007D000060195F0000F18BF704703F00046520065
:1007E00043EB030313F4801F08BF013DF7D043EA36
:1007F0000603704794EA0C0F0CEA135518BF95EAEC
:100800000C0F0CD050EA410618BF52EA4306D1D172
:1008100081EA030101F000414FF0000070BD50EA91
:10082000410606BF1046194652EA430619D094EA1B
:100830000C0F02D150EA013613D195EA0C0F05D105
:1008400052EA03361CBF104619460AD181EA030159
:1008500001F0004141F0FE4141F470014FF0000011
:1008600070BD41F0FE4141F4780170BD70B54FF0AC
:10087000FF0C4CF4E06C1CEA11541DBF1CEA13552C
:1008800094EA0C0F95EA0C0F00F0A7F8A4EB05040E
:1008900081EA030E52EA03354FEA013100F0888005
:1008A0004FEA03334FF0805545EA131343EA1263CE
:1008B0004FEA022245EA111545EA10654FEA002683
:1008C0000EF000419D4208BF964244F1FD0404F53C
:1008D000407402D25B084FEA3202B61A65EB030598
:1008E0005B084FEA32024FF480104FF4002CB6EB55
:1008F000020E75EB030E22BFB61A754640EA0C00D5
:100900005B084FEA3202B6EB020E75EB030E22BF14
:10091000B61A754640EA5C005B084FEA3202B6EB55
:10092000020E75EB030E22BFB61A754640EA9C0014
:100930005B084FEA3202B6EB020E75EB030E22BFE4
:10094000B61A754640EADC0055EA060E18D04FEAA2
:10095000051545EA16754FEA06164FEAC30343EA42
:1009600052734FEAC2025FEA1C1CC0D111F4801F0F
:100970000BD141EA00014FF000004FF0004CB6E708
:1009800011F4801F04BF01430020B4F1FD0C88BFA7
:10099000BCF5E06F3FF6AFAEB5EB030C04BFB6EBB2
:1009A000020C5FEA500C50F1000041EB045170BDA5
:1009B0000EF0004E4EEA113114EB5C04C2BFD4EBD2
:1009C0000C0541EA045170BD41F480114FF0000E56
:1009D000013C90E645EA060E8DE60CEA135594EAD2
:1009E0000C0F08BF95EA0C0F3FF43BAF94EA0C0FD5
:1009F0000AD150EA01347FF434AF95EA0C0F7FF44A
:100A000025AF104619462CE795EA0C0F06D152EA9D
:100A100003353FF4FDAE1046194622E750EA410681
:100A200018BF52EA43067FF4C5AE50EA41047FF492
:100A30000DAF52EA43057FF4EBAE12E74FF0FF3CF7
:100A400006E000BF4FF0010C02E000BF4FF0010CC8
:100A50004DF804CD4FEA410C7FEA6C5C4FEA430C41
:100A600018BF7FEA6C5C1BD001B050EA410C0CBF90
:100A700052EA430C91EA030F02BF90EA020F0020F2
:100A8000704710F1000F91EA030F58BF994208BF59
:100A900090422CBFD8176FEAE37040F00100704716
:100AA0004FEA410C7FEA6C5C02D150EA013C07D16D
:100AB0004FEA430C7FEA6C5CD6D152EA033CD3D0B8
:100AC0005DF8040B704700BF8446104662468C46B2
:100AD0001946634600E000BF01B5FFF7B7FF0028E5
:100AE00048BF10F1000F01BD4DF808EDFFF7F4FF0E
:100AF0000CBF012000205DF808FB00BF4DF808ED99
:100B0000FFF7EAFF34BF012000205DF808FB00BFBB
:100B10004DF808EDFFF7E0FF94BF012000205DF8DD
:100B200008FB00BF4DF808EDFFF7CEFF94BF012092
:100B300000205DF808FB00BF4DF808EDFFF7C4FF8B
:100B400034BF012000205DF808FB00BF4FEA410CD4
:100B50007FEA6C5C02D150EA013C0AD14FEA430CB7
:100B60007FEA6C5C02D152EA033C02D14FF00000F4
:100B700070474FF0010070474FEA410212F5001232
:100B800015D211D56FF47873B3EB625212D94FEAD4
:100B9000C12343F0004343EA505311F0004F23FABE
:100BA00002F018BF404270474FF00000704750EA13
:100BB000013005D111F0004008BF6FF000407047D0
:100BC0004FF00000704700BF4A0011D212F500122A
:100BD00011D20DD56FF47873B3EB62520ED44FEA95
:100BE000C12343F0004343EA505323FA02F0704715
:100BF0004FF00000704750EA013002D14FF0FF3053
:100C000070474FF0000070474FEA4102B2F1E043F5
:100C100024BFB3F5001CDCF1FE5C0DD901F0004CE3
:100C20004FEAC0024CEA5070B2F1004F40EB830033
:100C300008BF20F00100704711F0804F21D113F15F
:100C40003872BCBF01F00040704741F480114FEA98
:100C50005252C2F11802C2F1200C10FA0CF320FA21
:100C600002F018BF40F001004FEAC1234FEAD3233E
:100C700003FA0CFC40EA0C0023FA02F34FEA4303A8
:100C8000CCE77FEA625307D150EA01331EBF4FF031
:100C9000FE4040F44000704701F0004040F0FE404C
:100CA00040F40000704700BF53B94AB9002908BF9B
:100CB00000281CBF4FF0FF314FF0FF3000F0BEB9ED
:100CC000ADF1080C6DE904CE00F03CF8DDF804E06D
:100CD000DDE9022304B0704738B500220023044642
:100CE0000D46FFF70BFF28B920462946BDE83840DE
:100CF00000F00AB8204605F1004100F005F8404236
:100D000061EB410138BD00BFD0B50C4B0022064657
:100D10000F46FFF781FCFFF757FF0446FFF702FC81
:100D2000074B0022FFF778FC02460B463046394657
:100D3000FFF7BAFAFFF748FF2146D0BD0000F03DAB
:100D40000000F0412DE9F047089D8E460446884694
:100D5000002B4AD18A42174662D9B2FA82F64EB1C6
:100D6000C6F1200301FA06F820FA03F3B74043EA7C
:100D70000808B4404FEA174E1FFA87FCB8FBFEF193
:100D8000230C0EFB118843EA084301FB0CF29A4244
:100D900009D9FB1801F1FF3080F0EA809A4240F255
:100DA000E78002393B449A1AA3B2B2FBFEF00EFB75
:100DB000102243EA024300FB0CFC9C4509D9FB18B6
:100DC00000F1FF3280F0D6809C4540F2D3803B4456
:100DD000023840EA0140A3EB0C0300211DB1F340AF
:100DE0000022C5E90032BDE8F0878B4205D90DB17C
:100DF000C5E9000100210846F5E7B3FA83F10029AF
:100E000046D1734502D3824200F20581841A6EEB0B
:100E1000030201209046002DE5D0C5E90048E2E735
:100E2000002A00F09080B2FA82F6002E40F0A480F2
:100E30008A1A030C4FEA174E80B2BCB20121B2FBF2
:100E4000FEFC0EFB1C2243EA024304FB0CF29A4216
:100E500007D9FB180CF1FF3802D29A4200F2E08069
:100E6000C4469B1AB3FBFEF20EFB123340EA034367
:100E700002FB04F49C4207D9FB1802F1FF3002D2B6
:100E80009C4200F2CA8002461B1B42EA0C40A5E7C6
:100E9000C1F120068B4022FA06F71F430EFA01F437
:100EA00020FA06F32EFA06FE4FEA1749234300FA0A
:100EB00001F81FFA87FCBEFBF9F01C0C09FB10EED1
:100EC00044EA0E4400FB0CFEA64502FA01F209D9E1
:100ED0003C1900F1FF3A80F09C80A64540F29980D1
:100EE00002383C44A4EB0E041FFA83FEB4FBF9F372
:100EF00009FB13444EEA044403FB0CFCA44508D947
:100F00003C1903F1FF3E80F08280A4457FD9023B6B
:100F10003C4443EA0040A4EB0C04A0FB02EC644513
:100F20007346E14662D35FD05DB1B8EB030264EB78
:100F3000090404FA06F622FA01F31E43CC40C5E97F
:100F4000006400214FE7B1FBF2FC010C41EA0E41C5
:100F500080B240EA01423B4638463C46B846BE466F
:100F60002026B1FBF7F1A2EB080241EA0C4166E74B
:100F7000014618E710462CE7C6F120022EFA02F3CC
:100F8000B740B14020FA02F24FEA174E0A43B3FBD2
:100F9000FEF8BCB20EFB1833110C41EA034108FB0A
:100FA00004F9B04089454FEA104380B23ED9791820
:100FB00008F1FF3C01D289451FD8A1EB0901B1FB23
:100FC000FEF909FB04F80EFB191192B242EA014244
:100FD000424529D2BA1809F1FF31C4D24245C2D2E2
:100FE000A9F102013A44BEE7F0459DD2BEEB0203EF
:100FF0006CEB070C0138E14696E7A7EB0909494479
:10100000A8F1020CB1FBFEF909FB04F8DBE773461B
:101010007FE7504666E70846FDE63B44023A33E781
:10102000ACF1020C3B441CE749469CE7A1EB0901EB
:10103000C446B1FBFEF909FB04F8C4E7704700BFE2
:10104000034AD2F8883043F47003C2F888307047FE
:1010500000ED00E0036A026A22F0010270B402624D
:10106000446882690D6822F4803222F073022A43B8
:101070008D6823F002032B430F4DA84207D005F5DE
:10108000A055A84203D005F58065A8420DD1CD68D2
:1010900023F008032B43D1E9056524F4407446EAA4
:1010A000050C23F004034CEA04044968446082619F
:1010B00070BC416303627047002C0140036A026AFE
:1010C00022F4807270B402624468C2690D6822F42E
:1010D000803222F073022A438D6823F4007343EABE
:1010E0000523104DA84215D00F4DA84203D005F599
:1010F0008065A84207D1D1E9056524F4405446EA49
:10110000050C44EA0C1449684460C26170BCC163B8
:1011100003627047CD6823F4006343EA052323F498
:101120008063E8E7002C014000400140026A036A46
:1011300023F4805330B403624468C3690D6823F01C
:10114000807323F4E64343EA05238D6822F40052BA
:1011500042EA05320B4DA84207D005F5A055A8423A
:1011600003D005F58065A84204D14D6924F480447C
:1011700044EA851449684460C36130BC016402627A
:10118000704700BF002C0140026A036A23F48033D9
:1011900030B403624468436D0D6823F4803323F058
:1011A00070032B438D6822F4003242EA05420B4D56
:1011B000A84207D005F5A055A84203D005F58065E3
:1011C000A84204D14D6924F4803444EA05244968D6
:1011D0004460436530BC816502627047002C014069
:1011E000026A036A23F4801330B403624468436DD7
:1011F0000D6823F0807323F4E04343EA05238D68F0
:1012000022F4001242EA05520B4DA84207D005F520
:10121000A055A84203D005F58065A84204D14D69C8
:1012200024F4802444EA852449684460436530BC42
:10123000C1650262704700BF002C0140704700BFCB
:1012400090F83D30012B16D103681049022280F836
:101250003D20DA688B4242F00102DA600DD0B3F132
:10126000804F0AD00A4A934207D01A6842F001021E
:101270001A6000207047012070479968054A0A40AB
:10128000062AF6D0B2F5803FEFD1F2E7002C0140FC
:10129000004001400700010010290AD8DFE801F0F2
:1012A000190909093F0909095709090947090909DC
:1012B0004F0090F84330012B62D10B1F0C2B4ED8FE
:1012C000DFE803F0314D4D4D494D4D4D394D4D4DFC
:1012D000410090F83E30012B52D1022380F83E307D
:1012E000036801F01F01186A01228A4020EA020007
:1012F0001862186A264902438B421A6233D0254A83
:10130000934230D002F5806293423BD0B3F1804FDC
:101310002DD01A6842F001021A600020704790F840
:101320003F30012B2CD1022380F83F30D8E790F8D2
:101330004130012B24D1022380F84130D0E790F8CE
:101340004230012B1CD1022380F84230C8E790F8CC
:101350004030012B14D1022380F84030C0E7022333
:1013600080F84330BCE75A6C42F400425A649968F2
:10137000094A0A40062AD0D0B2F5803FC9D1CCE74D
:10138000012070475A6C42F400425A64C1E700BF22
:10139000002C01400040014007000100036810B428
:1013A0001A6A01F01F044FF0010C0CFA04FC22EA47
:1013B0000C021A62304A1C6A1C62934222D002F567
:1013C000A05293421ED002F5806293421AD01C6A4A
:1013D00041F21112144208D11C6A40F244421442F4
:1013E00003D11A6822F001021A60102919D8DFE827
:1013F00001F0261818182D181818341818183B184A
:1014000018181F001C6A41F211121442DFD11C6A25
:1014100040F244421442DAD15A6C22F400425A6437
:10142000D5E7012380F843305DF8044B0020704776
:10143000012380F842305DF8044B002070470123FF
:1014400080F83E305DF8044B00207047012380F89F
:101450003F305DF8044B00207047012380F8403096
:101460005DF8044B00207047012380F841305DF89F
:10147000044B0020704700BF002C0140FFF70CBF59
:10148000FFF78CBF704700BF704700BF704700BFB9
:10149000704700BF036870B5DE681D69AA0704467F
:1014A00001D5B10752D46B0701D570073BD429078A
:1014B00001D5320725D4E80601D5F10611D4EA0793
:1014C00001D5F30764D415F4025F4CD0300667D41D
:1014D000680601D571066DD4AA0601D5B3064ED4AF
:1014E00070BD23686FF010021A6108222277DB6951
:1014F00013F4407F204671D0FFF7C6FF0023237707
:10150000DDE723686FF008021A6104222277DB69A5
:101510009B0720465FD1FFF7B5FF2046FFF7B6FFD8
:1015200000232377C7E723686FF004021A610222C1
:1015300022779B6913F4407F204649D1FFF7A2FF31
:101540002046FFF7A3FF00232377B0E76FF00202E6
:101550001A61012202779B699A0733D0FFF794FF43
:10156000002323779FE7EA05B2D53306B0D5236879
:101570006FF480721A61204600F0D8F9A8E723685A
:101580006FF0200220461A61BDE8704000F0CAB931
:1015900023686FF001021A61204607F0E5FD92E72B
:1015A00023686FF402521A61204600F0BDF9E90584
:1015B0008ED5DCE723686FF040021A612046FFF702
:1015C00067FF89E7FFF75EFF2046FFF75FFFC7E78A
:1015D000FFF75AFFB7E7FFF757FFA1E7FFF752FF03
:1015E0002046FFF753FF89E770B4204E4D6903682A
:1015F0008C680A68B04210D0B0F1804F0DD006F56B
:10160000A056B04227D01A4EB04224D023F0800317
:101610002B430360C462826212E04E6823F07003C1
:101620003343CE6823F44073334323F080032B43CA
:1016300003600E4BC4629842826201D10B6903635E
:10164000012343610369DB0703D5036923F0010329
:10165000036170BC7047CE6823F44073334323F0BA
:1016600080032B430360C4628262E7E7002C0140E1
:101670000044014070B310B590F83D30044603F0CB
:10168000FF0213B32146022384F83D3051F8040BC6
:10169000FFF7AAFF012384F8483084F83E3084F82D
:1016A0003F3084F8403084F8413084F8423084F888
:1016B000433084F8443084F8453084F8463084F868
:1016C000473084F83D30002010BD80F83C20FFF703
:1016D000B5FDD7E70120704770B310B590F83D30E5
:1016E000044603F0FF0213B32146022384F83D3081
:1016F00051F8040BFFF778FF012384F8483084F891
:101700003E3084F83F3084F8403084F8413084F82B
:10171000423084F8433084F8443084F8453084F80B
:10172000463084F8473084F83D30002010BD80F802
:101730003C2007F007FED7E701207047036A026AE2
:1017400022F0100270B40262446882690D6822F0CF
:10175000807222F4E64242EA05228D6823F02003DB
:1017600043EA0513104DA84215D0104DA84203D0EE
:1017700005F58065A84207D1D1E9056524F44064E8
:1017800046EA050C44EA8C0449684460826170BCF6
:10179000816303627047CD6823F0800343EA051339
:1017A00023F04003E8E700BF002C01400040014067
:1017B00038B590F83C30012B7CD0012304460D460F
:1017C00080F83C30142A0CD8DFE802F0220B0B0B17
:1017D000320B0B0B430B0B0B530B0B0B640B0B0B59
:1017E00010000120002384F83C3038BD0068FFF76A
:1017F000F7FC436D2A6943F400634365436D23F4AA
:1018000080634365436D43EA022343650020E9E7B3
:101810000068FFF71FFC83692A6943F008038361AE
:10182000836923F004038361836913438361EDE7D4
:101830000068FFF783FF83692A6943F400638361CB
:10184000836923F480638361836943EA02238361AC
:10185000DCE70068FFF732FCC3692A6943F008033C
:10186000C361C36923F00403C361C3691343C36144
:10187000CCE70068FFF75AFCC3692A6943F40063A8
:10188000C361C36923F48063C361C36943EA02236C
:10189000C361BBE70068FFF777FC436D2A6943F03B
:1018A00008034365436D23F004034365436D13430D
:1018B0004365ABE7022038BD90F83C20012A2BD0CD
:1018C000026870B40346154E022083F83D00B24210
:1018D00050680D68946816D020F070002843B2F16B
:1018E000804F506002D00E48824204D1896824F0B3
:1018F00080040C4394600020012283F83D2083F88B
:101900003C0070BC70474E6820F47000304320F0FB
:10191000700005435560E9E702207047002C014044
:1019200000400140704700BF704700BF704700BFD4
:1019300070B5D0B190F89132044603F0FF02002B4D
:1019400052D003220023254684F891226371206837
:1019500000F0A0FF55F8040B95E80E0000F088FF9A
:10196000014628B1022384F891320125284670BD32
:10197000206800F099FF0028F4D1267906B32346A9
:1019800022464FF0010C014610740130B042C2E90A
:10199000081182F811C0D17442F8281FF4D1002137
:1019A0000A4683F850110131B142C3E9582283F845
:1019B000512183F85321C3F8682103F12803F0D1A2
:1019C00095E80E00206800F071FF05460028C9D197
:1019D000E37A60730122934284F8912209D020684F
:1019E00001F0BAFC284670BD80F8902206F020FF76
:1019F000A7E7204600F022FFF1E700BF90F8903201
:101A0000012B0FD010B504460123006884F89032F2
:101A100000F036FF206801F093FC002384F8903238
:101A2000184610BD022070472DE9F04F044683B0E0
:101A3000006801F09BFC10F400452CD1430500F137
:101A40007B8147041BD410F4005140F0D781C604B9
:101A500000F18B80050500F13883010600F1088351
:101A6000820500F12684C30512D52268B2F84430FD
:101A700023F480731B041B0CA2F8443008E0226896
:101A8000B2F8443023F480431B041B0CA2F844300A
:101A900003B0BDE8F08F2068B0F844301F04F7D5DC
:101AA000DFF8D0BA10E011F0100100F0C580018815
:101AB00011F400658BB240F0E7801E0400F15A81FA
:101AC000B0F844301A04E3D5B0F84450A9B215F088
:101AD0000F05E8D00FFA85F830F8283019049EB2C7
:101AE00066D43106ECD530F828309BB203EA0B03FC
:101AF00043F4004305EB850220F8283004EBC202D2
:101B0000AF00D37C012B00F0858108EB880804EB43
:101B1000C80C117CDCF82830009316F4807A4FEA68
:101B2000C8090FFA81FE4FEAC10840F0A481B0F85D
:101B3000505018FA85F50544B5F80254C5F3090567
:101B40009D4280F092815B1BCCF82830536A2B4475
:101B50005362DCF82C3009F110012B442144CCF8FD
:101B60002C3001F0BDF92068AAE72268B2F84030B5
:101B700023F004031B041B0CA2F84030B2F84030E1
:101B800023F008031B041B0CA2F8403094F8C83261
:101B9000012B00F09C83204606F0AAFE2268B2F8D2
:101BA000443023F480531B041B0CA2F844306FE72D
:101BB00030F8283023F070031B051B0D43F0800321
:101BC00005EB850120F8283004EBC101AF0091F846
:101BD0005C31002B7BD1B0F8503000F2064212FA93
:101BE00083F391F8502133F83290C9F30909B9F120
:101BF000000F40F0D5814FF000097B1904EBC303BF
:101C0000D3F86C214A44C3F86C21D3F864214A44C8
:101C1000C3F86421D3F8682122B1D3F860314B4571
:101C200040F2A0812F4404EBC707204697F85011DB
:101C300006F024FE206854E703889BB203EA0B03F6
:101C400043F400430380B0F8503010FA83F2207C54
:101C500040F2024303EBC0032046D35A626AC3F347
:101C600009031A44E362626206F012FE637B63B307
:101C7000A36A2068002B7FF423AF627B42F08002CE
:101C8000A0F84C2063731BE7B0F8502094F8501173
:101C900040F2064310FA82F203EBC10304F5267109
:101CA000D35AB4F85621C3F30903C4F86C3101F0D8
:101CB00073FB2268138823F070031B051B0D43F090
:101CC00080031380204606F0D3FD2068F8E691F8E3
:101CD000533191F85021022B00F0128212B230F8E9
:101CE000223023F4E04323F070031B041B0C43F465
:101CF000004343F0C00320F8223091F850311AB26B
:101D000030F8222012F4804FB0F8502000F03481D7
:101D100000F2024C1CFA82F232F83390C9F309093E
:101D2000B9F1000F3FF467AFB1F85821D1F8641151
:101D30004B4601F031FB60E72268B2F8443023F4EF
:101D400080631B041B0CA2F84430204606F0AEFD55
:101D500094F89032012B3FF49BAE0123206884F865
:101D600090326573294601F0E5FA84F8905203B089
:101D7000BDE8F08F028840F68F73134043F0800374
:101D80000380B0F8502094F8501140F2064310FA46
:101D900082F203EBC103D35AC3F30903C4F86C31D5
:101DA00093B1D4F8641179B1B4F8562101F0F4FA82
:101DB000D4F86431D4F86C21134420462946C4F881
:101DC000643106F05BFD206803881D059AB23FF57B
:101DD00077AE02F44052B2F5405F3FF471AE038833
:101DE00023F4804323F070031B041B0C83F4405343
:101DF00043F4004343F08003038061E62268B2F8B5
:101E0000443023F400531B041B0CA2F8443003B0ED
:101E1000BDE8F08F6B1C03EB8303002144F8331003
:101E2000137FCBB116F04006537C40F01881002B95
:101E300040F06182127CB0F8503000F2064010FA97
:101E400083F303EBC2031A88C2F309021A801A88CB
:101E500092B242F400421A803D4404EBC50520468C
:101E6000297C06F015FD20682AE6CCF828A020463B
:101E700006F00EFD29E706F4804316F040060193B4
:101E800040F09680B0F85020009B00F2064A1AFA03
:101E900082F232F83E90C9F30909994540F2AB81CC
:101EA000CCF828607B1904EBC3035B7C002B40F06B
:101EB000AB82B0F8502000F2024313FA82F232F8FB
:101EC0003E30C3F3090322F83E3032F83E306FEA69
:101ED00043436FEA53439BB222F83E30B0F85020A0
:101EE0001AFA82F232F83E30C3F3090322F83E3088
:101EF00032F83E306FEA43436FEA53439BB222F815
:101F00003E307B1904EBC303DB7C022B0FD130F88E
:101F10002E3023F4E04323F040031B041B0C83F01A
:101F2000200343F4004343F0800320F82E30204682
:101F300006F0AEFC019B002B7FF4C7AE7B1904EBCF
:101F4000C30320681A7C30F8223023F4E04323F0E6
:101F500070031B041B0C43F4404343F0800320F840
:101F60002230ADE5282101FB0541206801F5A8716B
:101F700000F0B6FF2068B4E500F2064C1CFA82F2CD
:101F800032F83390C9F30909B9F1000F3FF433AEC9
:101F9000B1F85A21D1F864114B4601F0FDF92CE655
:101FA000B1F85621D1F864114B4601F0F5F924E659
:101FB000B0F85060009B00F2024A1AFA86F636F832
:101FC0003E90C9F309099945C0F0E4800026CCF899
:101FD0002860537C002B40F02A82B0F850301AFA67
:101FE00083F300F2064633F83E20C2F3090223F8D9
:101FF0003E2033F83E2092B242F4004223F83E20C5
:10200000B0F8503016FA83F333F83E20C2F30902D9
:1020100023F83E2033F83E2092B242F4004223F8E7
:102020003E207B1904EBC303DB7C022B0FD130F87D
:102030002E3023F4E04323F040031B041B0C83F0F9
:10204000200343F4004343F0800320F82E30204661
:1020500006F01EFC019B002B7FF470AF35E6002BD1
:1020600040F03B81B0F85030127C00F20240E6E6CE
:102070002268B2F8443023F080031B041B0CA2F842
:10208000443094F8C832002B40F00E81B2F8403052
:102090009BB243F00403A2F84030B2F840309BB248
:1020A000012143F00803A2F8403084F8C812B2F8C6
:1020B0005430C3F38D0303F03C032046C4F8CC3204
:1020C00003B0BDE8F04F06F0E1BC2268B2F8403042
:1020D0009BB243F00803A2F84030B2F8443023F436
:1020E00000631B041B0CA2F84430B2F840309BB2D2
:1020F00043F004032046A2F8403006F0E9FBC7E4B1
:10210000B0F850E0D1F868310FFA82FCD20012FA30
:102110008EF216F4804A024400F0FB80B2F802E42A
:10212000CEF3090E9E45F14600F26781A3EB0E0344
:10213000C1F868317BB930F82C2022F4804222F0BB
:1021400070021204120C82F4005242F4004242F077
:10215000800220F82C2072060DD530F82C3023F4A4
:10216000E04323F070031B041B0C43F4004343F0D3
:10217000C00320F82C30BEF1000F3FF43EAD7919BA
:1021800004EBC1017346B1F85821D1F8641101F094
:1021900003F932E5A3EB0903CCF82830019B6BB1BE
:1021A00030F82E3023F4E04323F070031B041B0CA3
:1021B00043F4404343F0800320F82E307B1904EBB6
:1021C000C30393F83420012A00F0DE803D4404EB81
:1021D000C5052A7C30F8223023F4E04323F0400385
:1021E0001B041B0C83F0300343F4004343F08003D3
:1021F00020F8223064E4A3EB0903CCF82830002B4C
:102200003FF450AE019B6BB930F82E3023F4E0431D
:1022100023F070031B041B0C43F4404343F0800382
:1022200020F82E307B1904EBC30393F83420012AE5
:10223000CCD15A6A02EB09015962DCF82C604E4499
:10224000CCF82C601E6B1A6A9642C0F00D81B61A4B
:102250001E631FFA82F97B1904EBC30393F811C0C4
:10226000BCF1000F40F0F580B0F850301AFA83F35B
:10227000984433F83E60C6F3090623F83E60002A0E
:1022800040F01D8133F83E206FEA42426FEA52422D
:1022900092B223F83E207A1904EBC2024B46528BCD
:1022A00001F06AF8206891E7204606F011FBFFF77D
:1022B000EFBB2268B2F8443023F400731B041B0CFC
:1022C0002046A2F8443006F0EDFAFFF7E1BB84F8AF
:1022D000C812204606F0DAFB5DE4012B7FF4BCADAA
:1022E000B0F85030127C00F2024010FA83F303EB96
:1022F000C2031980B0E5012B7FF4AEADB0F85030C9
:10230000127C00F2064010FA83F303EBC2031E8036
:10231000A2E5B2F806E4CEF3090E9E45F14670D868
:10232000A3EB0E03C1F868317BB930F82C2022F4FE
:10233000804222F070021204120C82F4005242F425
:10234000004242F0800220F82C2073060DD430F8B1
:102350002C3023F4E04323F070031B041B0C43F4E4
:10236000004343F0C00320F82C30BEF1000F3FF4CF
:1023700044AC791904EBC1017346B1F85A21D1F884
:10238000641101F009F838E45A6A02EB0901596254
:10239000DCF82C604E44CCF82C601E6B1A6A964216
:1023A00071D3B61A1E631FFA82F97B1904EBC303BB
:1023B00093F811C0BCF1000F5BD1B0F850301AFA9D
:1023C00083F3984433F83E60C6F3090623F83E6071
:1023D000002A40F09A8033F83E206FEA42426FEACA
:1023E000524292B223F83E207A1904EBC2024B46C5
:1023F000128B00F0C1FF2068E8E60023C1F86831C5
:1024000099E6C1F868A190E7012B7FF47AADB0F8A6
:10241000503000F2024212FA83F3002223F83E20E9
:10242000B0F850301AFA83F323F83E2069E5012B07
:102430007FF4F7ADB0F850301AFA83F300F2064299
:1024400023F83E60B0F8503012FA83F323F83E6070
:10245000E7E5BCF1010F7FF41EAFB0F850301AFA77
:1024600083F323F83E9016E796B983F834604A4622
:10247000F1E6BCF1010FB7D1B0F850301AFA83F38E
:1024800023F83E90B0E74EBB83F834604A468CE7B1
:1024900093F811C000221A6383F834201FFA86F9DA
:1024A000BCF1000FD5D1B0F850301AFA83F33246A0
:1024B00033F83E60C6F3090623F83E6098443E2A8E
:1024C00032D8B8F800305608D20748BF01369BB260
:1024D00043EA86239BB2A8F80030DCE693F811C0EB
:1024E000002283F834201A631FFA86F9BCF1000F2A
:1024F000BFD1B0F850301AFA83F3324633F83E6059
:10250000C6F3090623F83E6098443E2A1FD8B8F85F
:1025100000305608D20748BF01369BB243EA8623F3
:102520009BB2A8F800305FE7D306B8F800304FEA56
:10253000521608BF06F1FF369BB243EA86236FEAC4
:1025400043436FEA53439BB2A8F80030A3E6D30697
:10255000B8F800304FEA521608BF06F1FF369BB2BA
:1025600043EA86236FEA43436FEA53439BB2A8F8DA
:10257000003039E70F8FFFFF90F89022012A0DD02D
:1025800010B504460122006884F89022617300F0BF
:10259000D1FE002384F89032184610BD0220704707
:1025A00010B501F0070E0EEB8E0C090604464FEA3B
:1025B000CC0C23D40CF5A87101440EEB8E0004EB77
:1025C000C0004FF0000C80F851C1022BCB70C2F359
:1025D0000A0204BF00230B7181F800E00A6194F83D
:1025E0009032012B16D0012384F89032206800F03D
:1025F00073F9002384F89032184610BD0CF11001D5
:1026000001440EEB8E0004EBC0004FF0010C80F88B
:1026100011C0DAE7022010BD01F0070301F0070244
:1026200010B503EB83030446090602EB82004FEA70
:10263000C30304EBC00016D403F5A873E1184FF0F0
:10264000000C80F851C10A7094F89032012B15D01B
:10265000012384F89032206800F05CFB002384F8AA
:102660009032184610BD1033E1184FF0010C80F87D
:1026700011C00A7094F89032012BE9D1022010BDEC
:1026800010B501F0070E0EEB8E0C00EBCC0C2821E0
:10269000002401FB0E01CCF8642100688CF850E1A5
:1026A000CCE95A348CF8514101F5A87100F018FCBE
:1026B000204610BD01F0070101EB810100EBC100D4
:1026C000D0F86C01704700BF10B501F0070E0EEB9B
:1026D0008E0100EBC10C6146CCF82830CCF83030CC
:1026E000002401230068CCF8242010318CF8343009
:1026F000CCF82C408CF811308CF810E000F0F0FB96
:10270000204610BD38B5037901F00705AB4232D33E
:102710000B0604461CD401EB8103282202FB0101B5
:1027200000EBC30301F5A871002283F851210123B6
:102730008B700D7094F890229A421AD0206884F819
:10274000903200F081FDC5B1002084F8900238BDC0
:1027500005EB8503282101FB050100EBC3030122E2
:1027600010315A7401238B700D7094F890229A42A4
:10277000E4D1022038BD012038BD206804F526715F
:1027800000F0F8FDE0E700BF38B5027901F00F0373
:102790009A4232D301F0070301F00702044603EB2B
:1027A000830302EB820009064FEAC30304EBC00077
:1027B00016D403F5A873E118002580F851510025BF
:1027C0008D700A7094F89032012B14D00123206888
:1027D00084F8903200F060FD84F89052284638BDAD
:1027E0001033E1180125457400258D700A7094F8A6
:1027F0009032012BEAD1022038BD012038BD00BF44
:1028000011F0800F0CD001F0070101EB810100EB0A
:10281000C100103099B262B9C180027300207047C4
:1028200001EB810100EBC10000F5A87099B2002A0C
:10283000F2D001228360027300207047024600201C
:10284000116810B482F8C802B1F8543001249BB268
:102850002343C2F8D442A1F85430B1F854305DF8A3
:10286000044B9BB243F00203A1F85430704700BF01
:1028700084B004A800E90E00002004B0704700BF37
:1028800003464BF680720020A3F84400A3F84020D2
:10289000704700BFB0F84010034644F27F020A4080
:1028A0000020A3F8402070470020704700B5844600
:1028B00085B04FF0010EACF840E000200DF1100E95
:1028C0000EE90E00ACF84000ACF84400ACF8500043
:1028D00005B05DF804FB00BF70B50C7891F803E01B
:1028E0000FFA84FC034630F82C2022F4EC4222F04C
:1028F00070021204120CBEF1030F00F2F181DFE846
:102900001EF0F200F500AB00040042F4C06248F291
:102910008000024323F82C2033F82C2022F4E042DC
:1029200022F070021204120C2243104323F82C00F0
:102930000A7B002A00F0A280002033F82C2022F429
:10294000E24222F070021204120C42F4004242F001
:10295000800223F82C20B3F850500A8903EBC404FA
:1029600014FA85F552085200A5F80024B3F8505027
:102970004A8914FA85F552085200A5F804244A78C9
:10298000002A40F0078133F82C2055040DD533F888
:102990002C2022F4E04222F070021204120C42F4C5
:1029A000404242F0800223F82C2033F82C205206BB
:1029B0000DD533F82C2022F4E04222F070021204EC
:1029C000120C42F4004242F0C00223F82C20B3F86B
:1029D00050200D6914FA82F204F20644B2F802148F
:1029E000C1F30901A2F80214002D00F019813E2D57
:1029F00000F257816908EE0748BF01318D02B2F835
:102A00000214ADB289B22943A2F80214B3F85020DF
:102A100092B2115BC1F309011153115B89B20D43ED
:102A2000155333F82C2022F4804222F07002120455
:102A3000120C48F2800182F440520A4323F82C2001
:102A400033F82C2022F4E04222F040021204120C4F
:102A5000114323F82C1070BD48F28000024323F884
:102A60002C2033F82C20AA4D92B22A402243104346
:102A700023F82C000A7B002A40F0F4800020CA884A
:102A80004E785208520003EBC405DEB3B3F8501081
:102A900015FA81F1A1F8002433F82C2052060DD547
:102AA00033F82C2022F4E04222F070021204120CBF
:102AB00042F4004242F0C00223F82C2033F82C20CC
:102AC00022F4E04222F040021204BEF1010F4FEA6C
:102AD000124210D082F0200242F4004242F0800202
:102AE00023F82C2070BD42F4007210E742F480629B
:102AF0000DE782F4005242F4004242F0800223F8D3
:102B00002C2070BD0E69B3F8501015FA81F1A1F8B0
:102B10000424B3F8502015FA82F2B2F80614C1F377
:102B20000901A2F80614002E00F092803E2E00F259
:102B3000A580B2F806147508F60748BF013589B2BA
:102B400041EA852189B2A2F8061433F82C205604F4
:102B50000DD533F82C2022F4E04222F0700212044A
:102B6000120C42F4404242F0800223F82C2033F849
:102B70002C2022F4804222F070021204120C002C4D
:102B8000B7D182F4405242F4004242F0800223F86E
:102B90002C2070BD33F82C2051040DD533F82C2097
:102BA00022F4E04222F070021204120C42F440427D
:102BB00042F0800223F82C2033F82C2052060DD549
:102BC00033F82C2022F4E04222F070021204120C9E
:102BD00042F4004242F0C00223F82C2033F82C20AB
:102BE00022F4E04222F040021204120CBEF1010F66
:102BF00018BF82F0200242F4004242F0800223F823
:102C00002C2033F82C2022F4804222F0700212048F
:102C1000120C42F4004242F0800223F82C2070BDD6
:102C2000B2F802146FEA41416FEA514189B2A2F849
:102C30000214B3F8501089B20A5BC2F309020A53B6
:102C40000A5B6FEA42426FEA524292B20A53E8E6E6
:102C5000B2F806146FEA41416FEA514189B2A2F815
:102C6000061472E733F82C2092B22A4042F4014253
:102C700042F0800223F82C2000206CE6F106B2F826
:102C800006144FEA561508BF05F1FF3589B241EA2F
:102C900085216FEA41416FEA514189B2A2F80614D9
:102CA00053E76909ED0608BF01F1FF31B2F802549C
:102CB000890289B2ADB20D4345F40045A2F8025431
:102CC000B3F85050ADB22A5BC2F309022A532A5B13
:102CD0000A436FEA42426FEA524292B22A53A0E696
:102CE00048F28000024323F82C2033F82C2022F4F1
:102CF000E04222F070021204120C2243104323F827
:102D00002C000A7B0120002A7FF417AEB7E600BF33
:102D10008F8FFFFF10B40C7B4A780B78CCB9002A58
:102D200000F0B58030F82320540600F1C98030F857
:102D3000232022F4E04222F040021204120C42F45A
:102D4000004242F0800220F823205DF8044B00206E
:102D50007047002A4DD130F8232052040DD530F8A9
:102D6000232022F4E04222F070021204120C42F4FA
:102D7000404242F0800220F8232030F823205406FD
:102D80000DD530F8232022F4E04222F07002120424
:102D9000120C42F4004242F0C00220F8232030F826
:102DA00023205DF8044B22F4E04222F0700212046A
:102DB000120C42F4004242F0C00220F8232030F806
:102DC000232022F4804222F07002120448F2800193
:102DD000120C0A4320F8232030F8232022F4E0428A
:102DE00022F040021204120C114320F8231000209C
:102DF000704730F8232051040DD530F8232022F4F9
:102E0000E04222F070021204120C42F4404242F0FE
:102E1000800220F8232030F8232052060DD530F808
:102E2000232022F4E04222F070021204120C42F439
:102E3000004242F0C00220F8232030F823205DF841
:102E4000044B22F4E04222F070021204120C42F40D
:102E5000404242F0800220F8232030F8232022F460
:102E6000E04222F04002120448F28001120C0A43B0
:102E700020F8232030F8232022F4804222F0700230
:102E80001204120C114320F823100020704730F870
:102E9000232051040DD530F8232022F4E04222F003
:102EA00070021204120C42F4404242F0800220F8F8
:102EB000232030F8232022F4804222F070023CE7E5
:102EC00030F8232022F4E04222F070021204120CA7
:102ED00042F4004242F0C00220F8232027E700BF5E
:102EE0002DE9F04F4B780C7B012B83B036D0F4B139
:102EF000CB78022B00F0FF80012B40F0888000236C
:102F00000A788B6112B230F8223023F4804323F028
:102F100070031B041B0C83F4405343F4004343F041
:102F2000800320F82230002003B0BDE8F08F8A69CA
:102F30000C78002A55D1CB78002B00F0FD8030F8BA
:102F4000243023F4E24323F070031B041B0C43F4EE
:102F5000004343F0800320F82430D0E70E698A69EB
:102F60004B69B24228BF324600F58067002C00F062
:102F7000A880CD780C6A91F800E0022D4BD0A41AFD
:102F800030F82E500C6294B2013415F0400F92B21A
:102F9000B0F850504FEA540400F0DD8000F20646CD
:102FA00016FA85F525F83E204D893D443CB103EBEA
:102FB0004404ED1A1A885A5302339C42FAD10A7813
:102FC00030F8223023F4E04323F040031B041B0CB1
:102FD00083F0300343F4004343F0800320F82230B1
:102FE000A1E730F8243023F4E24323F070031B04FC
:102FF0001B0C43F4004343F0800320F824300B699A
:103000009A427FF67CAFD31A8B610A787AE7012067
:1030100003B0BDE8F08FA64200F2024B80F0E080E2
:1030200030F82E5025F4E04525F070052D042D0CC8
:1030300045F4014545F0800520F82E5030F82EC0AB
:1030400095B2A41A01351CF0400F0C62B0F850C0C4
:103050004FEA55051FFA82F800F2064900F08F800A
:1030600019FA8CFC2CF83E80B1F80A90B94475B17D
:10307000A9EB030903EB450A9C460196BCF80060E6
:103080002CF809600CF1020CD445F7D1019E1344D1
:10309000A6424B6180F0C980A21A0A62B0F85020A3
:1030A0001BFA82F222F83E800C893C44002D86D027
:1030B00003EB4505E41A1A881A5302339D42FAD1EC
:1030C0007DE795B2CE8801356D083E4492B207D0B7
:1030D00003EB4505F61A1C889C530233AB42FAD128
:1030E000B0F850300C7800F2024515FA83F303EB88
:1030F000C4031A8063E7CB690A78002B3FF402AF60
:1031000014B244F2400330F8245003EA0506AB43FE
:1031100002D0002E7FF4F6AE30F8243023F4E043E2
:1031200023F070031B041B0C43F4004343F0C00363
:1031300020F824300A78E5E630F8243023F4E04320
:1031400023F070031B041B0C43F4014343F0800382
:1031500020F82430D3E600F2024616FA85F525F869
:103160003E200D893D44002C3FF429AF03EB44047D
:10317000ED1A1A885A5302339C42FAD11FE71BFA00
:103180008CFC2CF83E80B1F808A0BA4475B1AAEBCB
:10319000030A03EB450B9C460196BCF800602CF833
:1031A0000A600CF1020CDC45F7D1019E1344A642E3
:1031B0004B6141D2A41AB0F850200C6219FA82F285
:1031C00022F83E804C893C44002D3FF4F8AE03EBDE
:1031D0004505E41A1A881A530233AB42FAD1EEE6D7
:1031E00030F82E2022F4E24222F070021204120C77
:1031F00042F4004242F0800220F82E20B0F8502025
:103200001BFA82F2A5B222F83E502C4601340D89F9
:1032100064083D443FF4D3AE03EB4402ED1A1C882E
:103220005C5302339A42FAD1C9E6A5B201351FFABE
:1032300084F86D08002230E7A5B201351FFA84F842
:103240006D080024B7E700BF4B780A788BB130F8DF
:10325000223023F4E04323F040031B041B0C83F0D3
:10326000100343F4004343F0800320F82230002091
:10327000704730F8223023F4804323F070031B049E
:103280001B0C83F4805343F4004343F0800320F885
:1032900022300020704700BF4B780A7833B330F8F3
:1032A00022305B060DD530F8223023F4E04323F0C2
:1032B00070031B041B0C43F4004343F0C00320F8CD
:1032C0002230CB78012B0FD030F8223023F4E043AA
:1032D00023F040031B041B0C83F0200343F4004342
:1032E00043F0800320F822300020704730F822306D
:1032F0005B040DD530F8223023F4E04323F0700353
:103300001B041B0C43F4404343F0800320F822309D
:1033100030F8223023F4804323F070031B041B0C8D
:1033200083F4405343F4004343F0800320F82230F9
:103330000020704711B98023A0F84C30002070475E
:1033400002460020B2F858306FEA43436FEA534315
:103350009BB2A2F85830704703460020B3F85820BB
:10336000C2F30E02A3F85820704700BFB0F8440023
:1033700080B2704700207047013302F580625B081D
:10338000104408D00A46801A01EB430113881352F7
:1033900002328A42FAD1704770B502F580625E0847
:1033A00000EB02051CD06FF00104641A8A1C2C4447
:1033B000B64634F802C002321FFA8CFC4FEA1C20D9
:1033C000BEF1010E02F804CC02F8030CF1D105EBBA
:1033D0004602DB0701EB460144BF13880B7070BD4A
:1033E0002A46DB0744BF13880B7070BD10B503205D
:1033F00001F0E2FB0F2006F037F810B1012420465F
:1034000010BD044605F0F8FE204610BD034A044BEB
:1034100011681B780B441360704700BFBC03002089
:1034200004000020014B1868704700BFBC03002057
:1034300038B50446FFF7F6FF631C054602D0044B7F
:103440001B781C44FFF7EEFF401BA042FAD338BDA7
:103450000400002030B5204DAB6DDB0083B0044686
:103460001AD501F059FBB0F5007F27D0802C2CD85D
:103470002FD0A4F17004B4FA84F4640917490B68DE
:1034800023F0070323430B60086800F00700001BCC
:1034900018BF012003B030BDAB6D43F08053AB6566
:1034A000AB6D03F080530193019B01F035FBAB6DD5
:1034B000B0F5007F23F08053AB65D7D1802C06D9BF
:1034C000A02C8CBF02240124D8E70324D6E70024D3
:1034D000D4E70224D2E700BF0010024000200240DF
:1034E000234A9368D26813F00C0308D00C2B36D013
:1034F000042B32D0082B1F4818BF002070471C4AED
:103500001168090754BFD2F8942012681A4954BFB1
:10351000C2F30322C2F3031251F82200F3B1144B99
:10352000DB6803F00303022B1FD0124A032B08BFF2
:1035300010460F4BD968DA68DB68C3F34163C2F306
:103540000622C1F30211013300FB02F201315B00DC
:10355000B2FBF1F2B2FBF3F070470848704702F09B
:103560000302012ACBD00020D9E70448E1E700BFDD
:103570000010024000127A00D82A01080024F4004A
:10358000002800F009832DE9F0438D4A036895680F
:10359000D668D90683B0044605F00C0506F003068C
:1035A0001A462FD5002D00F014810C2D00F00E814D
:1035B000A369834F002B00F0A8813B6843F001030F
:1035C0003B60FFF72FFF804606E0FFF72BFFA0EBE5
:1035D0000800022800F295813B689A07F5D53B6800
:1035E00043F008033B603B68226A23F0F003134377
:1035F0003B607B68E26923F47F4343EA02237B60FC
:1036000023681A46DF0729D5082D00F04C810C2DC0
:1036100000F046816368B3F5803F00F08A81B3F51E
:10362000A02F00F00882664F3A6822F480323A6098
:103630003A6822F480223A60002B40F07F81FFF745
:10364000F1FE804606E0FFF7EDFEA0EB08006428DF
:1036500000F257813B689803F5D42268910713D58F
:10366000042D40F0F880564B1B685A0503D5E368DB
:10367000002B00F01381524A2169536823F0F8535C
:1036800043EA016353602268110719D563694C4E00
:10369000002B00F01181D6F8943043F00103C6F8F6
:1036A0009430FFF7BFFE074605E0FFF7BBFEC01BE7
:1036B000022800F22681D6F894309A07F5D52268C0
:1036C00057073FD53E4B9A6DD60000F147819A6D62
:1036D00042F080529A659B6D03F080530193019BE9
:1036E0000126384F3B68D80540F1FA80A368012BCA
:1036F00000F04881052B00F0AB81314FD7F89020C6
:1037000022F00102C7F89020D7F8902022F004029E
:10371000C7F89020002B40F03C81FFF783FE41F278
:103720008839804606E0FFF77DFEA0EB080048459B
:1037300000F2E780D7F890309B07F4D4002E40F0D9
:103740006E812268900618D5636A1D4E002B00F02A
:103750005181D6F8983043F00103C6F89830FFF74E
:1037600061FE074605E0FFF75DFEC01B022800F280
:10377000C880D6F898309907F5D5A36ADBB1022B3B
:1037800000F07C810C2D00F089800D4C236823F023
:1037900080732360FFF746FE054605E0FFF742FE13
:1037A000401B022800F2AD8023689B01F6D4E2683A
:1037B000054B1340E360002003B0BDE8F08300BF79
:1037C0000010024000700040FCFFEEFE012E7FF46E
:1037D000EFAEA64B1B689B075DD4A44B206A1A680A
:1037E000170756BFD3F894301B681B0903F0F0038A
:1037F000984200F2E3809D4B1A6842F008021A607A
:103800001A6822F0F00202431A605A68E16922F451
:103810007F4242EA01225A60002D00F00681FFF744
:103820005FFE924B924A9B68C3F30313D35C914AA9
:1038300003F01F0320FA03F310688F4A136005F0AA
:1038400013FE0028B8D12268D10713463FF5DFAE3A
:1038500091077FF519AF0C2D00F0C880E368834E07
:10386000002B7DD0336843F480733360FFF7DAFDBB
:10387000074604E0FFF7D6FDC01B022841D8336895
:103880005B05F7D57368226923F0F85343EA0263B6
:1038900073602268F8E6A369002B9ED101208BE7B4
:1038A000032E7FF4B7AE714A1268900302D56268A6
:1038B000002AF3D01A46CBE7D6F8943023F0010360
:1038C000C6F89430FFF7AEFD074604E0FFF7AAFD07
:1038D000C01B022815D8D6F894309B07F6D4EEE624
:1038E0003B6843F480733B60FFF79CFD80463B6878
:1038F000D9053FF5FBAEFFF795FDA0EB08000228C8
:10390000F5D9032003B0BDE8F0833B6823F0010341
:103910003B60FFF787FD804605E0FFF783FDA0EBE6
:1039200008000228EDD83B689B07F6D423681A46A6
:1039300068E64E4A136843F480331360FFF772FD64
:10394000DFF82881074604E0FFF76CFDC01B642800
:10395000D7D8D8F800309B03F6D57EE60026C0E61F
:10396000336823F480733360FFF75CFD074604E09F
:10397000FFF758FDC01B0228C3D833685805F7D499
:10398000226881E6394AD2F8903043F00103C2F848
:103990009030FFF747FDDFF8D480074641F28839C1
:1039A00004E0FFF73FFDC01B4845AAD8D8F8903087
:1039B0009A07F6D5002E3FF4C4AE30E0FFF74AFD7B
:1039C00000287FF46BAF294B1A6842F008021A6096
:1039D0001A68216A22F0F0020A431A605A68E16903
:1039E00022F47F4242EA01225A6018E7022E7FF455
:1039F00035AF38E6D6F8983023F00103C6F8983092
:103A0000FFF710FD074605E0FFF70CFDC01B02287D
:103A10003FF677AFD6F898309A07F5D4ADE6134A5B
:103A2000936D23F0805393658BE6FFF713FD002819
:103A30003FF4F5AE32E703F18043A3F53C331A6857
:103A400042F480221A601A6842F480321A6075E7E4
:103A5000064BD3F8902042F00402C3F89020D3F82C
:103A6000902042F00102C3F8902092E7001002403B
:103A7000102B01080800002000000020474EE26AD9
:103A8000F36803F00301914249D00C2D3FF406AFD7
:103A9000424D2B685B013FF501AF2B6823F080732B
:103AA0002B60FFF7BFFC064605E0FFF7BBFC801B61
:103AB00002283FF626AF2B689F01F6D4E968384B01
:103AC000E26A206B0B401343D4E90D1243EA012351
:103AD00043EAC263D4E90F120138490843EA0013EC
:103AE0000139520843EA4153013A43EA4263EB6029
:103AF0002B6843F080732B60EB6843F08073EB60BE
:103B0000FFF790FC254D044605E0FFF78BFC001BFA
:103B100002283FF6F6AE2B689801F6D54BE6216BEE
:103B200003F070020139B2EB011FAED1616B03F4F7
:103B3000FE42B2EB012FA8D1A16B03F07842B2EBA9
:103B4000C16FA2D1E26B520803F4C001013AB1EB9C
:103B5000425F9AD1226C520803F0C063013AB3EB82
:103B6000426F92D1336899013FF525AE336843F037
:103B700080733360F36843F08073F360FFF752FCA7
:103B8000044605E0FFF74EFC031B022B3FF6B9AEDF
:103B900033689A01F6D50EE6012070470010024006
:103BA0008C809D01002800F0A080544A136803F027
:103BB00007038B422DE9F0410D4604460CD21368F1
:103BC00023F007030B431360136803F007038B42D2
:103BD00002D00120BDE8F0812368990703F00102BB
:103BE00070D5474EA068B16801F0F001884204D951
:103BF000B16821F0F0010143B16032B36268404B1B
:103C0000032A1B6865D0022A6CD0002A71D19E0756
:103C1000DFD53B4EB36823F003031343B360FFF7D4
:103C200001FC41F28838074604E0FFF7FBFBC01BAC
:103C300040455CD8B368626803F00C03B3EB820FB5
:103C4000F3D12368990706D5A0682D498A6802F048
:103C5000F002824240D829490A6802F00702AA42CB
:103C600009D90A6822F007022A430A600A6802F0AA
:103C70000702AA42ADD15A0706D52149E0688A68F1
:103C800022F4E06202438A601B0707D51C4A2169BF
:103C9000936823F4605343EAC1039360FFF720FC69
:103CA000174A184C92681849C2F303120346A25CE3
:103CB000164802F01F02D340BDE8F04100680B60D7
:103CC00005F0D2BB002AC6D062680D4B032A1B68E0
:103CD00099D19B019DD47CE78A6822F0F0020243CF
:103CE0008A60B8E79F0394D473E7012070470320EC
:103CF00070E758057FF56DAF8BE700BF00200240ED
:103D000000100240102B01080000002008000020D5
:103D1000054B064A9B680649C3F302230868D35C37
:103D200003F01F03D840704700100240082B010821
:103D300000000020054B064A9B680649C3F3C223D6
:103D40000868D35C03F01F03D8407047001002409E
:103D5000082B0108000000200E4B0F2210B4026057
:103D60009A680D4C02F0030242609A6802F0F00279
:103D700082609A6802F4E062C2609B68DB0803F428
:103D8000E063036123685DF8044B03F007030B60F5
:103D9000704700BF0010024000200240454AF8B5BD
:103DA000D6680D46B1070446006806D0D16801F018
:103DB000030181424BD00120F8BD022858D00328CE
:103DC0004FD00128F7D112689307F5D53949CA6851
:103DD00022F0730242EA00036268013A43EA0213E6
:103DE000CB60344E336823F080633360FFF71AFBF7
:103DF000074604E0FFF716FBC31B022B3CD83368D1
:103E00001A01F7D4A3681902002D37D13269E3688B
:103E100022F0784241EAC36322F4FE421343336145
:103E2000244D2B6843F080632B60FFF7FBFA0646B6
:103E300004E0FFF7F7FA801B02281DD82B681B014E
:103E4000F7D52B69A269134300202B61F8BD002927
:103E5000B1D0D3686268C3F3021301339342AAD18D
:103E6000BFE711688E03B1D412685103A3D5ADE743
:103E7000126857059FD5A9E70320F8BD012D3369C6
:103E80000BD0626923F0C063520823F4FE43013A69
:103E90000B4343EA42633361C2E7226923F4C00360
:103EA000520823F4FE43013A0B4343EA4253336181
:103EB000B6E700BF001002402DE9F043036813F499
:103EC000006683B0044613D0C16BB1F5000F00F05B
:103ED000EC80B1F5400F00F0ED80002940F01D812D
:103EE0000430FFF75BFF0646002800F034812368AA
:103EF0009F0343D5994B9A6DD50040F1CB800027A5
:103F0000974D2B6843F480732B60FFF78BFA804644
:103F100005E0FFF787FAA0EB0803022B29D82B68EE
:103F2000D805F6D536BB8D4D226DD5F8903013F4FB
:103F3000407300F0E580934200F0E280D5F89010E5
:103F4000D5F8903043F48033C5F89030D5F89030F0
:103F500023F48033C5F8903021F44073C907C5F8C5
:103F6000903040F1CD80FFF75DFA41F2883980460C
:103F7000C1E003262368002F40F0A680DF0708D5A4
:103F80007649206AD1F8882022F003020243C1F862
:103F900088209D0708D57149606AD1F8882022F0F1
:103FA0000C020243C1F88820980608D56B49A06A24
:103FB000D1F8882022F440620243C1F88820990594
:103FC00008D56649606BD1F8882022F4402202436C
:103FD000C1F888205A0508D56049A06BD1F888201F
:103FE00022F440120243C1F888205F0608D55B49DD
:103FF000E06AD1F8882022F440520243C1F88820B8
:10400000DD0508D55549206BD1F8882022F44032CF
:104010000243C1F8882098040ED55049206CD1F88D
:10402000882022F040620243B0F1006FC1F888207E
:1040300050D0B0F1806F7BD059030ED54749606CEA
:10404000D1F8882022F040620243B0F1006FC1F83D
:10405000882044D0B0F1806F74D05A040BD53F480B
:10406000A16CD0F8882022F040520A43B1F1805F61
:10407000C0F8882053D01B0408D5384AE16CD2F828
:10408000883023F080430B43C2F88830304603B0B9
:10409000BDE8F0839A6D42F080529A659B6D03F003
:1040A00080530193019B01272AE72C48C26842F400
:1040B0008032C2602948D0F8882022F440020A43A6
:1040C000C0F88820002613E724498A6D22F0805228
:1040D0008A6553E7CA6842F48012CA60ACE7CA68CE
:1040E00042F48012CA60B8E7FFF79CF9A0EB080021
:1040F00048453FF63EAFD5F890309B07F4D5226D8A
:104100001649D1F8903023F440731343C1F890302E
:104110002368002F3FF432AFD6E70126E8E60221FC
:10412000201DFFF73BFE23680028A4D00646A2E727
:104130000121201DFFF732FE236800283FF47CAFE9
:10414000064679E70121201DFFF728FE2368002895
:1041500083D0064681E7E16B2368ABE7001002409D
:10416000007000402DE9F04F0C6885B0002C00F085
:10417000B98000234FF0010B62E0BCF1030F40F067
:10418000BB800CFA02F2D0F800C00CEA07073A43F1
:1041900015F4403F02604FD05D4F3A6E42F001028D
:1041A0003A663A6E02F001020392039A23F0030288
:1041B00002F1804202F5803203F0030C97684FEA67
:1041C0008C0C0F2606FA0CFEB0F1904F27EA0E0772
:1041D0000ED0504EB04200F088804F4EB0420CBF1F
:1041E0004FF0020E4FF0070E0EFA0CFC47EA0C07D8
:1041F00097604A4A9268EE026FEA0A07474E54BF38
:104200003A404AEA0202B260F268AE02434E54BF3C
:104210003A404AEA0202F2607268AE033F4E54BF6F
:104220003A404AEA020272603268ED033B4D54BFE5
:104230003A404AEA02022A60013334FA03F251D0CA
:104240000BFA03FE1EEA040AF6D04D6805F0030CD3
:104250005A0003260CF1FF3806FA02F7B8F1010FF5
:104260006FEA070789D8D0F80890CE6809EA0709ED
:1042700006FA02F848EA0908C0F80880D0F8048075
:104280008E6828EA0E08C5F3001E0EFA03FE4EEAF9
:10429000080EC0F804E0D0F80C8006FA02FE08EA26
:1042A00007084EEA080EBCF1020FC0F80CE07FF4DC
:1042B00068AF0E694FEAD30803F0070E00EB8808D9
:1042C0004FEA8E0E06FA0EF6D8F8209001960F26C9
:1042D00006FA0EFE019E29EA0E0946EA090EC8F802
:1042E00020E04EE705B0BDE8F08F4FF0010E0EFA6A
:1042F0000CFC47EA0C077BE7D0F80C808E6808EAD4
:10430000070806FA02FE4EEA080EC0F80CE038E78D
:10431000001002400004004800080048000401406A
:104320000369194214BF0120002070470AB181615E
:1043300070478162704700BF044A5169014200D151
:10434000704708B5506104F0F1FE08BD000401405B
:10435000F8B503689C6914F0100C054641D0164668
:1043600010220F46DA619C6914F0200479D1781C80
:104370004DD19A699106FCD52022DA619A6944F000
:10438000040CD4054FF001002FD457053AD54FF453
:104390008061D9614CF0080C960504D54FF4007289
:1043A0004CF0020CDA619A69910744BF00229A62CC
:1043B0009A69D20703D49A6942F001029A615A6855
:1043C00029490A405A606B6C002243EA0C03202101
:1043D0006B6485F8402085F8411085F84220012063
:1043E000F8BD9A69D4056046CFD54FF48071D96184
:1043F00051054CF0010CCFD54FF48061D9614CF0E0
:10440000080CC9E79405C9D40028CCD1F8BDFFF742
:1044100009F8801BB8422B6804D81FB19A6992062C
:10442000A5D5A9E7586895F8422099690C04D2B23D
:104430000BD5410409D4202A07D05A6842F480429F
:104440005A60FEF7EFFF2B6806469A6992068AD4F7
:10445000FEF7E8FF831B192B2B68F6D99A692024F5
:104460008CE7002488E700BF00E800FE70B5036811
:1044700004460D46164605E0FFF76AFF00BB6A1CBE
:1044800008D123689B699B07324629462046F3D50D
:10449000002070BDFEF7C6FF801BA842236801D82C
:1044A000002DEFD19A6912F00202EBD1636C84F80F
:1044B000402020210B43636484F8411084F842209B
:1044C000012070BD2DE9F843DDF820901E46054619
:1044D00003688846174605E0FFF73AFF68BB731C80
:1044E0000ED12B689C6938EA04040CBF0123002319
:1044F000BB424A4631462846EED00020BDE8F8834C
:10450000FEF790FFA0EB0900B0422B6801D8002E07
:10451000E8D19A6938EA02020CBF01220022BA42AD
:10452000E0D16B6C002243F0200320216B6485F8FE
:10453000402085F8411085F842200120DEE700BFC9
:1045400003689B699B0629D470B505460C46164640
:104550000DE0FEF767FF801BA042296800D81CB958
:104560008B6913F020030DD08B699B0608D432466B
:1045700021462846FFF7ECFE0028EAD0012070BD56
:10458000002070BD6A6C85F8403020210A436A64BF
:10459000012085F8411085F84230F0E7002070478F
:1045A000002854D010B590F84130044603F0FF02C3
:1045B000002B47D02368242284F8412019686268C0
:1045C00021F0010122F0706219601A619A68E168B5
:1045D00022F4004201299A60A26809D042F4044200
:1045E00002299A6007D15A6842F400625A6006E0D4
:1045F00042F400429A605A6822F400625A60596894
:10460000226941F0007141F4004159606169D86844
:104610000A43A16920F4004042EA0122E169D8601E
:10462000206ADA6001431960196841F001011960DC
:1046300000222023626484F84130226384F84220FF
:10464000104610BD80F8402004F032FEB2E7012091
:10465000704700BF2DE9F04F994690F8413083B084
:10466000202BBDF834A00E9F40F0A7800C9B044681
:10467000002B00F09B80BAF1000F00F0978090F8BB
:104680004030012B00F099804FF0010B80F840B0D2
:104690000D469046FEF7C6FE5A4606460090192380
:1046A0004FF400412046FFF70DFF002840F08180C5
:1046B0000C9B6362212384F8413022686249606365
:1046C000402384F842306064A4F82AA053680B4069
:1046D0005FFA89F143EA0143C5F309052B4343F02F
:1046E000807343F400535360394632462046FFF747
:1046F000BDFE002865D1B9F1010F236865D15FFACD
:1047000088F29A6200963B46002280212046FFF7FD
:10471000D9FE002855D1638D22689BB2FF2B70D93A
:1047200053684A490B402B4343F0FF7343F48033F3
:10473000FF212185536003E0638D9BB2002B6ED077
:10474000324639462046FFF791FE002831D1616A92
:10475000236811F8012B9A62638D228D6162013BFF
:104760009BB26385638D013A92B29BB22285002B86
:10477000E2D0002AE0D1802100963B462046FFF798
:10478000A1FEFF21A8B9638DDFF8C0C022689BB2EB
:104790008B42604628D95368218503EA0C032B43DA
:1047A00043F0FF7343F480335360C5E74FF4007365
:1047B0006364012003B0BDE8F08F022003B0BDE8C0
:1047C000F08F002384F84030F3E74FEA18229A6212
:1047D000394632462046FFF749FE0028F1D12268CB
:1047E0005FFA88F393628DE7638D51689BB22385EE
:1047F000DBB245EA034301400B4343F000735360CF
:104800009AE7638D114851689BB22385DBB245EA74
:10481000034301400B4343F00073536090E732467B
:1048200039462046FFF78CFE0028C2D12368084D88
:104830002021D9615A682A405A6084F8411084F8CE
:10484000400084F84200B5E7009800FC009C00FCA2
:1048500000E800FE2DE9F04F994690F8413083B012
:10486000202BBDF834A00E9F40F0A8800C9B04467E
:10487000002B00F09C80BAF1000F00F0988090F8B7
:104880004030012B00F09A804FF0010B80F840B0CF
:104890000D469046FEF7C6FD5A460646009019237F
:1048A0004FF400412046FFF70DFE002840F08280C3
:1048B0000C9B6362222384F8413022686449606360
:1048C000402384F842306064A4F82AA053680B4067
:1048D0005FFA89F143EA0143C5F309052B4343F429
:1048E00000535360394632462046FFF7BFFD00288B
:1048F00068D1B9F1010F236868D15FFA88F29A6232
:1049000000963B46002240212046FFF7DBFD0028B1
:1049100058D1638D22689BB2FF2B73D953684C49E1
:104920000B402B4343F0807343F4923301212185E4
:10493000536003E0638D9BB2002B73D000963B461F
:10494000002204212046FFF7BDFD002832D1226855
:10495000636A526A1A70638D228D616A013B9BB251
:104960006385638D013A92B201319BB26162228507
:10497000002BDFD0002ADDD1802100963B46204667
:10498000FFF7A0FD0121A8B9638DDFF8CCC0226834
:104990009BB2FF2B604628D95368218503EA0C039C
:1049A0002B4343F0807343F480335360C2E74FF4EA
:1049B00000736364012003B0BDE8F08F022003B0F0
:1049C000BDE8F08F002384F84030F3E74FEA182267
:1049D0009A62394632462046FFF748FD0028F1D159
:1049E00022685FFA88F393628AE7638D51689BB20D
:1049F0002385DBB245EA034301400B4343F00073D8
:104A0000536097E7638D124851689BB22385DBB2F0
:104A100045EA034301400B4343F0007343F4105352
:104A200053608BE7324639462046FFF789FD002860
:104A3000C0D12368074D2021D9615A682A405A60A5
:104A400084F8411084F8400084F84200B3E700BFC6
:104A5000009800FC00E800FE009C00FC90F841205B
:104A6000202A23D15FFA82FC90F84020012A0346D5
:104A70001CD00268242000B583F84100106820F0A3
:104A800001001060106820F480501060106801432D
:104A9000116011684FF0000E41F00101116083F8C0
:104AA00041C083F840E070465DF804FB0220704787
:104AB00090F84120202A22D100B55FFA82FE90F8BA
:104AC0004020012A03461CD00268242083F84100BC
:104AD000106820F001001060106820F4706040EA57
:104AE0000121116011684FF0000C41F001011160CB
:104AF00083F841E083F840C060465DF804FB022083
:104B0000704702205DF804FB024A136843F4807387
:104B10001360704700700040024B186800F4C060DA
:104B2000704700BF00700040B0F5007F0ED01B4AF8
:104B3000136803F4C063B3F5806F05D0136823F4E2
:104B4000C06343F4806313600020704713490B680F
:104B500003F4C063B3F5007FF6D00B68104A23F46A
:104B6000C06343F400730B6013680E4A322000FBED
:104B700003F34869A2FB03239B0C400503F10103E7
:104B800006D500E023B14A69520503F1FF33F9D499
:104B9000024B5B695B05D7D503207047007000406E
:104BA0000000002083DE1B43024A536843F4806305
:104BB00053607047007000400749CA6803024FF60F
:104BC000FF0003F4E0630240134343F0BF6343F488
:104BD0000033CB60704700BF00ED00E01B4BDB688B
:104BE000C3F3022300B5C3F1070EBEF1040F03F1B6
:104BF000040C28BF4FF0040EBCF1060F1CD9A3F122
:104C0000030C4FF0FF3303FA0CF322EA03024FF0D8
:104C1000FF3303FA0EF321EA030303FA0CF3134301
:104C20001B010028DBB20ADB00F1604000F56140A7
:104C300080F800335DF804FB00229446E7E7044A5D
:104C400000F00F00024413765DF804FB00ED00E075
:104C5000FCEC00E0002807DB044A4109012300F0D6
:104C60001F00834042F82130704700BF00E100E0A0
:104C700030B583B000230193002800F09780456D84
:104C80000446002D00F09780226893689D0005D5AA
:104C9000936823F0204323F03F0393609368D80088
:104CA00019D4564B56481B6891689B09A0FB030317
:104CB00021F010419B0921F03F0101335B0041F0DD
:104CC000805191600193019B2BB1019B013B0193AA
:104CD000019B002BF9D19368D9006AD4636D43F02E
:104CE00010036365A36D01200343A365936813F06C
:104CF000040F636D56D1DB0654D4636D23F48173C6
:104D000043F0020363659368DD070AD43D4B9B685B
:104D1000D90706D43C4965688B6823F47C132B4380
:104D20008B60E568636B94F820102B43A5682B43D8
:104D3000657E012943EA453343EA014349D0A16A2C
:104D400021B1E56A01F4707129430B43D5682F49FD
:104D500029401943D16093681B0714D4D16894F893
:104D60003030257E21F480415B0021F0020143EACE
:104D700085330B43D36094F83830012B2ED0136960
:104D800023F0010313612369012B1AD0136B23F065
:104D90000F031363636D23F0030343F001036365A3
:104DA00003B030BD636D43F010036365012003B0B1
:104DB00030BD00209AE704F03FFAA56584F8505012
:104DC00062E7116BE36921F00F01013B0B431363B1
:104DD000E0E7616A013943EA4143B0E71169E36BF7
:104DE000256C6FF38A012B430B43616C0B43A16C61
:104DF0000B4343F001031361C5E700BF000000202F
:104E0000632D3E05000004500003045007C0F0FF6E
:104E1000F8B54469082C05460E4604D00368DB68E3
:104E2000DA0746D40424FEF7FDFA2A680746136819
:104E3000234204D1731C23D113681C42FCD06B6D38
:104E400043F400736B65D36813F4406F0FD16B7E2E
:104E50006BB9136818070AD56B6D23F480736B6503
:104E60006B6DD90403D46B6D43F001036B65082CA3
:104E7000D3681CD05B0401D40C2313600020F8BD60
:104E8000FEF7D0FAC01BB0422A680AD91368234043
:104E9000CDD16A6D85F8503042F004026A65032076
:104EA000F8BD002EC3D113682340C0D1F1E71460D0
:104EB000E4E7436D43F0200301206B65F8BD00BFBC
:104EC0000368186C704700BFF0B590F8502083B0AD
:104ED0000346012A4FF00000019000F023811C6876
:104EE000012083F85000A26812F0040C58D14868E1
:104EF000052840F2908000F01F054FF01F0E820938
:104F00000EFA05FE02F00C0C6FEA0E0E0A6804F1B0
:104F10003000C2F38462AA4050F80C5005EA0E0536
:104F20002A4340F80C20A268520742D5A2680A68BA
:104F3000A068C607154614D4CF68BA48D4F8B06044
:104F400007F0180C20FA0CF0C2F3120E104026EAFB
:104F50000E0C40EA0C00C4F8B000B348874200F0E1
:104F60009280B24A154219D0B149B2488A68854246
:104F700002F0E07665D0B048854200F0D680AF48B8
:104F800085420BD1520209D4AD4A944206D18A68B7
:104F900022F0E072324342F480028A60002003E093
:104FA0005A6D42F020025A65002283F8502003B067
:104FB000F0BDA0680A680707BAD4D00D00F004005D
:104FC00004F11405C2F3045C8E682A58072707FA17
:104FD0000CF706FA0CF622EA070232432A50D1E90E
:104FE0000452042DE06800F0EA8004F16006C0F38A
:104FF000C100400056F825C0924F824008680CEA74
:10500000070700F0F8403843024342F0004246F8F8
:1050100025200A688CE70238032803D96FF4F86E5C
:10502000062573E7884A52F820504FF01F0EAA0950
:1050300005F01F050EFA05FE02F00C0C6FEA0E0ECD
:1050400064E71502AAD47E4A9442A7D18A687F48B1
:1050500022F0E072324342F400028A6002687C4926
:105060009209A1FB02129209013202EB4202920064
:105070000192019A002A91D0019A013A0192019A73
:10508000002AF9D18AE7BEF1000F5DD092FAA2F0B2
:1050900000286DD0B0FA80F0013000F01F00092820
:1050A00066D992FAA2F0002800F04781B0FA80F0A9
:1050B0000130800600F0F84092FAA2F5002D00F0D1
:1050C0003A81B5FA85F5013505F01F05012606FA86
:1050D00005F5284392FAA2F2002A00F02A81B2FADA
:1050E00082F2551C05F01F0503226FF01D0612FB0E
:1050F0000562120542F000720243D60D886804F181
:10510000140506F00406C2F3045200FA02F74FF049
:10511000070CA8590CFA02F220EA02023A43AA51FB
:105120000D681EE7022003B0F0BDD0013FF536AF99
:10513000434A94427FF432AF8A6822F0E0723243ED
:1051400042F080728A6029E7920E013202F01F0657
:10515000920602F0F8450122B240092E45EA02000B
:1051600006EB460229D91E3A120542F00072C3E747
:1051700092FAA2F0002800F0E880B0FA80F0013046
:10518000800600F0F84092FAA2F5002D00F0DB80D6
:10519000B5FA85F5013505F01F05012606FA05F576
:1051A000284392FAA2F2002A00F0CA80B2FA82F2F0
:1051B000013202F01F0202EB420212059CE70A686C
:1051C000206E206EC2F31205C0F38460002D41D121
:1051D000C2F38466B04273D0606E656E04F1600005
:1051E000C5F3846504F1640CB54200F08E808568D7
:1051F000856800F10807C5F38465C2F38466AE4292
:1052000072D0C568C56800F10C06C5F38460C2F3AE
:10521000846585427FF48CAE326822F000423260B1
:105220000A6885E6FFFF070000007F400000088055
:1052300000030450000052C7000084CB010000802E
:105240000000045000F0FF03202B010800000020A4
:10525000632D3E0592FAA2F51DB1B5FA85F5A84277
:105260002ED0606E656E04F16000C5F3846504F1B4
:10527000640C92FAA2F600F10807BE46002E6CD02C
:10528000B6FA86F6AE4242D03D683D68C5F3846505
:1052900092FAA2FC00F10C06B646BCF1000F57D002
:1052A000BCFA8CFCAC4521D030683068C0F3846017
:1052B00092FAA2F5002D3FF43BAEB5FA85F5A8E7CA
:1052C000226E204622F0004240F8602F626E0A688B
:1052D000656EC2F3120604F1640CC5F38465002EFA
:1052E000C7D1C2F384667FE700F10C0E3A6822F062
:1052F00000423A60C2680A68C068C2F31205764686
:10530000C0F38460002D82D0D2E700F1080EDCF8F3
:10531000002022F00042CCF8002082680A688568EC
:10532000C2F312067746C5F38465002E3FF465AFDD
:10533000AEE70C4AE0E60225CBE64FF08060BBE624
:105340004FF44012D8E602252AE74FF080601AE7B2
:10535000C568C068C0F38460AAE785688568C5F33E
:10536000846595E7000050FE03689A6812F0040F08
:1053700070B59A68044601D116073CD5DA689501E4
:1053800004D5208B40F20112904245D002299A6840
:1053900033D0500702D59A68920759D5012955D0C4
:1053A0009A6810070AD59A68920707D49A6822F07B
:1053B000004222F03F0242F020029A60032945D1C8
:1053C0000C25FEF72FF8236806469B681D4212D075
:1053D000FEF728F8801B05282368F6D99A682A4228
:1053E000F3D0636D43F010036365A36D43F00103D5
:1053F000A365012070BD002070BD16070AD59A680C
:10540000950707D49A6822F0004222F03F0242F04A
:1054100020029A600825D4E71A68500606D4114A7B
:1054200001E0013ADDD019684906FAD540221A6038
:105430009A6856070AD59A68950707D49A6822F0A1
:10544000004222F03F0242F010029A600425B8E7C1
:105450009A6822F0004222F03F0242F010029A6065
:105460009CE700BF000040A370B582B00022036833
:1054700001929A68D2072CD49968284A11420446AE
:105480002AD19A68264922F0004222F03F0242F0D7
:1054900001029A608B681B0229D4FDF7C3FF2368C1
:1054A0001A68D607054614D41E4E9A68D00704D44D
:1054B0009A68324042F001029A60FDF7B3FF431B45
:1054C000022B236802D91A68D10705D51A68D207BA
:1054D000EBD5002002B070BD636D43F0100363652F
:1054E000A36D012043F00103A36502B070BD0E4B14
:1054F0000E4A1B689B09A2FB03239B09013303EBA4
:1055000043039B000193019B002BC6D0019B013BF1
:105510000193019B002BF9D1BFE700BF3F00008042
:1055200000030450C0FFFF7F00000020632D3E05F4
:1055300038B503689D6815F0040533D190F85030F4
:10554000012B04462ED0012380F85030FFF78CFF4A
:1055500050BB636D23F4706323F0010343F4807345
:105560006365636DDA0448BFA36D226852BFA0650E
:1055700023F00603A3651C210023116084F850303A
:10558000D3689B0105D5636D23F4405343F48053E6
:105590006365936823F0004323F03F0343F0040363
:1055A000936038BD022038BD84F8505038BD00BF2C
:1055B00038B503689A68950702D59B68002038BD06
:1055C0009A68D407FAD59A6802F00D02012A0446B7
:1055D00009D0636D43F010036365A36D43F00103CD
:1055E000A365012038BD9A6822F0004222F03F02F4
:1055F000032142F002029A601960FDF713FF23684D
:105600009B68D907054603D4D8E79B68DB07D5D547
:10561000FDF708FF401B02282368F6D99A68D207D5
:10562000F3D5D6E790F85030012B1DD0012310B5EB
:10563000032180F850300446FFF796FE18B100238E
:1056400084F8503010BD2046FFF7B2FF0028F6D195
:10565000636D23F4885323F0010343F00103636572
:10566000002384F8503010BD02207047026852E8D1
:10567000003F23F4907342E800310029F7D102F192
:10568000080353E8003F23F0010302F1080C4CE843
:1056900000310029F3D1036E012B06D00023202214
:1056A000C0F8802083660366704752E8003F23F00D
:1056B000100342E800310029F0D052E8003F23F007
:1056C000100342E800310029EFD1E7E72DE9F84364
:1056D0000446C06F202852D1884609B1164612B937
:1056E0000120BDE8F8831F464FF000092123C4F8CC
:1056F0008490E367FDF796FEA368A4F85060B3F5C5
:10570000805F0546A4F852603CD0B4F8522023686C
:1057100092B2C2B1DA69160604D4791C20D1DA69D2
:105720001206FCD5B8F1000F23D018F8012B1A850A
:10573000B4F85220013A92B2A4F85220B4F85220A0
:1057400092B2002AE6D1DA69520604D4781C1FD13D
:10575000DA695106FCD52023E3670020BDE8F88311
:10576000FDF760FE401B87421BD3D7B123681A6840
:10577000D0E739F8022BC2F308021A85D8E70220D5
:10578000BDE8F8832369002BBFD1C1469846BCE72A
:10579000FDF748FE431B9F4203D317B123681A68E5
:1057A000D1E72023E3670320BDE8F88338B504463A
:1057B0000268836800696169156803430B43E06907
:1057C0006449034329400B4313605368E16823F4A1
:1057D00040530B43604953608A42A36991682FD0BC
:1057E000256A21F430612B430B435C4993608A4264
:1057F00012D15B4BD3F8883003F00303022B58D04F
:10580000032B42D0012B59D0B0F5004F7ED0FEF7CC
:1058100091FA00284BD03DE0524B9A4230D103F52B
:10582000E633D3F8883003F00C030C2B28D8DFE8DC
:1058300003F06527272745272727402727272C0000
:1058400021F430610B4346489360D0F8883003F46C
:105850004063B3F5006F39D005D8002B38D0FDF781
:105860003FFE28B923E0B3F5406F09D14FF4004063
:10587000626802EB4203834202D8B0EB023F2CD9AC
:1058800001200023C4E91A3338BDB0F5004F5ED0C3
:105890004FF4004063684FF6EF7200EB5300B0FB2B
:1058A000F3F0A0F110039342EAD82368D8600020F7
:1058B000E7E7B0F5004F48D02B48EBE7B0F5004FD5
:1058C0003DD0FDF70DFE0028F1D0E3E72648CFE7F5
:1058D000FEF71EFA0028CBD1E9E7510800238C46D9
:1058E0004FF480751946E0FB05C16046FBF7DCF913
:1058F0001E4BA0F540729A42C2D8D6E7B0F5004FD1
:1059000020D0FEF705FA0028D1D0C3E7FEF712FA3F
:105910000028CCD0430062684FF6EF7103EB5203CE
:10592000B3FBF2F3A3F110028A42A9D823F00F02CD
:10593000216892B2C3F342031343CB60B7E7FDF78C
:10594000CFFDE5E7FEF7E4F9E2E7094BE3E74FF4C3
:105950008033E0E7F369FFEF00800040003801404A
:1059600000100240004400400024F400FFFC0F003F
:105970000048E801436A1A0710B406D50168446B71
:105980004A6822F4004222434A60DC0706D50168D7
:10599000846A4A6822F4003222434A60990706D595
:1059A0000168C46A4A6822F4803222434A605A0776
:1059B00006D50168046B4A6822F4802222434A60BB
:1059C000DC0606D50168846B8A6822F48052224383
:1059D0008A60990606D50168C46B8A6822F4005271
:1059E00022438A605A0609D50168046C4A6822F489
:1059F00080122243B4F5801F4A600BD01B0606D5E7
:105A00000268816C536823F400230B4353605DF8F4
:105A1000044B70474A68446C22F4C00222434A6037
:105A2000ECE700BF2DE9F843089F0C4601680646E5
:105A300015469846CA6934EA02020CBF01220022C8
:105A4000AA4209D1781C0BD1CB6934EA03030CBFFD
:105A500001230023AB42F7D000231846BDE8F883AA
:105A6000FDF7E0FCA0EB0800B8421AD8CFB13168CE
:105A70000B685A07DED5802CDCD0402CDAD0CB69FD
:105A800013F008090FD1CA691305D3D54FF400628A
:105A90000A623046FFF7EAFD2022C6F8842086F825
:105AA00078900323D9E708240C623046FFF7DEFD27
:105AB00000220123C6F8844086F87820CDE700BF95
:105AC0002DE9F0470446D0F88000202882B04AD162
:105AD0000D4609B117461AB9012002B0BDE8F0879A
