:020000040800F2
:1000000000C00020B19400080D9100080F91000875
:1000100011910008139100081591000800000000DC
:1000200000000000000000000000000091850008B2
:10003000179100080000000021860008858600084E
:100040004195000841950008419500084195000838
:10005000419500084195000841950008319100083C
:1000600041950008379100083D910008419500082E
:100070004195000841950008419500084195000808
:1000800041950008419500084195000841950008F8
:1000900041950008419500084195000841950008E8
:1000A00041950008419500084195000841950008D8
:1000B0004195000800000000000000004195000884
:1000C0004195000800000000000000004195000874
:1000D0000000000041950008419500080000000064
:1000E0004195000841950008000000000000000054
:1000F0000000000000000000000000000000000000
:100100000000000000000000000000004195000811
:10011000000000000000000041950008199100084F
:100120004195000841950008419500084195000857
:1001300041950008000000000000000000000000E1
:100140004195000841950008419500082591000857
:100150004195000841950008419500084195000827
:1001600041950008419500084195000800000000F5
:1001700041950008419500080000000000000000C3
:1001800041950008419500084195000800000000D5
:1001900010B5054C237833B9044B13B10448AFF3C1
:1001A00000800123237010BD280300200000000000
:1001B000042F010808B5034B1BB103490348AFF3F3
:1001C000008008BD000000002C030020042F01085F
:1001D00010F8012B11F8013B012A28BF9A42F7D0F1
:1001E000D01A70470000000000000000000000006E
:1001F00001F0FF01102A2BDB10F0070F08D010F8D8
:10020000013B013A8B422DD010F0070F42B3F6D1DB
:10021000F0B441EA012141EA014122F007047FF0F4
:1002200000070023F0E80256083C85EA010586EA4B
:10023000010685FA47F5A3FA87F586FA47F6A5FA87
:1002400087F68EB9EED1F0BC01F0FF0102F0070293
:1002500032B110F8013B013A83EA010313B1F8D13E
:100260000020704701387047002D06BF354603381F
:10027000073815F0010F07D1013015F4807F02BF58
:10028000013015F4C03F0130F0BC0138704700BFA9
:10029000034613F8012B002AFBD1181A01387047C6
:1002A00081F0004102E000BF83F0004330B54FEA27
:1002B00041044FEA430594EA050F08BF90EA020F94
:1002C0001FBF54EA000C55EA020C7FEA645C7FEA27
:1002D000655C00F0E2804FEA5454D4EB5555B8BF4A
:1002E0006D420CDD2C4480EA020281EA030382EABB
:1002F000000083EA010180EA020281EA0303362D4D
:1003000088BF30BD11F0004F4FEA01314FF4801C1F
:100310004CEA113102D0404261EB410113F0004F31
:100320004FEA03334CEA133302D0524263EB4303E8
:1003300094EA050F00F0A780A4F10104D5F1200E86
:100340000DDB02FA0EFC22FA05F2801841F10001E1
:1003500003FA0EF2801843FA05F359410EE0A5F1B5
:1003600020050EF1200E012A03FA0EFC28BF4CF0E6
:10037000020C43FA05F3C01851EBE37101F000459C
:1003800007D54FF0000EDCF1000C7EEB00006EEBA9
:100390000101B1F5801F1BD3B1F5001F0CD3490833
:1003A0005FEA30004FEA3C0C04F101044FEA44528A
:1003B00012F5800F80F09A80BCF1004F08BF5FEA11
:1003C000500C50F1000041EB045141EA050130BDF1
:1003D0005FEA4C0C404141EB0101013C28BFB1F503
:1003E000801FE9D291F0000F04BF01460020B1FA4E
:1003F00081F308BF2033A3F10B03B3F120020CDA21
:100400000C3208DD02F1140CC2F10C0201FA0CF0FE
:1004100021FA02F10CE002F11402D8BFC2F1200C63
:1004200001FA02F120FA0CFCDCBF41EA0C01904019
:10043000E41AA2BF01EB0451294330BD6FEA040462
:100440001F3C1CDA0C340EDC04F11404C4F120024D
:1004500020FA04F001FA02F340EA030021FA04F35F
:1004600045EA030130BDC4F10C04C4F1200220FAB6
:1004700002F001FA04F340EA0300294630BD21FAF4
:1004800004F0294630BD94F0000F83F4801306BFBA
:1004900081F480110134013D4EE77FEA645C18BFAE
:1004A0007FEA655C29D094EA050F08BF90EA020F45
:1004B00005D054EA000C04BF1946104630BD91EA3D
:1004C000030F1EBF0021002030BD5FEA545C05D140
:1004D0004000494128BF41F0004130BD14F580047F
:1004E0003CBF01F5801130BD01F0004545F0FE41F3
:1004F00041F470014FF0000030BD7FEA645C1ABF28
:10050000194610467FEA655C1CBF0B46024650EA5E
:10051000013406BF52EA033591EA030F41F400218A
:1005200030BD00BF90F0000F04BF0021704730B510
:100530004FF4806404F132044FF000054FF00001E5
:1005400050E700BF90F0000F04BF0021704730B5A6
:100550004FF4806404F1320410F0004548BF40427B
:100560004FF000013EE700BF42004FEAE2014FEAD0
:1005700031014FEA02701FBF12F07F4393F07F4FAB
:1005800081F06051704732F07F4208BF704793F0AE
:100590007F4F04BF41F40021704730B54FF46074C1
:1005A00001F0004521F000411CE700BF50EA0102C4
:1005B00008BF704730B54FF000050AE050EA01026D
:1005C00008BF704730B511F0004502D5404261EBDD
:1005D00041014FF4806404F132045FEA915C3FF41E
:1005E000D8AE4FF003025FEADC0C18BF03325FEABB
:1005F000DC0C18BF033202EBDC02C2F1200300FA6C
:1006000003FC20FA02F001FA03FE40EA0E0021FA90
:1006100002F11444BDE600BF70B54FF0FF0C4CF47E
:10062000E06C1CEA11541DBF1CEA135594EA0C0F30
:1006300095EA0C0F00F0DEF82C4481EA030621EA6B
:100640004C5123EA4C5350EA013518BF52EA0335A6
:1006500041F4801143F4801338D0A0FB02CE4FF058
:100660000005E1FB02E506F00042E0FB03E54FF088
:100670000006E1FB03569CF0000F18BF4EF0010E80
:10068000A4F1FF04B6F5007F64F5407404D25FEA7C
:100690004E0E6D4146EB060642EAC62141EA55512F
:1006A0004FEAC52040EA5E504FEACE2EB4F1FD0C71
:1006B00088BFBCF5E06F1ED8BEF1004F08BF5FEAEF
:1006C000500E50F1000041EB045170BD06F00046A1
:1006D00046EA010140EA020081EA0301B4EB5C044E
:1006E000C2BFD4EB0C0541EA045170BD41F4801146
:1006F0004FF0000E013C00F3AB8014F1360FDEBF6B
:10070000002001F0004170BDC4F10004203C35DA46
:100710000C341BDC04F11404C4F1200500FA05F3C9
:1007200020FA04F001FA05F240EA020001F000426A
:1007300021F0004110EBD37021FA04F642EB0601E0
:100740005EEA430E08BF20EAD37070BDC4F10C040A
:10075000C4F1200500FA04F320FA05F001FA04F2CE
:1007600040EA020001F0004110EBD37041F10001BA
:100770005EEA430E08BF20EAD37070BDC4F12005C5
:1007800000FA05F24EEA020E20FA04F301FA05F22D
:1007900043EA020321FA04F001F0004121FA04F2D5
:1007A00020EA020000EBD3705EEA430E08BF20EAA5
:1007B000D37070BD94F0000F0FD101F000464000DF
:1007C00041EB010111F4801F08BF013CF7D041EA61
:1007D000060195F0000F18BF704703F00046520065
:1007E00043EB030313F4801F08BF013DF7D043EA36
:1007F0000603704794EA0C0F0CEA135518BF95EAEC
:100800000C0F0CD050EA410618BF52EA4306D1D172
:1008100081EA030101F000414FF0000070BD50EA91
:10082000410606BF1046194652EA430619D094EA1B
:100830000C0F02D150EA013613D195EA0C0F05D105
:1008400052EA03361CBF104619460AD181EA030159
:1008500001F0004141F0FE4141F470014FF0000011
:1008600070BD41F0FE4141F4780170BD70B54FF0AC
:10087000FF0C4CF4E06C1CEA11541DBF1CEA13552C
:1008800094EA0C0F95EA0C0F00F0A7F8A4EB05040E
:1008900081EA030E52EA03354FEA013100F0888005
:1008A0004FEA03334FF0805545EA131343EA1263CE
:1008B0004FEA022245EA111545EA10654FEA002683
:1008C0000EF000419D4208BF964244F1FD0404F53C
:1008D000407402D25B084FEA3202B61A65EB030598
:1008E0005B084FEA32024FF480104FF4002CB6EB55
:1008F000020E75EB030E22BFB61A754640EA0C00D5
:100900005B084FEA3202B6EB020E75EB030E22BF14
:10091000B61A754640EA5C005B084FEA3202B6EB55
:10092000020E75EB030E22BFB61A754640EA9C0014
:100930005B084FEA3202B6EB020E75EB030E22BFE4
:10094000B61A754640EADC0055EA060E18D04FEAA2
:10095000051545EA16754FEA06164FEAC30343EA42
:1009600052734FEAC2025FEA1C1CC0D111F4801F0F
:100970000BD141EA00014FF000004FF0004CB6E708
:1009800011F4801F04BF01430020B4F1FD0C88BFA7
:10099000BCF5E06F3FF6AFAEB5EB030C04BFB6EBB2
:1009A000020C5FEA500C50F1000041EB045170BDA5
:1009B0000EF0004E4EEA113114EB5C04C2BFD4EBD2
:1009C0000C0541EA045170BD41F480114FF0000E56
:1009D000013C90E645EA060E8DE60CEA135594EAD2
:1009E0000C0F08BF95EA0C0F3FF43BAF94EA0C0FD5
:1009F0000AD150EA01347FF434AF95EA0C0F7FF44A
:100A000025AF104619462CE795EA0C0F06D152EA9D
:100A100003353FF4FDAE1046194622E750EA410681
:100A200018BF52EA43067FF4C5AE50EA41047FF492
:100A30000DAF52EA43057FF4EBAE12E74FF0FF3CF7
:100A400006E000BF4FF0010C02E000BF4FF0010CC8
:100A50004DF804CD4FEA410C7FEA6C5C4FEA430C41
:100A600018BF7FEA6C5C1BD001B050EA410C0CBF90
:100A700052EA430C91EA030F02BF90EA020F0020F2
:100A8000704710F1000F91EA030F58BF994208BF59
:100A900090422CBFD8176FEAE37040F00100704716
:100AA0004FEA410C7FEA6C5C02D150EA013C07D16D
:100AB0004FEA430C7FEA6C5CD6D152EA033CD3D0B8
:100AC0005DF8040B704700BF8446104662468C46B2
:100AD0001946634600E000BF01B5FFF7B7FF0028E5
:100AE00048BF10F1000F01BD4DF808EDFFF7F4FF0E
:100AF0000CBF012000205DF808FB00BF4DF808ED99
:100B0000FFF7EAFF34BF012000205DF808FB00BFBB
:100B10004DF808EDFFF7E0FF94BF012000205DF8DD
:100B200008FB00BF4DF808EDFFF7CEFF94BF012092
:100B300000205DF808FB00BF4DF808EDFFF7C4FF8B
:100B400034BF012000205DF808FB00BF4FEA410CD4
:100B50007FEA6C5C02D150EA013C0AD14FEA430CB7
:100B60007FEA6C5C02D152EA033C02D14FF00000F4
:100B700070474FF0010070474FEA410212F5001232
:100B800015D211D56FF47873B3EB625212D94FEAD4
:100B9000C12343F0004343EA505311F0004F23FABE
:100BA00002F018BF404270474FF00000704750EA13
:100BB000013005D111F0004008BF6FF000407047D0
:100BC0004FF00000704700BF4A0011D212F500122A
:100BD00011D20DD56FF47873B3EB62520ED44FEA95
:100BE000C12343F0004343EA505323FA02F0704715
:100BF0004FF00000704750EA013002D14FF0FF3053
:100C000070474FF0000070474FEA4102B2F1E043F5
:100C100024BFB3F5001CDCF1FE5C0DD901F0004CE3
:100C20004FEAC0024CEA5070B2F1004F40EB830033
:100C300008BF20F00100704711F0804F21D113F15F
:100C40003872BCBF01F00040704741F480114FEA98
:100C50005252C2F11802C2F1200C10FA0CF320FA21
:100C600002F018BF40F001004FEAC1234FEAD3233E
:100C700003FA0CFC40EA0C0023FA02F34FEA4303A8
:100C8000CCE77FEA625307D150EA01331EBF4FF031
:100C9000FE4040F44000704701F0004040F0FE404C
:100CA00040F40000704700BF53B94AB9002908BF9B
:100CB00000281CBF4FF0FF314FF0FF3000F0BEB9ED
:100CC000ADF1080C6DE904CE00F03CF8DDF804E06D
:100CD000DDE9022304B0704738B500220023044642
:100CE0000D46FFF70BFF28B920462946BDE83840DE
:100CF00000F00AB8204605F1004100F005F8404236
:100D000061EB410138BD00BFD0B50C4B0022064657
:100D10000F46FFF781FCFFF757FF0446FFF702FC81
:100D2000074B0022FFF778FC02460B463046394657
:100D3000FFF7BAFAFFF748FF2146D0BD0000F03DAB
:100D40000000F0412DE9F047089D8E460446884694
:100D5000002B4AD18A42174662D9B2FA82F64EB1C6
:100D6000C6F1200301FA06F820FA03F3B74043EA7C
:100D70000808B4404FEA174E1FFA87FCB8FBFEF193
:100D8000230C0EFB118843EA084301FB0CF29A4244
:100D900009D9FB1801F1FF3080F0EA809A4240F255
:100DA000E78002393B449A1AA3B2B2FBFEF00EFB75
:100DB000102243EA024300FB0CFC9C4509D9FB18B6
:100DC00000F1FF3280F0D6809C4540F2D3803B4456
:100DD000023840EA0140A3EB0C0300211DB1F340AF
:100DE0000022C5E90032BDE8F0878B4205D90DB17C
:100DF000C5E9000100210846F5E7B3FA83F10029AF
:100E000046D1734502D3824200F20581841A6EEB0B
:100E1000030201209046002DE5D0C5E90048E2E735
:100E2000002A00F09080B2FA82F6002E40F0A480F2
:100E30008A1A030C4FEA174E80B2BCB20121B2FBF2
:100E4000FEFC0EFB1C2243EA024304FB0CF29A4216
:100E500007D9FB180CF1FF3802D29A4200F2E08069
:100E6000C4469B1AB3FBFEF20EFB123340EA034367
:100E700002FB04F49C4207D9FB1802F1FF3002D2B6
:100E80009C4200F2CA8002461B1B42EA0C40A5E7C6
:100E9000C1F120068B4022FA06F71F430EFA01F437
:100EA00020FA06F32EFA06FE4FEA1749234300FA0A
:100EB00001F81FFA87FCBEFBF9F01C0C09FB10EED1
:100EC00044EA0E4400FB0CFEA64502FA01F209D9E1
:100ED0003C1900F1FF3A80F09C80A64540F29980D1
:100EE00002383C44A4EB0E041FFA83FEB4FBF9F372
:100EF00009FB13444EEA044403FB0CFCA44508D947
:100F00003C1903F1FF3E80F08280A4457FD9023B6B
:100F10003C4443EA0040A4EB0C04A0FB02EC644513
:100F20007346E14662D35FD05DB1B8EB030264EB78
:100F3000090404FA06F622FA01F31E43CC40C5E97F
:100F4000006400214FE7B1FBF2FC010C41EA0E41C5
:100F500080B240EA01423B4638463C46B846BE466F
:100F60002026B1FBF7F1A2EB080241EA0C4166E74B
:100F7000014618E710462CE7C6F120022EFA02F3CC
:100F8000B740B14020FA02F24FEA174E0A43B3FBD2
:100F9000FEF8BCB20EFB1833110C41EA034108FB0A
:100FA00004F9B04089454FEA104380B23ED9791820
:100FB00008F1FF3C01D289451FD8A1EB0901B1FB23
:100FC000FEF909FB04F80EFB191192B242EA014244
:100FD000424529D2BA1809F1FF31C4D24245C2D2E2
:100FE000A9F102013A44BEE7F0459DD2BEEB0203EF
:100FF0006CEB070C0138E14696E7A7EB0909494479
:10100000A8F1020CB1FBFEF909FB04F8DBE773461B
:101010007FE7504666E70846FDE63B44023A33E781
:10102000ACF1020C3B441CE749469CE7A1EB0901EB
:10103000C446B1FBFEF909FB04F8C4E7704700BFE2
:10104000034AD2F8883043F47003C2F888307047FE
:1010500000ED00E0036A026A22F0010270B502624C
:10106000426884690D6824F4803424F073042C43AE
:101070008D6823F002032B430E4DA84207D005F5DF
:10108000A055A84203D005F58065A8420BD1CD68D4
:1010900023F008032B43D1E9055622F4407235436F
:1010A00023F004032A4342604A6884614263036276
:1010B00070BD00BF002C0140036A026A22F48072F6
:1010C00070B502624268C4690D6824F4803424F06B
:1010D00073042C438D6823F4007343EA05230F4DFA
:1010E000A8420ED1CD6823F4006343EA052323F41C
:1010F0008063D1E9055622F44052354342EA051295
:1011000006E0074DA842F4D005F58065A842F0D06E
:1011100042604A68C461C263036270BD002C014032
:1011200000400140026A036A23F4805330B5036231
:101130004468C3690D6823F0807323F4E64343EAEF
:1011400005238D6822F4005242EA05320A4DA84276
:1011500007D005F5A055A84203D005F58065A84243
:1011600004D14D6924F4804444EA85144460C36189
:101170004B680364026230BD002C0140026A036ABE
:1011800023F4803330B503624468436D0D6823F463
:10119000803323F070032B438D6822F4003242EA3F
:1011A00005420B4DA84207D005F5A055A84203D033
:1011B00005F58065A84204D14D6924F4803444EAE1
:1011C0000524446043654B688365026230BD00BFFF
:1011D000002C0140026A036A23F4801330B50362D5
:1011E0004468436D0D6823F0807323F4E04343EAC1
:1011F00005238D6822F4001242EA05520A4DA842E6
:1012000007D005F5A055A84203D005F58065A84292
:1012100004D14D6924F4802444EA85244460436564
:101220004B68C365026230BD002C0140704700006E
:1012300090F83D30012B1FD1022380F83D30036828
:10124000DA6842F00102DA600C4A934206D0B3F148
:10125000804F03D002F5A052934207D19968084A03
:101260000A40062A06D0B2F5803F03D01A6842F041
:1012700001021A600020704701207047002C0140D5
:10128000070001007047704770477047036870B5EA
:10129000DD681E69B20704460DD5A9070BD56FF0AE
:1012A00002021A61012202779B699A0775D0FFF743
:1012B000EAFF00232377730710D568070ED523684C
:1012C0006FF004021A61022222779B6913F4407FB7
:1012D000204668D0FFF7D7FF0023237731070FD5CB
:1012E0002A070DD523686FF008021A6104222277BD
:1012F000DB699B0720465CD0FFF7C5FF00232377FF
:10130000F10610D5EA060ED523686FF010021A61B7
:1013100008222277DB6913F4407F20464FD0FFF785
:10132000B2FF00232377F30708D5E80706D5236823
:101330006FF001021A61204607F0C6FE16F4025F44
:1013400008D0290606D523686FF402521A61204698
:1013500000F091FAF20508D52B0606D523686FF444
:1013600080721A61204600F087FA700608D5690677
:1013700006D523686FF040021A612046FFF785FF0B
:10138000B20622D5AB0620D523686FF02002204696
:101390001A61BDE8704000F06DBAFFF773FF204698
:1013A000FFF772FF85E7FFF76DFF2046FFF76CFF41
:1013B00092E7FFF767FF2046FFF766FF9EE7FFF71C
:1013C00061FF2046FFF760FFABE770BD1B4A036873
:1013D00090420BD0B0F1804F08D002F5A05290425D
:1013E00009D1CA6823F44073134307E04A6823F025
:1013F00070031343F5E7124A9042F2D04A6923F092
:101400008003134303608B68C3620B6883620B4BDA
:10141000984207D003F5A053984203D003F58063A8
:10142000984201D10B690363012343610369DB0720
:1014300042BF036923F0010303617047002C0140A0
:101440000044014010B5044650B390F83D3003F01D
:10145000FF021BB980F83C20FFF7E8FE022320685A
:1014600084F83D30211DFFF7B1FF012384F8483097
:10147000002084F83E3084F83F3084F8403084F80F
:10148000413084F8423084F8433084F8443084F8A2
:10149000453084F8463084F8473084F83D3010BD3C
:1014A0000120FCE710B5044650B390F83D3003F03E
:1014B000FF021BB980F83C2007F0D4FE022320680D
:1014C00084F83D30211DFFF781FF012384F8483067
:1014D000002084F83E3084F83F3084F8403084F8AF
:1014E000413084F8423084F8433084F8443084F842
:1014F000453084F8463084F8473084F83D3010BDDC
:101500000120FCE7036A026A22F0100270B5026251
:10151000426884690D6824F0807424F4E64444EA47
:1015200005248D6823F0200343EA05130F4DA842DC
:101530000ED1CD6823F0800343EA051323F0400366
:10154000D1E9055622F44062354342EA850206E0BD
:10155000074DA842F4D005F58065A842F0D042605E
:101560004A6884618263036270BD00BF002C014041
:101570000040014038B590F83C30012B044673D050
:1015800001200C2A84F83C004ED008D8042A2BD025
:10159000082A39D0BAB1002384F83C3038BD102A6B
:1015A00052D0142AF7D12068FFF714FE436D0A6960
:1015B00043F400634365436D23F480634365436DE7
:1015C00043EA02234EE02068FFF744FD83690A697D
:1015D00043F008038361836923F004038361836913
:1015E000134383610020D6E72068FFF78BFF8369F0
:1015F0000A6943F400638361836923F48063836130
:10160000836943EA0223ECE72068FFF755FDC369CD
:101610000A6943F00803C361C36923F00403C3618B
:10162000C3691343C361DDE72068FFF77BFDC3692E
:101630000A6943F40063C361C36923F48063C3612F
:10164000C36943EA0223EDE72068FFF797FD436D86
:101650000A6943F008034365436D23F004034365BF
:10166000436D13434365BDE7022097E7036A10B556
:1016700001F01F0101248C4023EA04030362036A82
:101680008A401A43026210BD082908B518D005D84F
:1016900059B1042911D090F8433008E00C2912D038
:1016A0001029F8D190F8423001E090F83E30013B2B
:1016B00018BF012353B101203EE090F83F30F6E718
:1016C00090F84030F3E790F84130F0E708294FF008
:1016D000020335D006D861B104292ED0022380F848
:1016E000433008E00C292ED01029F7D180F8423081
:1016F00001E080F83E3000680122FFF7B7FF174A8B
:10170000904206D0164B984203D003F5806398426E
:1017100020D1436C904243F40043436416D1826865
:10172000104B1340062B06D0B3F5803F03D003685F
:1017300043F001030360002008BD80F83F30DAE782
:1017400080F84030D7E780F84130D4E7044B984226
:10175000EDD1E4E7B0F1804FFAE700BF002C014083
:101760000040014007000100FFF78EBF38B500229E
:10177000044600680D46FFF779FF234B984207D0D7
:1017800003F5A053984203D003F5806398420DD12E
:10179000026A41F211131A4208D1026A40F244432C
:1017A0001A4202BF436C23F400434364026A41F2CD
:1017B00011131A4208D1026A40F244431A4202BF8E
:1017C000036823F001030360082D4FF0010315D0D7
:1017D00006D865B1042D0ED0012384F8433008E00B
:1017E0000C2D0ED0102DF7D184F8423001E084F892
:1017F0003E30002038BD84F83F30FAE784F84030AE
:10180000F7E784F84130F4E7002C0140FFF7AEBF62
:1018100070B590F83C30012B04464FF0020023D005
:101820002268124D84F83D0053689068AA4202BFB6
:101830004E6823F4700333430E6823F07003334380
:10184000AA42536005D0B2F1804F02D0084B9A42B1
:1018500004D1896820F080030B43936001230020AA
:1018600084F83D3084F83C0070BD00BF002C01407E
:1018700000400140704770477047F8B50446E0B13A
:1018800090F8913203F0FF021BB980F8902206F025
:10189000F5FF032384F8913225460023637155F840
:1018A000040B00F0BEFE95E80E00206800F0A9FED3
:1018B000014628B1022384F8913201252846F8BD5B
:1018C000206800F0B8FE0028F4D1267904F1100356
:1018D00002460127C1B28E4203F128031ED800211F
:1018E00004F5A8730A46C8B2864203F1280321D83A
:1018F00095E80E00206800F0A0FE05460028D9D12A
:101900000123607384F89132E37A012B02D12046DF
:1019100000F061FE206801F0AEF9CFE743E906224E
:1019200003F8277C03F8281C03F8252C43F8102C17
:101930000130CFE743E9062203F8272C03F8280CEF
:1019400003F8252C43F8102C0131CCE710B590F8A2
:101950009032012B04460CD0012380F890320068AD
:1019600000F056FE206801F07BF9002084F8900218
:1019700010BD0220FCE710B590F89022012A044621
:101980000AD0012280F890224173006801F062F9C8
:10199000002084F8900210BD0220FCE72DE9F84FEA
:1019A0000446006801F06FF910F4004500F021844E
:1019B000DFF8A4994FF028082068B0F844301A04E2
:1019C00001D4BDE8F88FB0F84450A9B215F00F0566
:1019D00040F0968011F0100126D103889BB203EAF3
:1019E000090343F400430380B0F85030227C00F236
:1019F000024010FA83F3204633F83230626AC3F3B0
:101A000009031A44E362626206F067FF637B002BFE
:101A1000D2D0A26A2168002ACED1637B43F0800332
:101A2000A1F84C306273C7E70588ABB215F40065C6
:101A300020D0B0F8503094F8502100F2064111FA4D
:101A400083F304F5267133F83230B4F85621C3F32A
:101A50000903C4F86C3101F0ABFA2268138823F053
:101A600070031B051B0D43F080031380204606F016
:101A700025FFA1E71E049FD5038823F070031B05F3
:101A80001B0D43F080030380B0F8503094F85021D0
:101A900000F2064111FA83F333F83230C3F309033D
:101AA000C4F86C318BB1D4F8641171B1B4F856211B
:101AB00001F07EFAD4F86431D4F86C211344C4F8F0
:101AC00064312946204606F0FFFE226811888BB259
:101AD00009053FF571AF03F44053B3F5405F3FF4A0
:101AE0006BAF138823F4804323F070031B041B0C9B
:101AF00083F4405343F4004343F0800313805BE7D7
:101B00002EB230F826301A049FB240F1ED8030F842
:101B1000263023F070031B051B0D43F0800320F8D3
:101B2000263008FB054191F85C31BBB9B0F8503064
:101B300091F8502100F2064C1CFA83F333F832A0DE
:101B4000CAF3090ABAF1000F00F0B480B1F85621C7
:101B50005346D1F8641101F02BFAABE091F8533100
:101B600091F85021022B40F08380B0F850E0D1F87A
:101B700068314FEAC20A1AFA8EFE17F4804B864487
:101B800007F0400C3AD0BEF802A4CAF3090A9A45FD
:101B900013D90023C1F8683130F8223023F4804390
:101BA00023F070031B041B0C83F4005343F4004325
:101BB00043F0800320F8223005E0A3EB0A03C1F8CC
:101BC0006831002BE8D0BCF1000F0DD030F8223086
:101BD00023F4E04323F070031B041B0C43F4004385
:101BE00043F0C00320F82230BAF1000F62D0282160
:101BF00001FB0541B1F858215346AAE7BEF806A4F7
:101C0000CAF3090A9A4512D9C1F868B130F82230EE
:101C100023F4804323F070031B041B0C83F4005354
:101C200043F4004343F0800320F8223005E0A3EBA7
:101C30000A03C1F86831002BE8D0BCF1000F0DD1C8
:101C400030F8223023F4E04323F070031B041B0C14
:101C500043F4004343F0C00320F82230BAF1000FF0
:101C600028D0282101FB0541B1F85A21534670E7DD
:101C700030F8223023F4E04323F070031B041B0CE4
:101C800043F4004343F0C00320F8223091F8502180
:101C900030F8223013F4804FB0F8503058D000F2B2
:101CA000024C1CFA83F333F832A0CAF3090ABAF1E2
:101CB000000F9FD108FB0543D3F86C215244C3F8B1
:101CC0006C21D3F864215244C3F86421D3F868210D
:101CD0001AB1D3F860319A4546D208FB0543204635
:101CE00093F8501106F0F0FD3B0620687FF564AED6
:101CF00030F826309BB203EA090343F4004320F88E
:101D0000263008FB054C9CF81330012B5FD105FBF6
:101D100008830022E2509CF81C30002B39D017F0C9
:101D200040079CF811303CD033BB9CF81020B0F831
:101D3000503000F2024010FA83F303EBC2031A881A
:101D4000C2F309021A801A8892B242F400421FE0DC
:101D500000F2064C1CFA83F333F832A0CAF3090AE6
:101D6000BAF1000FA6D07FE708FB0541206801F516
:101D7000A87100F09DFFB7E7012B0AD1B0F85030F1
:101D80009CF8101000F2024010FA83F303EBC10339
:101D90001A80282303FB0543197C204606F09DFD8D
:101DA0000AE633B9B0F850309CF8102000F2064033
:101DB000C1E7012BEDD1B0F850309CF8102000F2B3
:101DC000064010FA83F303EBC2031F80E1E706EB42
:101DD00086069CF810104FEAC60A04EBC60617F4F4
:101DE000807BB36A0A464FEAC10E1DD1B0F850207D
:101DF0001EFA82F20244B2F80224C2F309029A42A5
:101E000002D3C6F828B0C8E79B1AB362DCF82430C6
:101E10001344CCF82430F36A0AF110011344F3623E
:101E2000214400F045FFC7E517F0400AB0F850C064
:101E300007F4804700F0018100F2024E1EFA8CFC8C
:101E4000BFB23CF831C0CCF3090C9C4534BFA3EBC6
:101E50000C030023B362002B6CD1282606FB054639
:101E6000767C002E57D1B0F850601EFA86F636F810
:101E70003130C3F3090326F8313036F831306FEAD8
:101E800043436FEA53439BB226F83130B0F85060B9
:101E900000F2064313FA86F636F83130C3F309032D
:101EA00026F8313036F831306FEA43436FEA534356
:101EB0009BB226F83230282303FB0543DB7C022B40
:101EC0000FD130F8223023F4E04323F040031B0409
:101ED0001B0C83F0200343F4004343F0800320F8FD
:101EE0002230204606F0F9FC002F3FF465AD282390
:101EF00003FB05432268197C32F8213023F4E043C8
:101F000023F070031B041B0C43F4404343F0800395
:101F100022F8213050E5012ECDD1B0F850601EFAE4
:101F200086F600F2064C26F83130B0F850601CFA04
:101F300086F6BEE76FB130F8213023F4E04323F09A
:101F400070031B041B0C43F4404343F0800320F850
:101F50002130282707FB054797F83430012B45D15E
:101F6000796A61447962F36A6344F3623B6B3E6A67
:101F7000B3421AD39B1B3B63282303FB05435F7CBF
:101F8000B3B2002F50D1B0F850701EFA87F737F86F
:101F900032C0CCF3090C27F832C08EB937F8326062
:101FA0006FEA46466FEA564617E01BB987F83430A9
:101FB0006646E1E7002687F834603E631E46DBE7AD
:101FC0003E2E25D84FEA560CF60737F8326048BF48
:101FD0000CF1010CB6B246EA8C26B6B227F8326094
:101FE000282202FB0542128B00F053FE282303FB3C
:101FF00005452268297C32F8213023F4E04323F0A0
:1020000040031B041B0C83F0300343F400437DE7C3
:102010004FEA561CF60637F8326008BF0CF1FF3C59
:10202000B6B246EA8C26BBE7012F02BFB0F850607B
:102030001EFA86F626F83230D2E700F2064E1EFA75
:102040008CFCBFB23CF831C0CCF3090C9C4594BF6A
:10205000A3EB0C035346B362002B59D1282606FB91
:102060000546767C002E44D1B0F8506000F2024361
:1020700013FA86F636F83130C3F3090326F8313007
:1020800036F831306FEA43436FEA53439BB226F888
:102090003130B0F850601EFA86F636F83130C3F3AE
:1020A000090326F8313036F831306FEA43436FEADE
:1020B00053439BB226F83230282303FB0543DB7CD5
:1020C000022B0FD130F8223023F4E04323F04003F9
:1020D0001B041B0C83F0200343F4004343F08003F4
:1020E00020F82230204606F0F8FB002F7FF464AC85
:1020F000FDE6012EE0D1B0F8506000F2024C1CFA6F
:1021000086F626F83130B0F850601EFA86F6D1E730
:102110006FB930F8213023F4E04323F070031B043F
:102120001B0C43F4404343F0800320F82130282760
:1021300007FB054797F83430012B7FF457AF796AD6
:1021400061447962F36A6344F3623B6B3E6AB34273
:102150001AD39B1B3B63282303FB05435F7CB3B26D
:10216000002F3DD1B0F850701EFA87F737F832C013
:10217000CCF3090C27F832C08EB937F832606FEA19
:1021800046466FEA564617E01BB987F83430664674
:10219000E1E700263E6387F834601E46DBE73E2E0B
:1021A00012D84FEA560CF60737F8326048BF0CF1E8
:1021B000010CB6B246EA8C26B6B227F83260282265
:1021C00002FB0542528B0FE74FEA561CF60637F822
:1021D000326008BF0CF1FF3CB6B246EA8C26CEE76F
:1021E000012F02BFB0F850601EFA86F626F8323092
:1021F000E5E7430511D52268B2F8443023F4806343
:102200001B041B0C2046A2F8443006F072FB294642
:102210002046BDE8F84FFFF7AEBB47040AD5226859
:10222000B2F8443023F480431B041B0CA2F8443062
:10223000FFF7C7BB10F4005105D02268B2F8443054
:1022400023F40053F0E7C60422D52268B2F84030E8
:1022500023F004031B041B0CA2F84030B2F84030FA
:1022600023F008031B041B0CA2F8403094F8C8327A
:10227000012B04D184F8C812204606F027FC204622
:1022800006F05AFB2268B2F8443023F48053CBE7BF
:1022900005051BD52268B2F840309BB243F0080315
:1022A000A2F84030B2F8443023F400631B041B0C46
:1022B000A2F84430B2F840309BB243F00403A2F8D5
:1022C0004030204606F028FBFFF77BBB01062AD5ED
:1022D0002368B3F8442022F080021204120CA3F801
:1022E000442094F8C822002AEBD1B3F8402092B2DF
:1022F00042F00402A3F84020B3F8402092B242F02A
:1023000008020121A3F8402084F8C812B3F8543021
:10231000C3F38D0303F03C03C4F8CC322046BDE880
:10232000F84F06F0D3BB82050DD52268B2F84430D1
:1023300023F400731B041B0CA2F84430204606F063
:10234000D4FAFFF73EBBC3057FF53BAB2268B2F87A
:10235000443023F4807367E70F8FFFFF70B501F0FF
:10236000070606EB860411F0800F05464FEAC40409
:102370004FF028001DD000FB065004F1100101248D
:1023800029444474022BCB70C2F30A0204BF002319
:102390000B710E700A6195F89032012B12D0012357
:1023A000286885F8903200F05DF9002085F89002E9
:1023B00070BD00FB065004F5A8710024294480F884
:1023C0005141DFE70220F3E710B5044601F00700B2
:1023D00000EB800311F0800F4FEAC3034FF0280297
:1023E00015D002FB004203F1100101232144537474
:1023F000087094F89032012B12D00123206884F8E1
:10240000903200F0EDFA002084F8900210BD02FB3B
:10241000004203F5A8710023214482F85131E7E717
:102420000220F3E770B501F00701282606FB01043E
:10243000002584F85011C4E95923C4F86C5184F87C
:10244000515104F5A871006800F032FC284670BDB7
:1024500001F00701282303FB0100D0F86C0170474D
:10246000F8B501F00706282404FB060406EB8601F4
:1024700000EBC1076262002501223946BB621031C0
:1024800084F8342023630068FD626274267400F0CF
:102490000FFC2846F8BD38B5037901F00705AB42BB
:1024A00004462AD311F0800F4FF028001CD000FB07
:1024B000054100FB054001231031437401238B705B
:1024C0000D7094F890229A4219D0206884F89032C6
:1024D00000F059FB25B9206804F5267100F0D7FB00
:1024E000002084F8900238BD00FB01431A4603F532
:1024F000A871002382F85131E0E70120F3E70220C0
:10250000F1E738B5027901F00F039A4204462BD364
:1025100001F0070000EB800311F0800F4FEAC303C6
:102520004FF0280217D002FB004203F110010123F3
:102530002144537400258D70087094F89032012B5B
:1025400014D00123206884F8903200F03CFB84F81A
:102550009052284638BD02FB004203F5A8710023C3
:10256000214482F85131E5E70120F3E70220F1E749
:1025700010B590F89032012B044610D0012380F85A
:1025800090320B06006807D501F0070100F066F8ED
:10259000002084F8900210BD00F062F8F8E70220F5
:1025A000F9E711F0800F18BF01F0070110B54FF0E7
:1025B000280415BF04FB010004FB0100103000F5E6
:1025C000A87099B21AB90273C180002010BD01220F
:1025D00002738360F9E7034601210268C0F8D41250
:1025E000002083F8C802B2F854309BB20B43A2F823
:1025F0005430B2F854309BB243F00203A2F8543086
:10260000704784B004A800E90E00002004B07047B1
:1026100003464BF680720020A3F84400A3F8402044
:102620007047B0F8403023F47E535B045B0CA0F895
:10263000403000207047002070471FB5044604A8B2
:1026400000E90E0000200123A4F84030A4F8400067
:10265000A4F84400A4F8500004B010BD0020704756
:1026600000207047F0B50F78CE7830F8274024F47A
:10267000EC4424F07004240403463A46240C032E50
:1026800003D8DFE806F049514F4D012048F2800C95
:1026900044EA0C0423F8224033F82240DFF83CE3FC
:1026A000A4B204EA0E043C434CEA040423F822409A
:1026B0000C7B03EBC705002C40F08980CC8891F897
:1026C00001C064086400BCF1000F30D0B3F85010B2
:1026D00015FA81F1A1F8004433F822104C060AD50E
:1026E00033F8221089B201EA0E0141F4004141F0B1
:1026F000C00123F8221033F82210B64C89B2012E03
:1027000001EA040101D081F0200141F4004141F0CF
:10271000800123F8221014E144F400743046B5E738
:1027200044F4C0640020B1E744F48064FAE7B3F8ED
:102730005060096915FA86F6A6F80444B3F85040CB
:1027400015FA84F4B4F80654C5F30905A4F8065440
:1027500031B9B4F806146FEA41416FEA51410AE019
:102760003E2926D84D08C907B4F8061448BF0135DC
:1027700089B241EA852189B2A4F8061433F82210FF
:1027800049040DD533F8221021F4E04121F0700105
:102790000904090C41F4404141F0800123F8221062
:1027A00033F822108C4C89B221406FB981F440512A
:1027B000ABE74D09CE06B4F8061408BF05F1FF35A6
:1027C00089B241EA8521C6E781F400519DE7022ED6
:1027D00033F8224055D1A4B204EA0E0444F4014473
:1027E00044F0800423F82240B3F850700C8915FAA5
:1027F00087F764086400A7F80044B3F850704C8968
:1028000015FA87F764086400A7F804444C78002C94
:1028100040F0A38033F8224067040DD533F82240FE
:1028200024F4E04424F070042404240C44F44044D0
:1028300044F0800423F8224033F8224066060DD588
:1028400033F8224024F4E04424F070042404240CDF
:1028500044F4004444F0C00423F82240B3F850602C
:10286000096915FA86F6B6F80244C4F30904A6F815
:10287000024489B9B6F802446FEA44446FEA54440A
:1028800016E024F4E24424F070042404240C4CEAFE
:10289000040C23F822C0A7E73E291ED8CC07B6F8BF
:1028A00002444FEA510748BF0137A4B244EA8724E3
:1028B000A4B2A6F80244B3F8504015FA84F4B4F870
:1028C0000654C5F30905A4F8065491B9B4F80614E2
:1028D0006FEA41416FEA514116E0CC06B6F8024476
:1028E0004FEA511708BF07F1FF37A4B244EA872423
:1028F000C2E73E2926D84D08CF07B4F8061448BFD2
:10290000013589B241EA852189B2A4F8061433F869
:10291000221021F4804121F070010904090C48F2D1
:10292000800481F44051214323F8221033F822100F
:1029300021F4E04121F040010904090C0C4323F883
:102940002240F0BD4D09CE06B4F8061408BF05F1CB
:10295000FF3589B241EA8521BAE733F822104C04E9
:102960000DD533F8221021F4E04121F07001090463
:10297000090C41F4404141F0800123F8221033F862
:10298000221049060DD533F8221021F4E04121F040
:1029900070010904090C41F4004141F0C00123F821
:1029A000221033F822100B4C89B22140012E18BF9F
:1029B00081F0200141F4004141F0800123F8221010
:1029C00033F8221021F4804121F070010904090C30
:1029D0009BE600BFBF8FFFFF8FBFFFFF8F8FFFFF03
:1029E0004A780B78097BD9BB0AB330F8232051060B
:1029F0000DD530F8232022F4E04222F070021204B8
:102A0000120C42F4004242F0C00220F8232030F8B9
:102A1000232022F4E04222F040021204120C42F47D
:102A2000004242F0800220F823200020704730F856
:102A3000232052040DD530F8232022F4E04222F066
:102A400070021204120C42F4404242F0800220F85C
:102A5000232030F8232022F4804222F07002DCE7A9
:102A6000002A4AD130F8232051040DD530F8232014
:102A700022F4E04222F070021204120C42F44042AE
:102A800042F0800220F8232030F8232052060DD592
:102A900030F8232022F4E04222F070021204120CDB
:102AA00042F4004242F0C00220F8232030F82320F4
:102AB00022F4E04222F070021204120C42F40042AE
:102AC00042F0C00220F8232030F8232022F4804274
:102AD00022F070021204120C48F280010A4320F81E
:102AE000232030F8232022F4E04222F04002120496
:102AF000120C114320F8231097E730F823205104DB
:102B00000DD530F8232022F4E04222F070021204A6
:102B1000120C42F4404242F0800220F8232030F8A8
:102B2000232052060DD530F8232022F4E04222F073
:102B300070021204120C42F4004242F0C00220F86B
:102B4000232030F8232022F4E04222F07002120405
:102B5000120C42F4404242F0800220F8232030F868
:102B6000232022F4E04222F040021204120C48F228
:102B700080010A4320F8232030F8232022F48042E9
:102B800022F07002B3E74B780A788BB130F822302C
:102B900023F4E04323F040031B041B0C83F01003D9
:102BA00043F4004343F0800320F8223000207047B4
:102BB00030F8223023F4804323F070031B041B0CF5
:102BC00083F48053ECE74B780A7833B330F8223043
:102BD0005B060DD530F8223023F4E04323F0700378
:102BE0001B041B0C43F4004343F0C00320F82230C5
:102BF000CB78012B0FD030F8223023F4E04323F0C0
:102C000040031B041B0C83F0200343F4004343F0F8
:102C1000800320F822300020704730F822305B0417
:102C20000DD530F8223023F4E04323F070031B0469
:102C30001B0C43F4404343F0800320F8223030F86B
:102C4000223023F4804323F070031B041B0C83F415
:102C50004053DAE711B98023A0F84C3000207047C8
:102C6000B0F858306FEA43436FEA53439BB2A0F881
:102C7000583000207047B0F85830C3F30E03A0F866
:102C8000583000207047B0F8440080B270470020F0
:102C9000704702F58062013310445B0801EB430387
:102CA000401A8B4200D170470A880A520231F8E775
:102CB0002DE9F0474B780A7B012B05460C4640F086
:102CC0001D81D1F810A08F694969574528BF574623
:102CD00012BBBFB2E2883B46FFF7DBFFB5F85020DE
:102CE000237805F2024111FA82F202EBC302178047
:102CF000227835F8223023F4E04323F040031B040C
:102D00001B0C83F0300343F4004343F0800325F8A9
:102D100022300020BDE8F087E378266A94F800C0EE
:102D2000022B40F0D480B24530F82C2080F0B880DF
:102D300022F4E04222F070021204120C42F401422A
:102D400042F0800220F82C2030F82C80B0F850207F
:102D5000F61B18F04008266201EB0709BBB251D000
:102D600000F2064E1EFA82F222F83C306289FFF72A
:102D700090FFB2456278C4F8149036BFF31B00236D
:102D80003E462362B3B282BBB5F85020217805F2EB
:102D9000024010FA82F202EBC1021188C1F309016C
:102DA00011802EB911886FEA41416FEA51410AE062
:102DB0003E2E10D8F10711884FEA560048BF013067
:102DC00089B241EA802189B2118022894946284688
:102DD000FFF75FFF8CE711887009F70608BF00F165
:102DE000FF3089B241EA8021DDE7012AEDD1B5F853
:102DF0005020217805F2024010FA82F202EBC10263
:102E00001380E2E700F2024E1EFA82F222F83C3012
:102E10002289FFF73EFFB2456278C4F8149036BFAE
:102E2000F31B43463E462362B3B262BBB5F8502063
:102E3000217805F2064010FA82F202EBC1021188F5
:102E4000C1F3090111802EB911886FEA41416FEA7F
:102E5000514109E03E2E0BD811887008F60748BF93
:102E6000013089B241EA802189B211806289ADE7DF
:102E7000F10611884FEA561008BF00F1FF3089B201
:102E800041EA8021E1E7012AF0D1B5F8502021780C
:102E900005F2064010FA82F202EBC1021380E5E768
:102EA00022F4E24222F070021204120C42F40042B8
:102EB00042F0800220F82C20B0F8502000F20243AB
:102EC00013FA82F2B3B222F83C30228980E730F85C
:102ED0002C20F61B12F0400F2662B0F85020BBB237
:102EE00007D000F2064616FA82F222F83C306289D8
:102EF0006EE700F2024616FA82F2E4E7A2BB8A69A4
:102F0000097892B9E37883B930F8213023F4E043AB
:102F100023F070031B041B0C43F4014343F08003B4
:102F200020F821300023A36112E035F8213023F48A
:102F3000E24323F070031B041B0C43F4004343F0F3
:102F4000800325F8213023699A42EBD9D21AA26175
:102F5000227835F8223023F4804323F070031B04D9
:102F60001B0C83F44053CEE6CB78022B1CD1CB69EB
:102F7000002BEDD00A7830F8221044F2400303EA27
:102F800001008B4301D00028E2D135F8223023F430
:102F9000E04323F070031B041B0C43F4004343F095
:102FA000C00325F82230D3E7012BBBD00120B1E6C6
:102FB00002F58062F0B510445D080C462E46471AB3
:102FC0003A19023436B9DB0744BF30F8153001F83E
:102FD0001530F0BD128892B204F8022C120A04F8DF
:102FE000012C013EECE710B5032001F03BFC0F2063
:102FF00006F0B2F9044618B906F0A4F8204610BD50
:103000000124FBE7034A044B11681B780B4413604F
:10301000704700BF4403002004000020014B1868E3
:10302000704700BF4403002038B50446FFF7F6FFA1
:10303000631C1CBF054B1B78054618BFE418FFF73F
:10304000EDFF431BA342FAD338BD00BF04000020AC
:1030500037B51E4DAB6DDA00044618D501F0BCFB48
:10306000B0F5007F23D1802C29D9A02C8CBF02245D
:10307000012417490A6822F0070222430A600868FF
:1030800000F00700001B18BF012003B030BDAB6D7E
:1030900043F08053AB65AB6D03F080530193019B0C
:1030A00001F09AFBAB6D23F08053AB65D8E7802C21
:1030B00007D808D0A4F170035C425C41D9E7002432
:1030C000D7E70324D5E70224D3E700BF001002406E
:1030D00000200240204B9A68D96812F00C0205D0FB
:1030E0000C2A2CD101F0030101292FD119681B48AA
:1030F000090755BFD3F894101968C1F30321C1F330
:10310000031150F8210032B3DA6802F00302022AF8
:103110001ED01349032A08BF0846D968DA68C2F3EB
:1031200006224243D868C0F34160C1F30211013066
:1031300001314000B2FBF1F2B2FBF0F07047042A1B
:1031400008D0082A064818BF002070470020DBE797
:103150000448E2E70348704700100240C82F010806
:1031600000127A000024F4002DE9F74305460028F8
:1031700060D0954C0368A668E768DB0606F00C068D
:1031800007F0030776D51EB10C2E55D1012F53D170
:103190002368980702D5AB69002B4BD02368286AB7
:1031A000190756BFD4F8943023681B0903F0F003C5
:1031B000984229D9FFF74CFF00283BD1236843F000
:1031C0000803236023682A6A23F0F0031343236073
:1031D0006368EA6923F47F4343EA02236360FFF7ED
:1031E00079FFA368794AC3F30313D35C03F01F0389
:1031F000D840774B1860774B186806F0ADF8002878
:1032000038D003B0BDE8F083236843F0080323609F
:10321000236823F0F003034323606368EA6923F41F
:103220007F4343EA02236360002ED8D1FFF710FFEB
:103230000028D4D00120E4E7AB69002B3AD0236802
:1032400043F001032360FFF7E9FE804623689A07F5
:1032500028D5236843F00803236023682A6A23F0F3
:10326000F003134323606368EA6923F47F4343EA6E
:10327000022363602B68D8072DD42B6899076BD481
:103280002B68180700F1A8802B68590700F1CE8041
:103290002B68980600F13781AB6A002B40F05D8106
:1032A0000020AEE7FFF7BAFEA0EB08000228CDD958
:1032B0000320A6E7236823F001032360FFF7AEFE97
:1032C000804623689B07D5D5FFF7A8FEA0EB080032
:1032D0000228F6D9ECE7082E03D00C2E08D1032FD4
:1032E00006D123689A03C8D56B68002BC5D1A1E726
:1032F0006B68B3F5803F10D1236843F480332360BB
:10330000FFF78CFE804623689B03B6D4FFF786FE4A
:10331000A0EB08006428F6D9CAE7B3F5A02F04D1C2
:10332000236843F480232360E6E7226822F4803296
:103330002260226822F480222260002BE0D1FFF775
:103340006DFE80462368980397D5FFF767FEA0EBD4
:1033500008006428F6D9ABE7042E03D00C2E10D158
:10336000022F0ED12368590503D5EB68002B3FF4DB
:1033700061AF63682A6923F0F85343EA026363602C
:103380007EE7EB687BB1236843F480732360FFF72B
:1033900045FE074623685A05EBD4FFF73FFEC01BE6
:1033A0000228F7D984E7236823F480732360FFF7AA
:1033B00035FE074623685B057FF562AFFFF72EFEFB
:1033C000C01B0228F6D973E7001002400030010844
:1033D00000000020080000206B699BB1D4F89430F5
:1033E00043F00103C4F89430FFF718FE0746D4F801
:1033F00094309A073FF548AFFFF710FEC01B022834
:10340000F5D955E7D4F8943023F00103C4F894308B
:10341000FFF704FE0746D4F894309B077FF534AFDE
:10342000FFF7FCFDC01B0228F5D941E7A36DDF00C3
:1034300029D4A36D43F08053A365A36D03F080539B
:103440000193019B4FF00108954F3B68D8051DD5AE
:10345000AB68012B2BD1D4F8903043F00103C4F8B2
:103460009030FFF7DBFD41F288390746D4F8903001
:103470009A0742D5B8F1000F3FF40AAFA36D23F0CD
:103480008053A36504E74FF00008DDE73B6843F491
:1034900080733B60FFF7C2FD81463B68D905D7D4F6
:1034A000FFF7BCFDA0EB09000228F6D900E7052BC9
:1034B00006D1D4F8903043F00403C4F89030CAE742
:1034C000D4F8902022F00102C4F89020D4F8902083
:1034D00022F00402C4F89020002BC2D1FFF79EFD19
:1034E00041F288390746D4F890309B07C2D5FFF7E0
:1034F00095FDC01B4845F6D9DAE6FFF78FFDC01BE6
:103500004845B3D9D4E66B6A9BB1D4F8983043F000
:103510000103C4F89830FFF781FD0746D4F89830CE
:1035200099073FF5B9AEFFF779FDC01B0228F5D921
:10353000BEE6D4F8983023F00103C4F89830FFF7C2
:103540006DFD0746D4F898309A077FF5A5AEFFF7D2
:1035500065FDC01B0228F5D9AAE6022B40F0888041
:10356000E368EA6A03F00301914222D1296B03F078
:1035700070020139B2EB011F1BD1696B03F4FE42EB
:10358000B2EB012F15D1A96B03F07842B2EBC16FFA
:103590000FD1EA6B520803F4C001013AB1EB425F6C
:1035A00007D12A6C520803F0C063013AB3EB426FB3
:1035B00045D00C2E3FF43EAE23685B013FF53AAE9A
:1035C000236823F080732360FFF728FD06462368F5
:1035D0009F012ED4E268334B1340EA6A13436A6BAF
:1035E00043EA0223AA6B43EAC2632A6B013A43EA25
:1035F0000213EA6B5208013A43EA42532A6C52081A
:10360000013A43EA4263E360236843F08073236036
:10361000E36843F08073E360FFF700FD054623682D
:1036200098013FF53DAEFFF7F9FC401B0228F6D9A3
:103630003EE6FFF7F3FC801B0228C8D938E6236872
:1036400099013FF52DAE236843F080732360E36852
:1036500043F08073E360FFF7E1FC054623689A01BD
:103660003FF51EAEFFF7DAFC401B0228F6D91FE635
:103670000C2E3FF4DFAD236823F080732360FFF747
:10368000CDFC054623689B0104D4E268064B134039
:10369000E36005E6FFF7C2FC401B0228F2D907E60B
:1036A000007000408C809D01FCFFEEFE2DE9F04192
:1036B0000D46044610B90120BDE8F0814B4A13685D
:1036C00003F007038B422CD32168880734D4C90741
:1036D0003FD421688A0768D4444A136803F007037B
:1036E000AB426FD811F0040F414D77D10B0706D5CF
:1036F000AB68226923F4605343EAC203AB60FFF76F
:10370000E9FCAB683B4AC3F30313BDE8F041D35C6B
:1037100003F01F03D840384B1860384B186805F089
:103720001BBE136823F007030B431360136803F0F9
:1037300007038B42BFD1C7E72D4AA068936803F007
:10374000F003984281BF936823F0F0030343936032
:10375000BDE76268264E032A33681AD113F0007F52
:10376000A9D0B36823F003031343B360FFF756FCFB
:1037700041F288380746B368626803F00C03B3EB84
:10378000820FA6D0FFF74AFCC01B4045F3D90320A7
:1037900092E7022A02D113F4003FE1E712B913F0D5
:1037A000020FDDE713F4806FDAE7114AA06893682F
:1037B00003F0F00398423FBF936823F0F003034304
:1037C000936089E7136823F007032B4313601368A2
:1037D00003F00703AB427FF46EAF83E7AB68E268A8
:1037E00023F4E0631343AB6080E700BF0020024096
:1037F00000100240003001080000002008000020F6
:10380000054B064A9B68C3F30223D35C044A106845
:1038100003F01F03D840704700100240F82F010842
:1038200000000020054B064A9B68C3F3C223D35C0B
:10383000044A106803F01F03D8407047001002408C
:10384000F82F0108000000200F2303600B4B9A683B
:1038500002F0030242609A6802F0F00282609A6805
:1038600002F4E062C2609B68DB0803F4E06303617A
:10387000034B1B6803F007030B6070470010024006
:1038800000200240F8B5414CE3689B0705460E4610
:10389000006828D0E36803F0030383423AD1002B89
:1038A00038D0E3686A68C3F302130133934231D11D
:1038B000236823F080632360FFF7B0FB074623688B
:1038C0001A0130D4AA681202A6B3012E23694BD183
:1038D000296923F4C003490823F4FE430139134343
:1038E00043EA41532FE0022810D0032814D00128C6
:1038F00010D123689F071CD5E3686A6823F073031F
:10390000013A034343EA0213E360D1E7236813F467
:10391000806FF1D101200CE023689903ECD4236877
:1039200013F4802FF5E7FFF779FBC01B0228C6D9F7
:103930000320F8BD2169EB6842EAC36321F07842B5
:1039400022F4FE4213432361236843F08063236023
:10395000FFF764FB064623681B0110D52369AA699B
:10396000134323610020E4E7696923F0C063490839
:1039700023F4FE430139134343EA4163E3E7FFF7CE
:103980004DFB801B0228E6D9D2E700BF00100240A1
:1039900003682DE9F7431E05044640F1E780C16B3B
:1039A000B1F5000F00F0D480B1F5400F00F0D580E4
:1039B000002900F0DD80012623689D0333D59A4D50
:1039C000AB6DD80000F1DC80AB6D43F08053AB658C
:1039D000AB6D03F080530193019B0127DFF84C820C
:1039E000D8F8003043F48073C8F80030FFF716FBB6
:1039F0008146D8F80030D90540F1C48076B9D5F8B1
:103A00009030226D13F4407340F0C580D5F89030AB
:103A1000226D23F440731343C5F890301FB1AB6D92
:103A200023F08053AB652368DF0708D57E49206A01
:103A3000D1F8882022F003020243C1F888209D07B4
:103A400008D57949606AD1F8882022F00C02024337
:103A5000C1F88820980608D57349A06AD1F8882053
:103A600022F440620243C1F88820990508D56E49C6
:103A7000606BD1F8882022F440220243C1F88820EC
:103A80005A0508D56849A06BD1F8882022F4401265
:103A90000243C1F888205F0608D56349E06AD1F87F
:103AA000882022F440520243C1F88820DD0508D561
:103AB0005D49206BD1F8882022F440320243C1F8DE
:103AC0008820980410D5584A216CD2F8883023F009
:103AD00040630B43B1F1006FC2F8883040F084803E
:103AE000D36843F48013D3603746236859030FD556
:103AF0004D4A616CD2F8883023F040630B43B1F13A
:103B0000006FC2F888307CD1D36843F48013D3604F
:103B10003D4623685A040BD54349A26CD1F888303E
:103B200023F040531343B2F1805FC1F8883074D062
:103B3000284623681B0408D53B4AE16CD2F888303C
:103B400023F080430B43C2F8883003B0BDE8F08314
:103B5000354AD36843F48033D360334AE16BD2F8FB
:103B6000883023F440030B43C2F88830002623E753
:103B70000430FFF787FE064600287FF41DAFECE710
:103B800000272BE7FFF74AFAA0EB090002287FF68F
:103B900030AF032642E793423FF438AFD5F8902088
:103BA000D5F8903043F48033C5F89030D5F8903094
:103BB00022F4407123F48033D207C5F89030C5F861
:103BC00090107FF523AFFFF729FA41F2883980463C
:103BD000D5F890309B073FF519AFFFF71FFAA0EB20
:103BE00008004845F4D9D4E7B1F1806F7FF47CAF89
:103BF0000121201DFFF746FE074600283FF474AF61
:103C000073E7B1F1806F83D10121201DFFF73AFEE8
:103C1000054600283FF47CAF7BE70221201DFFF71B
:103C200031FE002884D084E700100240007000407C
:103C3000094A536943F4802310B55361EFF31082AE
:103C400072B60023CC58C4500433B3F5807FF9D149
:103C500082F3108810BD00BF00200240064B5A6955
:103C6000002ABFBF054A9A6002F188329A60BABF43
:103C70005869C00F002070470020024023016745AB
:103C8000034A536943F0004353610020704700BF6B
:103C90000020024070B50546FFF7C0F90F4C0646FC
:103CA0002369DA030AD423690D4A13400FD00D4962
:103CB0004A681A434A600120236170BD691CEFD035
:103CC000FFF7ACF9801BA842EAD30320F5E723698C
:103CD000DB0744BF012323610020EEE70020024000
:103CE000FAC302000C0000202DE9F843254D994647
:103CF0002B78012B04460F46904641D001234CF20D
:103D000050302B70FFF7C6FF064630BB68601E4878
:103D1000026812F4806217BF03682A7723F4806375
:103D200003601CBF02232B77E4B9436943F001030E
:103D30004361C7F80080BFF36F8F0124C7F8049078
:103D40004CF25030FFF7A6FF064624B10E4A5369E5
:103D500023EA0403536100F03DF800232B70304642
:103D6000BDE8F883631E012B08D841463846FFF7AB
:103D70005FFFA31E5C425C41A404E1E70024DFE78F
:103D80000226ECE70C00002000200240064B10F059
:103D9000010F1EBF5A6942F004025A615A6942F487
:103DA00080325A61704700BF00200240084B5A69B8
:103DB000C00022F47E7200F4FF60104358615A691B
:103DC00042F002025A615A6942F480325A617047E5
:103DD000002002401548037FDAB203F0FD03012BF7
:103DE00010D1134B196821F400711960196841F45E
:103DF00000611960196821F400611960196841F4C3
:103E000000711960931E012B0CD8094B1A6842F4FB
:103E100080521A601A6822F480521A601A6842F4BA
:103E200080621A6000230377704700BF0C000020F7
:103E3000002002402DE9F047324D2B78012B064639
:103E400088465CD001274CF250302F70FFF722FFDC
:103E5000044610BB2C4B68601A6812F4007F1A6885
:103E600020D0510506D51A6822F480621A60032317
:103E70002B7700E02F773368012B1DD17068FFF797
:103E800085FF4CF25030FFF705FF1F4A536923F0BE
:103E9000040304465361FFF79DFF00232B70204667
:103EA000BDE8F087520505D51A6822F480621A60D1
:103EB0000223DDE72877DEE74FF0FF33C8F8003054
:103EC000B768DFF84490DFF844A0D6E90232134423
:103ED000BB42E0D971683846FFF768FF4CF25030BA
:103EE000FFF7D8FED9F8143003EA0A03C9F81430F2
:103EF00018B1C8F800700446CDE70137E5E70224A1
:103F0000CDE700BF0C0000200020024005FCFFFFB1
:103F10002DE9F74FDFF86491564C00230A6832FA16
:103F200003F502D103B0BDE8F08F012505FA03F8CF
:103F300018EA020200F098804E68032706F0030595
:103F40004FEA430E07FA0EFC6F1E012F6FEA0C0CAE
:103F500034D8876807EA0C0ACF6807FA0EF747EAF1
:103F60000A078760476827EA0808C6F300179F40DA
:103F700047EA08074760C76807EA0C088F6807FA2E
:103F80000EF747EA0807022DC76019D14FEAD30898
:103F900000EB880803F0070AD8F820704FEA8A0A75
:103FA0004FF00F0B0BFA0AFB27EA0B0B0F6907FA0E
:103FB0000AF747EA0B07C8F8207001E0032DDAD1B1
:103FC000076805FA0EF507EA0C073D4316F4403F73
:103FD000056049D0D9F8605045F00105C9F8605036
:103FE000D9F8605023F0030707F1804705F0010579
:103FF00007F58037019503F0030C019DBD684FEA7A
:104000008C0C4FF00F0E0EFA0CFEB0F1904F25EA1B
:104010000E0E2BD0184DA8422AD005F58065A84277
:1040200014BF0725022505FA0CF545EA0E05BD600B
:10403000A568D74316F4801F0CBF3D401543A5600B
:10404000E56816F4001F0CBF3D401543E560656848
:1040500016F4003F0CBF3D40154365602568F6032C
:1040600054BF3D4015432560013357E70025DAE78B
:104070000125D8E700040140000400480010024078
:104080000369194214BF0120002070470AB1816101
:104090007047816270470000044A5169014208B5C7
:1040A00002D0506104F0FAFF08BD00BF00040140D7
:1040B00003689A69910744BF00229A629A69D207FD
:1040C0005EBF9A6942F001029A61704730B5039D64
:1040D00004682B4343EA0243064A6068C1F30901BE
:1040E0000B4342EA555223F0004320EA0200034307
:1040F000636030BDFF63FF0303682DE9F0419C69F5
:1041000014F0100405460F4616466FD01022002406
:10411000DA61A0462B689A69900661D4B8F1000F65
:1041200035D044F0040401202E68B369D90541BF9D
:104130004FF48072F26144F0010401205A0541BF3E
:104140004FF4806244F00804F26101209B054FD5D2
:104150004FF4007344F00204F3612846FFF7A8FF10
:10416000736823F0FF7323F48B3323F4FF7323F07E
:10417000010373606B6C23436B64202385F841302B
:10418000002385F8423085F84030012032E07A1C67
:10419000C1D0FEF743FF801BB84201D8002FB9D130
:1041A0002B68596895F8422098690004D2B20AD564
:1041B000490408D4202A06D05A6842F480425A6042
:1041C000FEF72CFF06462B689B699B06A2D4FEF7E0
:1041D00025FF801B1928F6D920244FF0010899E704
:1041E000B8F1000F9DD12022DA619AE720469BE7C3
:1041F0000028B2D1BDE8F08170B504460D461646E0
:1042000023689B699B0701D500201FE032462946A1
:104210002046FFF771FFC0B96A1CF1D0FEF7FEFE21
:10422000801BA84201D8002DEAD123689B6913F0B6
:104230000203E5D1626C84F8403042F020026264EF
:10424000202284F8412084F84230012070BD2DE9FD
:10425000F041DDF8188004460F4616461D462368D7
:104260009B6937EA03030CBF01230023B34201D04B
:10427000002025E0424629462046FFF73DFFF0B9E1
:104280006B1CECD0FEF7CAFEA0EB0800A84201D8D8
:10429000002DE4D123689B6937EA03030CBF012397
:1042A0000023B342DBD1636C43F02003636420231B
:1042B00084F84130002384F8423084F840300120F3
:1042C000BDE8F08170B504460D46164623689B692B
:1042D0009B0601D500201DE0324629462046FFF707
:1042E0000BFFB0B9FEF79AFE801BA84201D8002D43
:1042F000ECD123689B6913F02003E7D1626C84F84A
:10430000403042F020026264202284F8412084F888
:104310004230012070BD10B5044600284ED090F800
:10432000413003F0FF021BB980F8402004F058FF31
:10433000242384F8413023681A6822F001021A60AD
:10434000626822F070621A619A6822F400429A60F0
:10435000D4E90221012906D142F400429A605A6848
:1043600022F4006207E042F4044202299A60F6D186
:104370005A6842F400625A605A6842F0007242F48D
:1043800000425A60DA6822F40042DA60D4E904217B
:104390000A43A16942EA0122DA60D4E907210A430B
:1043A0001A601A6842F001021A600020202360643B
:1043B00084F84130206384F8420010BD0120FCE7FE
:1043C0002DE9F74F994690F84130BDF834A0DDF85B
:1043D0003880202B04460F46164640F0C6800C9BC2
:1043E00013B1BAF1000F06D14FF4007363640120DA
:1043F00003B0BDE8F08F90F84030012B00F0B5809D
:104400004FF0010B80F840B0FEF708FE1923054677
:1044100000905A464FF400412046FFF718FF00284D
:10442000E5D1212384F84130402384F842300C9BAD
:1044300063624F4B60646063A4F82AA05FFA89F25C
:104440000093394620464FF08073FFF73FFE2A461F
:1044500041462046FFF7D0FE18BBB9F1010F236893
:1044600015D1F6B29E620022009543468021204677
:10447000FFF7EDFEA8B9638D9BB2FF2B15D8628DB7
:1044800092B222854FF000730090D2B212E0320A4D
:104490009A6241462A462046FFF7AEFE08B92368D5
:1044A000DFE7002384F84030A1E7FF2222854FF0A8
:1044B0008073009039462046FFF708FE2A464146A1
:1044C0002046FFF799FE002891D1636A226813F80D
:1044D000011B91626362638D228D013B9BB26385F8
:1044E000638D013A92B29BB22285B3B1AAB900950D
:1044F000434680212046FFF7AAFE00287FF477AFCD
:10450000638D9BB2FF2B28D9FF2222854FF0807349
:10451000009039462046FFF7D9FD638D9BB2002BF2
:10452000CCD12A4641462046FFF7CCFE00287FF436
:104530005EAF23682021D9615A6822F0FF7222F40D
:104540008B3222F4FF7222F001025A6084F841108B
:1045500084F8400084F842004AE7628D92B22285D6
:104560004FF000730090D2B2D3E7022040E700BFC3
:10457000002000802DE9F74F994690F84130BDF8B2
:1045800034A0DDF83880202B04460F46164640F054
:10459000C9800C9B13B1BAF1000F06D14FF4007320
:1045A0006364012003B0BDE8F08F90F84030012B28
:1045B00000F0B8804FF0010B80F840B0FEF72EFD00
:1045C0001923009005465A464FF400412046FFF754
:1045D0003EFE03460028E4D1222284F841204022F6
:1045E00084F842200C9A62624F4A60646063A4F8C7
:1045F0002AA03946009220465FFA89F2FFF766FD4D
:104600002A4641462046FFF7F7FD20BBB9F1010FCE
:10461000236816D1F6B29E620022009543464021DF
:104620002046FFF714FEB0B9638D9BB2FF2B3F4BC2
:1046300015D8628D92B222850093D2B24FF00073EA
:1046400012E0320A9A6241462A462046FFF7D4FD1C
:1046500008B92368DEE7002384F84030A1E701228F
:10466000228500934FF0807339462046FFF72EFDD8
:1046700000954346002204212046FFF7E8FD00286C
:104680008FD123685A6A636A1A70636A228D013374
:104690006362638D013B9BB26385638D013A92B285
:1046A0009BB22285B3B1AAB900954346802120462A
:1046B000FFF7CDFD00287FF474AF638D9BB2FF2B15
:1046C00028D9012222854FF0807300903946204678
:1046D000FFF7FCFC638D9BB2002BC9D12A464146F3
:1046E0002046FFF7EFFD00287FF45BAF2368202111
:1046F000D9615A6822F0FF7222F48B3222F4FF72E1
:1047000022F001025A6084F8411084F8400084F8D5
:10471000420047E7628D92B222854FF0007300900D
:10472000D2B2D3E702203DE70020008000240080C1
:1047300010B590F84120202A0346D4B21CD190F83D
:104740004020012A18D0242280F8412002681068F5
:1047500020F001001060106820F480501060106894
:10476000014311601168002041F00101116083F8DC
:10477000414083F8400010BD0220FCE710B590F8DE
:104780004120202A0346D4B21BD190F84020012AB0
:1047900017D0242280F841200268106820F0010020
:1047A0001060106820F4706040EA01211160116807
:1047B000002041F00101116083F8414083F840007E
:1047C00010BD0220FCE70000024A136843F4807326
:1047D0001360704700700040024B186800F4C0601E
:1047E000704700BF00700040174A1368B0F5007FA3
:1047F00003F4C0631BD1B3F5007F1BD0136823F40F
:10480000C06343F400731360104B1B6832214B43A9
:104810000F49B3FBF1F301335169490500D523B9C1
:1048200053695B0506D503207047013BF4E7B3F5F8
:10483000806F01D100207047136823F4C06343F4F4
:1048400080631360F6E700BF0070004000000020A6
:1048500040420F00024A536843F48063536070473C
:10486000007000400749CA6822F4E06203021204A3
:1048700003F4E063120C134343F0BF6343F40033CB
:10488000CB60704700ED00E0164B30B5DC68C4F338
:104890000224C4F10703251D042B28BF0423062D81
:1048A0004FF0FF358CBF033C002405FA03F321EAE7
:1048B0000303A54022EA0502A340002843EA0203BD
:1048C000ACBF00F16040084A4FEA0313B8BF00F0E4
:1048D0000F00DBB2AABF00F56140135480F800332B
:1048E00030BD00BF00ED00E014ED00E0002807DB64
:1048F000044A4109012300F01F00834042F821309F
:10490000704700BF00E100E030B5CC0D04F00404B6
:104910001430C1F30451035907258D4023EA0503E0
:104920008A401343035130BD8068C0F38000704754
:1049300037B5002301930446002800F0B980456D87
:1049400025B904F01DFCA56584F8505023689A68C9
:10495000900041BF9A6822F0204222F03F029A6004
:104960009A68D10040F183809A68D20000F1968065
:10497000626D42F010026265A26D42F00102A26512
:1049800001211846FFF7D0FF626D02F010020243CA
:1049900040F08A80626D22F4817242F00202626508
:1049A0009A68D5070AD4434A9268D00706D4424889
:1049B0006568826822F47C122A438260E568626B33
:1049C00094F820002A43A5682A43657E012842EA1C
:1049D000453242EA004202BF606A00F1FF3042EA1B
:1049E0004042A06A20B1E56A00F470702843024397
:1049F000DD68324828401043D8609A6812071ED4F8
:104A0000D86894F83020257E520020F4804042EA95
:104A1000853220F002000243DA6094F83820012A3F
:104A20003ED1D4E90F2518692A436FF38A00024367
:104A3000606C0243A06C024342F001021A612269D9
:104A4000012A05BF186BE2691A6B02F1FF3206BF3B
:104A500020F00F00024322F00F021A63636D23F06F
:104A6000030343F001036365084603B030BD9A6851
:104A7000134922F0104222F03F0242F080529A6025
:104A8000104A1268B2FBF1F2013252000192019A0F
:104A9000002A3FF469AF019A013AF7E7002170E775
:104AA0001A6922F00102C9E7636D43F010036365E0
:104AB0000121D9E7000004500003045007C0F0FFB3
:104AC000400D030000000020F8B54569082D04469C
:104AD0000E460AD00368DB68D90705D5436D43F05D
:104AE000200343650120F8BD0425FEF797FA074629
:104AF00023681A682A421DD0626D42F40072626512
:104B0000DA6812F4406F0FD1627E6AB91A68100732
:104B10000AD5626D22F480726265626DD1045EBF57
:104B2000626D42F001026265082DDA6817D11D60DE
:104B30000020D8E7721CDCD0FEF770FAC01BB04230
:104B400001D8002ED4D123681B682B40D0D1626DD0
:104B500084F8503042F0040262650320C3E7520437
:104B6000E6D40C221A60E3E70368186C7047000073
:104B7000F7B50023019390F85030012B05460E46FF
:104B800000F0A6810468012380F850302046FFF72A
:104B9000CBFE002840F096814B68052B06D8023BDF
:104BA000032B9ABFBB4A32F81330062399093268A7
:104BB00001F00C0104F1300703F01F0378584FF0A7
:104BC0001F0CC2F384629A400CFA03F320EA030339
:104BD0001A437A502046FFF7A7FEA36803F00803A4
:104BE000034320D1B26831682046FFF78DFE30695B
:104BF0007769E1683368042804F1600250D052F804
:104C000020E0DFF8BCC2C1F3C10103F0F8430EEAB3
:104C10000C0C490043EA0C0307FA01F10B4343F083
:104C2000004342F82030A2683368D7072DD4F768D4
:104C3000994AD4F8B01007F0180CC3F3120022FA06
:104C40000CF21A4021EA00010A43C4F8B020934A4A
:104C500097421AD1002840F082809A0E013202F069
:104C60001F01012009294FEA826201FA00F300F2D4
:104C70009C8002F0F842884002430B441B0543EA43
:104C800002012046B268FFF73FFE3168844B1942AB
:104C900040F0B7800020002385F8503003B0F0BD0D
:104CA000216E216EC3F31200C1F38461002839D153
:104CB000C3F38463994202BF236E23F0004323664B
:104CC000636E3368616EC3F31200C1F38461002820
:104CD0002FD1C3F38463994202BF636E23F0004374
:104CE0006366936833689168C3F31200C1F384610B
:104CF00030BBC3F38463994202BF936823F000433F
:104D00009360D3683368D168C3F31200C1F3846140
:104D1000E8B9C3F38463994202BFD36823F0004328
:104D2000D36080E793FAA3F3002BC9D0B3FA83F3DF
:104D3000C0E793FAA3F3002BD3D0B3FA83F3CAE707
:104D400093FAA3F3002BDCD0B3FA83F3D3E793FAFF
:104D5000A3F3002B3FF467AFB3FA83F3DBE793FAD7
:104D6000A3F232B1B2FA82F2013202F01F02092A32
:104D700025D893FAA3F1B1FA81F10131890601F046
:104D8000F84193FAA3F0B0FA80F0013000F01F0070
:104D9000012282400A4393FAA3F3B3FA83F3013367
:104DA00003F01F0303EB430368E7884019441E39EF
:104DB00002F0F8420905024341F000735FE793FAFD
:104DC000A3F1B1FA81F10131890601F0F84193FABA
:104DD000A3F0B0FA80F0013000F01F000122824001
:104DE0000A4393FAA3F1B1FA81F1013101F01F01F5
:104DF00003236FF01D0013FB01031B0543F0007339
:104E00003DE7284B284E9A68B14202F0E0701DD170
:104E100016023FF53FAF254A94427FF43BAF9A68B4
:104E200022F0E072024342F400029A60204B1A68BA
:104E3000204BB2FBF3F20C2302FB03330193019BE3
:104E4000002B3FF427AF019B013BF7E71A4EB1421D
:104E50000ED1D1013FF51EAF144A94427FF41AAF30
:104E60009A6822F0E072024342F080729A6011E781
:104E7000124EB1427FF40EAF52023FF50BAF0B4A18
:104E800094427FF407AF9A6822F0E072024342F442
:104E90008002EBE710300108FFFF070000007F40B1
:104EA0000000088000030450000052C700000450B6
:104EB00000000020400D0300000084CB01000080B2
:104EC00000F0FF036A6D42F020026A651846E2E6D0
:104ED0000220E3E6036870B504461846FFF724FD98
:104EE0009A6802F00802024301D1002070BDDA681E
:104EF00092013AD5208B40F20112904235D1274AD7
:104F000019684E0625D540221A6001211846FFF780
:104F10000BFD50B19A68950707D49A6822F00042B9
:104F200022F03F0242F010029A6001291FD10425AD
:104F3000FEF774F8064623689B682B42D5D0FEF72F
:104F40006DF8801B0528F6D923689B682B42F2D0A8
:104F500001E0013AD4D1636D43F010036365A36DA2
:104F600043F00103A3650120C0E70229CED19A686E
:104F700010070AD59A68920707D49A6822F000426F
:104F800022F03F0242F020029A60022903D0032956
:104F9000CDD10C25CCE70825CAE700BF010040A30E
:104FA00073B50023026801939368DD07044602D5B8
:104FB000002002B070BD9168204B194209D0636D8A
:104FC00043F010036365A36D43F00103A365012063
:104FD000EFE7936823F0004323F03F0343F001031E
:104FE0009360174B9B68180219D4FEF717F8154EFB
:104FF000054622681368DB07DAD49368D9075FBFD8
:105000009368334043F001039360FEF707F8401BB9
:105010000228EED923681B68DA07EAD4CFE70A4BE7
:105020001A680A4BB2FBF3F20C2302FB0333019321
:10503000019B002BD9D0019B013BF8E73F0000808A
:1050400000030450C0FFFF7F00000020400D03005C
:1050500038B504460068FFF767FC0546002836D1DE
:1050600094F85030012B32D0012384F85030204680
:10507000FFF796FF40BB636D23F4706323F00103D9
:1050800043F480736365636DDA0448BFA36D2268DF
:1050900052BFA06523F00603A3651C231360002301
:1050A00084F85030D3689B0141BF636D23F44053B3
:1050B00043F480536365936823F0004323F03F0378
:1050C00043F00403936038BD84F85050FBE702209E
:1050D000F9E7026838B5936891680446C80701D4B7
:1050E000002038BD9907FBD4936803F00D03012B12
:1050F00019D1936823F0004323F03F0343F00203E8
:10510000936003231360FDF789FF054623689B68BE
:10511000DB07E5D5FDF782FF401B0228F6D923689F
:105120009B68DA07F2D5636D43F010036365A36DE6
:1051300043F00103A3650120D3E710B590F8503088
:10514000012B044616D0012380F850300321FFF7CD
:10515000C1FE58B92046FFF7BCFF38B9636D23F490
:10516000885323F0010343F001036365002384F8AF
:10517000503010BD0220FCE7026852E8003F23F4E3
:10518000907342E8003102680029F5D102F108036A
:1051900053E8003F23F0010302F1080C4CE8003112
:1051A0000029F3D1036E012B07D152E8003F23F011
:1051B000100342E800310029F7D12023C0F88030E5
:1051C000002303668366704738B50446C0692169C9
:1051D000A26823680A4361691D680A435E49024365
:1051E00029400A431A605A68E16822F440520A438F
:1051F0005A605A4AA16993421CBF226A11439A68B5
:1052000022F430620A439A60554A934214D1554BB6
:10521000D3F8883003F00303022B00F09480032BB3
:1052200000F08B80012B00F08280B0F5004F00F081
:105230008F80FEF7F7FA11E04B4A934221D1494B98
:10524000D3F8883003F00C03082B7CD015D8002B42
:105250006DD1B0F5004F4ED0FEF7D2FA08B36268B8
:1052600000EB5203B3FBF2F34FF6EF72A3F1100120
:10527000914204D82268D36013E00C2B5DD001204A
:1052800010E0364A9342FAD1364BD3F8883003F413
:105290004063B3F5006F12D008D86BB9FEF7B0FACF
:1052A00070B900200023C4E91A3338BDB3F5406F4C
:1052B000E5D14FF4004003E0FDF70CFFF0E72B4889
:1052C000626802EB42038342D9D8B0EB023FD6D8E2
:1052D000510800238C464FF480751946E0FB05C148
:1052E0006046FBF7E1FC224BA0F540729A42C6D81B
:1052F0002368D860D5E7FEF783FA0028D1D062682A
:10530000530803EB4003B3FBF2F34FF6EF72A3F144
:1053100010019142B3D823F00F02216892B2C3F377
:1053200042031343CB60BCE7FDF7D4FE96E7B0F52C
:10533000004FF9D1FDF7CEFEDFE7B0F5004FDED02C
:105340004FF400408BE7B0F5004F084887D1D6E70F
:10535000FEF768FAD1E700BFF369FFEF0080004075
:105360000038014000100240004400400024F400D6
:10537000FFFC0F00436A1A0710B506D50168446B9D
:105380004A6822F4004222434A60DC0706D50168DD
:10539000846A4A6822F4003222434A60990706D59B
:1053A0000168C46A4A6822F4803222434A605A077C
:1053B00006D50168046B4A6822F4802222434A60C1
:1053C000DC0606D50168846B8A6822F48052224389
:1053D0008A60990606D50168C46B8A6822F4005277
:1053E00022438A605A060FD50168046C4A6822F489
:1053F00080122243B4F5801F4A6005D14A68446C8C
:1054000022F4C00222434A601B0606D50268816C62
:10541000536823F400230B43536010BD2DE9F84378
:10542000DDF8209004460D46174698462268D36959
:1054300035EA03030CBF01230023BB4201D0002047
:1054400022E0B9F1FF3FF2D0FDF7E8FDA0EB080044
:10545000484529D8B9F1000F26D021680B685A07B2
:10546000E4D5802DE2D0402DE0D0CE6916F00806BC
:105470000CD0082520460D62FFF77EFE0023C4F8FD
:10548000845084F878300120BDE8F883CB691B058F
:10549000CCD54FF400630B622046FFF76DFE20234E
:1054A000C4F8843084F878600320EDE72DE9F743F1
:1054B0009846C36F202B04460E46174643D1002959
:1054C00043D0002A41D021230025C0F88450C3676F
:1054D000FDF7A4FDA368A4F85070B3F5805F814682
:1054E000A4F8527003D123690BB935461E46B4F8AF
:1054F0005220CDF8008092B24B463AB94021204666
:10550000FFF78CFF202340B9E36708E000228021E9
:105510002046FFF783FF28B12023E367032003B071
:10552000BDE8F08322685EB935F8023BC3F3080397
:105530001385B4F85220013A92B2A4F85220D6E76B
:1055400016F8013BF4E70220E9E70120E7E72DE93F
:10555000F7439846D0F88030202B04460F46164675
:105560005CD100295CD0002A5AD022230025C0F843
:105570008450C0F880300566FDF750FDA368A4F89C
:105580005860B3F5805F8146A4F85A600DD1236955
:10559000DBB1FF221646A4F85C20B4F85A0080B2B2
:1055A000E0B92023C4F8803025E033B92569002D07
:1055B000EFD07F2216461D46EDE7B3F1805F0AD19A
:1055C0002369002BF5D03F22E4E740F2FF123D466D
:1055D00016461F46DFE72A462E46DCE7CDF8008058
:1055E0004B46002220212046FFF718FF30B1202330
:1055F000C4F88030032003B0BDE8F08323689B8C9F
:10560000334047B925F8023BB4F85A30013B9BB20E
:10561000A4F85A30C1E707F8013BF5E70220EAE7B2
:105620000120E8E773B504460026C0F88460FDF762
:10563000F5FC23681B681A0705461BD56FF07E43EF
:105640000093324603464FF400112046FFF7E6FE72
:1056500080B1226852E8003F23F0800342E8003125
:105660000029F6D12023E3670320002384F8783053
:1056700002B070BD23681B685B0724D56FF07E43C2
:10568000009300222B464FF480012046FFF7C6FE10
:10569000C8B1226852E8003F23F4907342E8003119
:1056A00022680029F5D102F1080353E8003F23F0F6
:1056B000010302F1080040E800310029F3D1202362
:1056C000C4F88030D0E720230020E367C4F880309E
:1056D00020666066C9E710B5044640B3C36F1BB9C6
:1056E00080F8783003F0F6FD22682423E36713681E
:1056F00023F001031360636A13B12046FFF73AFEFB
:105700002046FFF761FD012811D023685A6822F472
:1057100090425A609A6822F02A029A601A6842F00F
:10572000010220461A60BDE81040FFF77BBF012050
:1057300010BD78B10023C0F8B832C0F8C432C0F848
:10574000D03209B1C0F8B412012380F89C32027043
:1057500003F006B90320704713B500230446ADF8E3
:10576000063081B1CB6AC0F8B81223B10DF1060042
:105770009847C4F8D002D4F8D8320133C4F8D832EC
:10578000002002B010BD0320FBE703F023B9D0F8DE
:10579000B8320BB11B6818471846704708B5D0F8E7
:1057A000B8325B689847002818BF032008BD38B599
:1057B000044600F2AA25284600F072FB012394F863
:1057C000AA12C4F89432B4F8B032C4F8983201F096
:1057D0001F03012B08D0022B0CD08BB92946204681
:1057E000BDE8384000F014B929462046BDE83840ED
:1057F00000F086BA29462046BDE8384000F0AFBA2E
:10580000204601F08001BDE8384003F012B970B5C0
:105810000446164609BBD0F89432032B0CD1D0E9CC
:10582000573293420AD99B1A9A42C0F85C3128BF7A
:105830001A46314600F07BFB002070BD90F89C3288
:10584000032B06D1D0F8B8321B6913B1C0F8D412BB
:105850009847204600F073FBEEE790F89C32032B4C
:10586000EAD1D0F8B8329B69002BE5D00022BDE820
:105870007040C0F8D422184770B5044616460D464D
:1058800000293DD1D0F89432022B0ED1D0E9073255
:10589000934212D99A1AC261314600F040FB2B465E
:1058A0002A462946204603F002F994F8A03213B1A3
:1058B000002384F8A032002070BD0CD1826993428D
:1058C00009D8D0F898329A4205D20A4600F027FB50
:1058D000C4F89852E3E794F89C32032B08D1D4F82B
:1058E000B832DB6823B10022C4F8D422204698479E
:1058F0008021204603F09DF8204600F02BFBD4E7E2
:1059000090F89C32032BD6D1D0F8B8325B69002BCB
:10591000D1D00022BDE87040C0F8D4221847F8B5B5
:10592000012380F89C32D0F8B83200210446C0F838
:1059300094124160C0F8A41280F8A012B3B90026F6
:1059400000224025114601274023204603F04DF850
:10595000A4F86471C4F860512B46002280212046CF
:1059600003F043F8A78425623046F8BD5B68002B3E
:10597000E5D098470028E2D00326E1E70174002033
:10598000704790F89C32042B1EBF90F89C32DBB21B
:1059900080F89D32042380F89C320020704790F8F4
:1059A0009C32042B02BF90F89D32DBB280F89C320F
:1059B0000020704708B590F89C22032A05D1D0F842
:1059C000B83213B1DB6903B19847002008BD00204D
:1059D00070470020704710B5428803789A4201D87A
:1059E000002010BD0478204423444478052C9BB249
:1059F000F4D184788C42F1D1F3E710B580210446CC
:105A000003F017F820460021BDE8104003F011B85C
:105A100073B50B7803F06003202B04460D4609D0C4
:105A2000402B07D093B12046FFF7E7FF002528461B
:105A300002B070BDD4F8D432AE33294654F82330C6
:105A40009B68204602B0BDE8704018474B78092B90
:105A5000E9D801A252F823F0A15C0008E55C000837
:105A6000275A0008C95C0008275A00089B5B0008F9
:105A7000815A0008275A0008755C0008DD5B0008A1
:105A80000023ADF806304B881A0A013A0E2ACAD80C
:105A900001A151F822F000BFDF5A0008115B000895
:105AA0002B5B0008275A0008275A00086D5B000886
:105AB000835B0008275A0008275A0008275A000865
:105AC000275A0008275A0008275A0008275A0008B2
:105AD000D55A0008D0F8B432DB691BB9A3E7D0F877
